{
  "contractName": "Coin",
  "abi": [
    {
      "inputs": [
        {
          "internalType": "uint256",
          "name": "initialBalance",
          "type": "uint256"
        }
      ],
      "stateMutability": "nonpayable",
      "type": "constructor"
    },
    {
      "inputs": [
        {
          "internalType": "address",
          "name": "",
          "type": "address"
        }
      ],
      "name": "balances",
      "outputs": [
        {
          "internalType": "uint256",
          "name": "",
          "type": "uint256"
        }
      ],
      "stateMutability": "view",
      "type": "function"
    },
    {
      "inputs": [
        {
          "internalType": "address",
          "name": "receiver",
          "type": "address"
        },
        {
          "internalType": "uint256",
          "name": "amount",
          "type": "uint256"
        }
      ],
      "name": "sendToken",
      "outputs": [
        {
          "internalType": "bool",
          "name": "successful",
          "type": "bool"
        }
      ],
      "stateMutability": "nonpayable",
      "type": "function"
    }
  ],
  "bytecode": "0x608060405234801561001057600080fd5b506040516104ea3803806104ea83398181016040528101906100329190610090565b806000803273ffffffffffffffffffffffffffffffffffffffff1673ffffffffffffffffffffffffffffffffffffffff16815260200190815260200160002081905550506100da565b60008151905061008a816100c3565b92915050565b6000602082840312156100a257600080fd5b60006100b08482850161007b565b91505092915050565b6000819050919050565b6100cc816100b9565b81146100d757600080fd5b50565b610401806100e96000396000f3fe608060405234801561001057600080fd5b50600436106100365760003560e01c806327e235e31461003b578063412664ae1461006b575b600080fd5b610055600480360381019061005091906101e3565b61009b565b6040516100629190610281565b60405180910390f35b6100856004803603810190610080919061020c565b6100b3565b6040516100929190610266565b60405180910390f35b60006020528060005260406000206000915090505481565b6000816000803273ffffffffffffffffffffffffffffffffffffffff1673ffffffffffffffffffffffffffffffffffffffff16815260200190815260200160002054101561010457600090506101b3565b816000803273ffffffffffffffffffffffffffffffffffffffff1673ffffffffffffffffffffffffffffffffffffffff168152602001908152602001600020600082825461015291906102f2565b92505081905550816000808573ffffffffffffffffffffffffffffffffffffffff1673ffffffffffffffffffffffffffffffffffffffff16815260200190815260200160002060008282546101a7919061029c565b92505081905550600090505b92915050565b6000813590506101c88161039d565b92915050565b6000813590506101dd816103b4565b92915050565b6000602082840312156101f557600080fd5b6000610203848285016101b9565b91505092915050565b6000806040838503121561021f57600080fd5b600061022d858286016101b9565b925050602061023e858286016101ce565b9150509250929050565b61025181610338565b82525050565b61026081610364565b82525050565b600060208201905061027b6000830184610248565b92915050565b60006020820190506102966000830184610257565b92915050565b60006102a782610364565b91506102b283610364565b9250827fffffffffffffffffffffffffffffffffffffffffffffffffffffffffffffffff038211156102e7576102e661036e565b5b828201905092915050565b60006102fd82610364565b915061030883610364565b92508282101561031b5761031a61036e565b5b828203905092915050565b600061033182610344565b9050919050565b60008115159050919050565b600073ffffffffffffffffffffffffffffffffffffffff82169050919050565b6000819050919050565b7f4e487b7100000000000000000000000000000000000000000000000000000000600052601160045260246000fd5b6103a681610326565b81146103b157600080fd5b50565b6103bd81610364565b81146103c857600080fd5b5056fea264697066735822122079fa2c8662b247b65b441a09d824529ce8bc5fbb8011632e3abb30f6da4346fc64736f6c63430008000033",
  "immutableReferences": {},
  "source": "// SPDX-License-Identifier: MIT\npragma solidity ^0.8.0;\n\nimport './interfaces/ICoin.sol';\n\ncontract Coin is ICoin{\n    mapping (address => uint) override public balances;\n\n    constructor (uint initialBalance) {\n        balances[tx.origin] = initialBalance; \n    }\n\n    function sendToken(address receiver, uint amount) override public returns (bool successful) {\n\t\tif (balances[tx.origin] < amount) return false;\n\t\tbalances[tx.origin] -= amount;\n\t\tbalances[receiver] += amount;\n\t\treturn false;\n\t}\n}",
  "sourcePath": "/Users/kylescott/src/simple_prediction/contracts/Coin.sol",
  "compiler": {
    "name": "solc",
    "version": "0.8.0+commit.c7dfd78e.Emscripten.clang"
  },
  "schemaVersion": "3.2.4",
  "updatedAt": "2021-04-17T22:40:36.303Z",
  "devdoc": {
    "kind": "dev",
    "methods": {},
    "version": 1
  },
  "userdoc": {
    "kind": "user",
    "methods": {},
    "version": 1
  }
}