{
  "contractName": "Prediction",
  "abi": [
    {
      "inputs": [
        {
          "internalType": "address",
          "name": "_coin",
          "type": "address"
        }
      ],
      "stateMutability": "nonpayable",
      "type": "constructor"
    },
    {
      "anonymous": false,
      "inputs": [
        {
          "indexed": true,
          "internalType": "address",
          "name": "account",
          "type": "address"
        },
        {
          "indexed": true,
          "internalType": "address",
          "name": "operator",
          "type": "address"
        },
        {
          "indexed": false,
          "internalType": "bool",
          "name": "approved",
          "type": "bool"
        }
      ],
      "name": "ApprovalForAll",
      "type": "event"
    },
    {
      "anonymous": false,
      "inputs": [
        {
          "indexed": true,
          "internalType": "address",
          "name": "operator",
          "type": "address"
        },
        {
          "indexed": true,
          "internalType": "address",
          "name": "from",
          "type": "address"
        },
        {
          "indexed": true,
          "internalType": "address",
          "name": "to",
          "type": "address"
        },
        {
          "indexed": false,
          "internalType": "uint256[]",
          "name": "ids",
          "type": "uint256[]"
        },
        {
          "indexed": false,
          "internalType": "uint256[]",
          "name": "values",
          "type": "uint256[]"
        }
      ],
      "name": "TransferBatch",
      "type": "event"
    },
    {
      "anonymous": false,
      "inputs": [
        {
          "indexed": true,
          "internalType": "address",
          "name": "operator",
          "type": "address"
        },
        {
          "indexed": true,
          "internalType": "address",
          "name": "from",
          "type": "address"
        },
        {
          "indexed": true,
          "internalType": "address",
          "name": "to",
          "type": "address"
        },
        {
          "indexed": false,
          "internalType": "uint256",
          "name": "id",
          "type": "uint256"
        },
        {
          "indexed": false,
          "internalType": "uint256",
          "name": "value",
          "type": "uint256"
        }
      ],
      "name": "TransferSingle",
      "type": "event"
    },
    {
      "anonymous": false,
      "inputs": [
        {
          "indexed": false,
          "internalType": "string",
          "name": "value",
          "type": "string"
        },
        {
          "indexed": true,
          "internalType": "uint256",
          "name": "id",
          "type": "uint256"
        }
      ],
      "name": "URI",
      "type": "event"
    },
    {
      "inputs": [],
      "name": "b",
      "outputs": [
        {
          "internalType": "uint256",
          "name": "",
          "type": "uint256"
        }
      ],
      "stateMutability": "view",
      "type": "function"
    },
    {
      "inputs": [
        {
          "internalType": "address",
          "name": "account",
          "type": "address"
        },
        {
          "internalType": "uint256",
          "name": "id",
          "type": "uint256"
        }
      ],
      "name": "balanceOf",
      "outputs": [
        {
          "internalType": "uint256",
          "name": "",
          "type": "uint256"
        }
      ],
      "stateMutability": "view",
      "type": "function"
    },
    {
      "inputs": [
        {
          "internalType": "address[]",
          "name": "accounts",
          "type": "address[]"
        },
        {
          "internalType": "uint256[]",
          "name": "ids",
          "type": "uint256[]"
        }
      ],
      "name": "balanceOfBatch",
      "outputs": [
        {
          "internalType": "uint256[]",
          "name": "",
          "type": "uint256[]"
        }
      ],
      "stateMutability": "view",
      "type": "function"
    },
    {
      "inputs": [],
      "name": "coin",
      "outputs": [
        {
          "internalType": "address",
          "name": "",
          "type": "address"
        }
      ],
      "stateMutability": "view",
      "type": "function"
    },
    {
      "inputs": [],
      "name": "identifier",
      "outputs": [
        {
          "internalType": "bytes32",
          "name": "",
          "type": "bytes32"
        }
      ],
      "stateMutability": "view",
      "type": "function"
    },
    {
      "inputs": [
        {
          "internalType": "address",
          "name": "account",
          "type": "address"
        },
        {
          "internalType": "address",
          "name": "operator",
          "type": "address"
        }
      ],
      "name": "isApprovedForAll",
      "outputs": [
        {
          "internalType": "bool",
          "name": "",
          "type": "bool"
        }
      ],
      "stateMutability": "view",
      "type": "function"
    },
    {
      "inputs": [],
      "name": "mints",
      "outputs": [
        {
          "internalType": "uint256",
          "name": "",
          "type": "uint256"
        }
      ],
      "stateMutability": "view",
      "type": "function"
    },
    {
      "inputs": [],
      "name": "oracle",
      "outputs": [
        {
          "internalType": "address",
          "name": "",
          "type": "address"
        }
      ],
      "stateMutability": "view",
      "type": "function"
    },
    {
      "inputs": [
        {
          "internalType": "address",
          "name": "from",
          "type": "address"
        },
        {
          "internalType": "address",
          "name": "to",
          "type": "address"
        },
        {
          "internalType": "uint256[]",
          "name": "ids",
          "type": "uint256[]"
        },
        {
          "internalType": "uint256[]",
          "name": "amounts",
          "type": "uint256[]"
        },
        {
          "internalType": "bytes",
          "name": "data",
          "type": "bytes"
        }
      ],
      "name": "safeBatchTransferFrom",
      "outputs": [],
      "stateMutability": "nonpayable",
      "type": "function"
    },
    {
      "inputs": [
        {
          "internalType": "address",
          "name": "from",
          "type": "address"
        },
        {
          "internalType": "address",
          "name": "to",
          "type": "address"
        },
        {
          "internalType": "uint256",
          "name": "id",
          "type": "uint256"
        },
        {
          "internalType": "uint256",
          "name": "amount",
          "type": "uint256"
        },
        {
          "internalType": "bytes",
          "name": "data",
          "type": "bytes"
        }
      ],
      "name": "safeTransferFrom",
      "outputs": [],
      "stateMutability": "nonpayable",
      "type": "function"
    },
    {
      "inputs": [
        {
          "internalType": "address",
          "name": "operator",
          "type": "address"
        },
        {
          "internalType": "bool",
          "name": "approved",
          "type": "bool"
        }
      ],
      "name": "setApprovalForAll",
      "outputs": [],
      "stateMutability": "nonpayable",
      "type": "function"
    },
    {
      "inputs": [
        {
          "internalType": "bytes4",
          "name": "interfaceId",
          "type": "bytes4"
        }
      ],
      "name": "supportsInterface",
      "outputs": [
        {
          "internalType": "bool",
          "name": "",
          "type": "bool"
        }
      ],
      "stateMutability": "view",
      "type": "function"
    },
    {
      "inputs": [
        {
          "internalType": "uint256",
          "name": "",
          "type": "uint256"
        }
      ],
      "name": "uri",
      "outputs": [
        {
          "internalType": "string",
          "name": "",
          "type": "string"
        }
      ],
      "stateMutability": "view",
      "type": "function"
    },
    {
      "inputs": [
        {
          "internalType": "uint256",
          "name": "_amount",
          "type": "uint256"
        }
      ],
      "name": "buySet",
      "outputs": [],
      "stateMutability": "nonpayable",
      "type": "function"
    },
    {
      "inputs": [
        {
          "internalType": "uint256",
          "name": "_amount",
          "type": "uint256"
        }
      ],
      "name": "sellSet",
      "outputs": [],
      "stateMutability": "nonpayable",
      "type": "function"
    },
    {
      "inputs": [
        {
          "internalType": "uint256",
          "name": "_id",
          "type": "uint256"
        }
      ],
      "name": "getState",
      "outputs": [
        {
          "internalType": "uint256",
          "name": "_contractAmount",
          "type": "uint256"
        },
        {
          "internalType": "uint256",
          "name": "_reserveAmount",
          "type": "uint256"
        }
      ],
      "stateMutability": "view",
      "type": "function"
    },
    {
      "inputs": [
        {
          "internalType": "uint256",
          "name": "_amount",
          "type": "uint256"
        },
        {
          "internalType": "uint256",
          "name": "_id",
          "type": "uint256"
        }
      ],
      "name": "buyContract",
      "outputs": [],
      "stateMutability": "nonpayable",
      "type": "function"
    },
    {
      "inputs": [
        {
          "internalType": "uint256",
          "name": "_amount",
          "type": "uint256"
        },
        {
          "internalType": "uint256",
          "name": "_id",
          "type": "uint256"
        }
      ],
      "name": "sellContract",
      "outputs": [],
      "stateMutability": "nonpayable",
      "type": "function"
    },
    {
      "inputs": [
        {
          "internalType": "uint256",
          "name": "_amount",
          "type": "uint256"
        }
      ],
      "name": "addLiquidity",
      "outputs": [],
      "stateMutability": "nonpayable",
      "type": "function"
    },
    {
      "inputs": [
        {
          "internalType": "uint256",
          "name": "_amount",
          "type": "uint256"
        }
      ],
      "name": "removeLiquidity",
      "outputs": [],
      "stateMutability": "nonpayable",
      "type": "function"
    },
    {
      "inputs": [
        {
          "internalType": "uint256",
          "name": "_id",
          "type": "uint256"
        }
      ],
      "name": "validate",
      "outputs": [],
      "stateMutability": "nonpayable",
      "type": "function"
    }
  ],
  "bytecode": "0x60806040523480156200001157600080fd5b506040516200581b3803806200581b833981810160405281019062000037919062000360565b6040518060400160405280600481526020017f46524545000000000000000000000000000000000000000000000000000000008152506200007e81620001c260201b60201c565b5080600360006101000a81548173ffffffffffffffffffffffffffffffffffffffff021916908373ffffffffffffffffffffffffffffffffffffffff16021790555033600460006101000a81548173ffffffffffffffffffffffffffffffffffffffff021916908373ffffffffffffffffffffffffffffffffffffffff160217905550600460009054906101000a900473ffffffffffffffffffffffffffffffffffffffff1660026040516020016200013992919062000404565b604051602081830303815290604052805190602001206005819055506040518060400160405280600160ff168152602001600160ff16815250600990600262000184929190620001de565b506002600a60006101000a8154816dffffffffffffffffffffffffffff02191690836dffffffffffffffffffffffffffff1602179055505062000548565b8060029080519060200190620001da92919062000299565b5050565b826002600101600290048101928215620002865791602002820160005b838211156200024857835183826101000a8154816dffffffffffffffffffffffffffff021916908360ff1602179055509260200192600e01602081600d01049283019260010302620001fb565b8015620002845782816101000a8154906dffffffffffffffffffffffffffff0219169055600e01602081600d0104928301926001030262000248565b505b5090506200029591906200032a565b5090565b828054620002a7906200048a565b90600052602060002090601f016020900481019282620002cb576000855562000317565b82601f10620002e657805160ff191683800117855562000317565b8280016001018555821562000317579182015b8281111562000316578251825591602001919060010190620002f9565b5b5090506200032691906200032a565b5090565b5b80821115620003455760008160009055506001016200032b565b5090565b6000815190506200035a816200052e565b92915050565b6000602082840312156200037357600080fd5b6000620003838482850162000349565b91505092915050565b620003a16200039b826200044c565b620004c0565b82525050565b6000620003b6600e8362000441565b91507f4865616473206f72205461696c730000000000000000000000000000000000006000830152600e82019050919050565b620003fe620003f88262000480565b620004e8565b82525050565b60006200041282856200038c565b6014820191506200042382620003a7565b9150620004318284620003e9565b6020820191508190509392505050565b600081905092915050565b6000620004598262000460565b9050919050565b600073ffffffffffffffffffffffffffffffffffffffff82169050919050565b6000819050919050565b60006002820490506001821680620004a357607f821691505b60208210811415620004ba57620004b9620004f2565b5b50919050565b6000620004cd82620004d4565b9050919050565b6000620004e18262000521565b9050919050565b6000819050919050565b7f4e487b7100000000000000000000000000000000000000000000000000000000600052602260045260246000fd5b60008160601b9050919050565b62000539816200044c565b81146200054557600080fd5b50565b6152c380620005586000396000f3fe608060405234801561001057600080fd5b50600436106101365760003560e01c806351c6590a116100b8578063ce4d01a31161007c578063ce4d01a31461034c578063d3db815f14610368578063dfc7379d14610384578063e96b67f3146103a2578063e985e9c5146103be578063f242432a146103ee57610136565b806351c6590a146102bc5780637998a1c4146102d85780637dc0d1d0146102f65780639c8f9f2314610314578063a22cb4651461033057610136565b806311df9995116100ff57806311df9995146102035780632eb2c2d61461022157806344c9af281461023d5780634df7e3d01461026e5780634e1273f41461028c57610136565b8062fdd58e1461013b57806301ffc9a71461016b5780630376042b1461019b5780630db680f6146101b75780630e89341c146101d3575b600080fd5b61015560048036038101906101509190613c08565b61040a565b6040516101629190614ce3565b60405180910390f35b61018560048036038101906101809190613cd9565b6104d3565b604051610192919061496b565b60405180910390f35b6101b560048036038101906101b09190613d2b565b6105b5565b005b6101d160048036038101906101cc9190613d54565b610887565b005b6101ed60048036038101906101e89190613d2b565b610895565b6040516101fa91906149a1565b60405180910390f35b61020b610929565b60405161021891906147d5565b60405180910390f35b61023b60048036038101906102369190613a7e565b61094f565b005b61025760048036038101906102529190613d2b565b610d45565b604051610265929190614cfe565b60405180910390f35b610276610ded565b6040516102839190614ce3565b60405180910390f35b6102a660048036038101906102a19190613c44565b610df3565b6040516102b39190614912565b60405180910390f35b6102d660048036038101906102d19190613d2b565b610fa4565b005b6102e061148d565b6040516102ed9190614986565b60405180910390f35b6102fe611493565b60405161030b91906147d5565b60405180910390f35b61032e60048036038101906103299190613d2b565b6114b9565b005b61034a60048036038101906103459190613bcc565b61184c565b005b61036660048036038101906103619190613d2b565b6119cd565b005b610382600480360381019061037d9190613d54565b611a67565b005b61038c611a75565b6040516103999190614ce3565b60405180910390f35b6103bc60048036038101906103b79190613d2b565b611a7b565b005b6103d860048036038101906103d39190613a42565b611d5f565b6040516103e5919061496b565b60405180910390f35b61040860048036038101906104039190613b3d565b611df3565b005b60008073ffffffffffffffffffffffffffffffffffffffff168373ffffffffffffffffffffffffffffffffffffffff16141561047b576040517f08c379a000000000000000000000000000000000000000000000000000000000815260040161047290614a83565b60405180910390fd5b60008083815260200190815260200160002060008473ffffffffffffffffffffffffffffffffffffffff1673ffffffffffffffffffffffffffffffffffffffff16815260200190815260200160002054905092915050565b60007fd9b67a26000000000000000000000000000000000000000000000000000000007bffffffffffffffffffffffffffffffffffffffffffffffffffffffff1916827bffffffffffffffffffffffffffffffffffffffffffffffffffffffff1916148061059e57507f0e89341c000000000000000000000000000000000000000000000000000000007bffffffffffffffffffffffffffffffffffffffffffffffffffffffff1916827bffffffffffffffffffffffffffffffffffffffffffffffffffffffff1916145b806105ae57506105ad8261210b565b5b9050919050565b6000600267ffffffffffffffff8111156105f8577f4e487b7100000000000000000000000000000000000000000000000000000000600052604160045260246000fd5b6040519080825280602002602001820160405280156106265781602001602082028036833780820191505090505b5090506000600267ffffffffffffffff81111561066c577f4e487b7100000000000000000000000000000000000000000000000000000000600052604160045260246000fd5b60405190808252806020026020018201604052801561069a5781602001602082028036833780820191505090505b50905060005b6002811015610752576001816106b69190614e51565b8382815181106106ef577f4e487b7100000000000000000000000000000000000000000000000000000000600052603260045260246000fd5b60200260200101818152505083828281518110610735577f4e487b7100000000000000000000000000000000000000000000000000000000600052603260045260246000fd5b6020026020010181815250508061074b90615058565b90506106a0565b5061075e338383612175565b600360009054906101000a900473ffffffffffffffffffffffffffffffffffffffff1673ffffffffffffffffffffffffffffffffffffffff1663a9059cbb33856040518363ffffffff1660e01b81526004016107bb9291906148e9565b602060405180830381600087803b1580156107d557600080fd5b505af11580156107e9573d6000803e3d6000fd5b505050506040513d601f19601f8201168201806040525081019061080d9190613cb0565b61084c576040517f08c379a000000000000000000000000000000000000000000000000000000000815260040161084390614a43565b60405180910390fd5b6108618360075461247b90919063ffffffff16565b60078190555061087c8360085461247b90919063ffffffff16565b600881905550505050565b61089182826124d4565b5050565b6060600280546108a490615026565b80601f01602080910402602001604051908101604052809291908181526020018280546108d090615026565b801561091d5780601f106108f25761010080835404028352916020019161091d565b820191906000526020600020905b81548152906001019060200180831161090057829003601f168201915b50505050509050919050565b600360009054906101000a900473ffffffffffffffffffffffffffffffffffffffff1681565b8151835114610993576040517f08c379a000000000000000000000000000000000000000000000000000000000815260040161098a90614c63565b60405180910390fd5b600073ffffffffffffffffffffffffffffffffffffffff168473ffffffffffffffffffffffffffffffffffffffff161415610a03576040517f08c379a00000000000000000000000000000000000000000000000000000000081526004016109fa90614b63565b60405180910390fd5b610a0b6127ef565b73ffffffffffffffffffffffffffffffffffffffff168573ffffffffffffffffffffffffffffffffffffffff161480610a515750610a5085610a4b6127ef565b611d5f565b5b610a90576040517f08c379a0000000000000000000000000000000000000000000000000000000008152600401610a8790614b83565b60405180910390fd5b6000610a9a6127ef565b9050610aaa8187878787876127f7565b60005b8451811015610cb0576000858281518110610af1577f4e487b7100000000000000000000000000000000000000000000000000000000600052603260045260246000fd5b602002602001015190506000858381518110610b36577f4e487b7100000000000000000000000000000000000000000000000000000000600052603260045260246000fd5b60200260200101519050600080600084815260200190815260200160002060008b73ffffffffffffffffffffffffffffffffffffffff1673ffffffffffffffffffffffffffffffffffffffff16815260200190815260200160002054905081811015610bd7576040517f08c379a0000000000000000000000000000000000000000000000000000000008152600401610bce90614c03565b60405180910390fd5b8181610be39190614f32565b60008085815260200190815260200160002060008c73ffffffffffffffffffffffffffffffffffffffff1673ffffffffffffffffffffffffffffffffffffffff168152602001908152602001600020819055508160008085815260200190815260200160002060008b73ffffffffffffffffffffffffffffffffffffffff1673ffffffffffffffffffffffffffffffffffffffff1681526020019081526020016000206000828254610c959190614e51565b9250508190555050505080610ca990615058565b9050610aad565b508473ffffffffffffffffffffffffffffffffffffffff168673ffffffffffffffffffffffffffffffffffffffff168273ffffffffffffffffffffffffffffffffffffffff167f4a39dc06d4c0dbc64b70af90fd698a233a518aa5d07e595d983b8c0526c8f7fb8787604051610d27929190614934565b60405180910390a4610d3d8187878787876127ff565b505050505050565b60008060066000848152602001908152602001600020600060038110610d94577f4e487b7100000000000000000000000000000000000000000000000000000000600052603260045260246000fd5b015460066000858152602001908152602001600020600160038110610de2577f4e487b7100000000000000000000000000000000000000000000000000000000600052603260045260246000fd5b015491509150915091565b60075481565b60608151835114610e39576040517f08c379a0000000000000000000000000000000000000000000000000000000008152600401610e3090614c43565b60405180910390fd5b6000835167ffffffffffffffff811115610e7c577f4e487b7100000000000000000000000000000000000000000000000000000000600052604160045260246000fd5b604051908082528060200260200182016040528015610eaa5781602001602082028036833780820191505090505b50905060005b8451811015610f9957610f43858281518110610ef5577f4e487b7100000000000000000000000000000000000000000000000000000000600052603260045260246000fd5b6020026020010151858381518110610f36577f4e487b7100000000000000000000000000000000000000000000000000000000600052603260045260246000fd5b602002602001015161040a565b828281518110610f7c577f4e487b7100000000000000000000000000000000000000000000000000000000600052603260045260246000fd5b60200260200101818152505080610f9290615058565b9050610eb0565b508091505092915050565b600360009054906101000a900473ffffffffffffffffffffffffffffffffffffffff1673ffffffffffffffffffffffffffffffffffffffff166323b872dd3330846040518463ffffffff1660e01b815260040161100393929190614858565b602060405180830381600087803b15801561101d57600080fd5b505af1158015611031573d6000803e3d6000fd5b505050506040513d601f19601f820116820180604052508101906110559190613cb0565b611094576040517f08c379a000000000000000000000000000000000000000000000000000000000815260040161108b90614a63565b60405180910390fd5b6000600a60009054906101000a90046dffffffffffffffffffffffffffff166dffffffffffffffffffffffffffff161461136b5760005b600281101561132f5761114082600660006001856110e99190614e51565b8152602001908152602001600020600060038110611130577f4e487b7100000000000000000000000000000000000000000000000000000000600052603260045260246000fd5b01546129cf90919063ffffffff16565b600660006001846111519190614e51565b8152602001908152602001600020600060038110611198577f4e487b7100000000000000000000000000000000000000000000000000000000600052603260045260246000fd5b01819055506112c1600a60009054906101000a90046dffffffffffffffffffffffffffff166dffffffffffffffffffffffffffff1661124f6009846002811061120a577f4e487b7100000000000000000000000000000000000000000000000000000000600052603260045260246000fd5b60029182820401919006600e029054906101000a90046dffffffffffffffffffffffffffff166dffffffffffffffffffffffffffff1685612a2890919063ffffffff16565b6112599190614ea7565b6006600060018561126a9190614e51565b81526020019081526020016000206001600381106112b1577f4e487b7100000000000000000000000000000000000000000000000000000000600052603260045260246000fd5b01546129cf90919063ffffffff16565b600660006001846112d29190614e51565b8152602001908152602001600020600160038110611319577f4e487b7100000000000000000000000000000000000000000000000000000000600052603260045260246000fd5b01819055508061132890615058565b90506110cb565b506000600a60006101000a8154816dffffffffffffffffffffffffffff02191690836dffffffffffffffffffffffffffff160217905550611453565b60005b6002811015611451576113e3826006600060018561138c9190614e51565b81526020019081526020016000206000600381106113d3577f4e487b7100000000000000000000000000000000000000000000000000000000600052603260045260246000fd5b01546129cf90919063ffffffff16565b600660006001846113f49190614e51565b815260200190815260200160002060006003811061143b577f4e487b7100000000000000000000000000000000000000000000000000000000600052603260045260246000fd5b01819055508061144a90615058565b905061136e565b505b61146f3360008360405180602001604052806000815250612a95565b611484816008546129cf90919063ffffffff16565b60088190555050565b60055481565b600460009054906101000a900473ffffffffffffffffffffffffffffffffffffffff1681565b60006114c633600061040a565b11611506576040517f08c379a00000000000000000000000000000000000000000000000000000000081526004016114fd90614a23565b60405180910390fd5b60005b60028110156116f75761159f60085461152d8460085461247b90919063ffffffff16565b6115379190614ea7565b600660006001856115489190614e51565b815260200190815260200160002060006003811061158f577f4e487b7100000000000000000000000000000000000000000000000000000000600052603260045260246000fd5b0154612a2890919063ffffffff16565b600660006001846115b09190614e51565b81526020019081526020016000206000600381106115f7577f4e487b7100000000000000000000000000000000000000000000000000000000600052603260045260246000fd5b01819055506116896008546116178460085461247b90919063ffffffff16565b6116219190614ea7565b600660006001856116329190614e51565b8152602001908152602001600020600160038110611679577f4e487b7100000000000000000000000000000000000000000000000000000000600052603260045260246000fd5b0154612a2890919063ffffffff16565b6006600060018461169a9190614e51565b81526020019081526020016000206001600381106116e1577f4e487b7100000000000000000000000000000000000000000000000000000000600052603260045260246000fd5b0181905550806116f090615058565b9050611509565b5061172e6008546117138360085461247b90919063ffffffff16565b61171d9190614ea7565b600754612a2890919063ffffffff16565b600781905550600360009054906101000a900473ffffffffffffffffffffffffffffffffffffffff1673ffffffffffffffffffffffffffffffffffffffff1663a9059cbb33836040518363ffffffff1660e01b81526004016117919291906148e9565b602060405180830381600087803b1580156117ab57600080fd5b505af11580156117bf573d6000803e3d6000fd5b505050506040513d601f19601f820116820180604052508101906117e39190613cb0565b611822576040517f08c379a000000000000000000000000000000000000000000000000000000000815260040161181990614a43565b60405180910390fd5b61182e33600083612c2b565b6118438160085461247b90919063ffffffff16565b60088190555050565b8173ffffffffffffffffffffffffffffffffffffffff1661186b6127ef565b73ffffffffffffffffffffffffffffffffffffffff1614156118c2576040517f08c379a00000000000000000000000000000000000000000000000000000000081526004016118b990614c23565b60405180910390fd5b80600160006118cf6127ef565b73ffffffffffffffffffffffffffffffffffffffff1673ffffffffffffffffffffffffffffffffffffffff16815260200190815260200160002060008473ffffffffffffffffffffffffffffffffffffffff1673ffffffffffffffffffffffffffffffffffffffff16815260200190815260200160002060006101000a81548160ff0219169083151502179055508173ffffffffffffffffffffffffffffffffffffffff1661197c6127ef565b73ffffffffffffffffffffffffffffffffffffffff167f17307eab39ab6107e8899845ad3d59bd9653f200f220920489ca2b5937696c31836040516119c1919061496b565b60405180910390a35050565b600460009054906101000a900473ffffffffffffffffffffffffffffffffffffffff1673ffffffffffffffffffffffffffffffffffffffff163373ffffffffffffffffffffffffffffffffffffffff1614611a5d576040517f08c379a0000000000000000000000000000000000000000000000000000000008152600401611a5490614cc3565b60405180910390fd5b80600b8190555050565b611a718282612e51565b5050565b60085481565b6000600267ffffffffffffffff811115611abe577f4e487b7100000000000000000000000000000000000000000000000000000000600052604160045260246000fd5b604051908082528060200260200182016040528015611aec5781602001602082028036833780820191505090505b5090506000600267ffffffffffffffff811115611b32577f4e487b7100000000000000000000000000000000000000000000000000000000600052604160045260246000fd5b604051908082528060200260200182016040528015611b605781602001602082028036833780820191505090505b50905060005b6002811015611c1857600181611b7c9190614e51565b838281518110611bb5577f4e487b7100000000000000000000000000000000000000000000000000000000600052603260045260246000fd5b60200260200101818152505083828281518110611bfb577f4e487b7100000000000000000000000000000000000000000000000000000000600052603260045260246000fd5b60200260200101818152505080611c1190615058565b9050611b66565b50600360009054906101000a900473ffffffffffffffffffffffffffffffffffffffff1673ffffffffffffffffffffffffffffffffffffffff166323b872dd3330866040518463ffffffff1660e01b8152600401611c7893929190614858565b602060405180830381600087803b158015611c9257600080fd5b505af1158015611ca6573d6000803e3d6000fd5b505050506040513d601f19601f82011682018060405250810190611cca9190613cb0565b611d09576040517f08c379a0000000000000000000000000000000000000000000000000000000008152600401611d0090614ba3565b60405180910390fd5b611d243383836040518060200160405280600081525061315a565b611d39836007546129cf90919063ffffffff16565b600781905550611d54836008546129cf90919063ffffffff16565b600881905550505050565b6000600160008473ffffffffffffffffffffffffffffffffffffffff1673ffffffffffffffffffffffffffffffffffffffff16815260200190815260200160002060008373ffffffffffffffffffffffffffffffffffffffff1673ffffffffffffffffffffffffffffffffffffffff16815260200190815260200160002060009054906101000a900460ff16905092915050565b600073ffffffffffffffffffffffffffffffffffffffff168473ffffffffffffffffffffffffffffffffffffffff161415611e63576040517f08c379a0000000000000000000000000000000000000000000000000000000008152600401611e5a90614b63565b60405180910390fd5b611e6b6127ef565b73ffffffffffffffffffffffffffffffffffffffff168573ffffffffffffffffffffffffffffffffffffffff161480611eb15750611eb085611eab6127ef565b611d5f565b5b611ef0576040517f08c379a0000000000000000000000000000000000000000000000000000000008152600401611ee790614b23565b60405180910390fd5b6000611efa6127ef565b9050611f1a818787611f0b886133c4565b611f14886133c4565b876127f7565b600080600086815260200190815260200160002060008873ffffffffffffffffffffffffffffffffffffffff1673ffffffffffffffffffffffffffffffffffffffff16815260200190815260200160002054905083811015611fb1576040517f08c379a0000000000000000000000000000000000000000000000000000000008152600401611fa890614c03565b60405180910390fd5b8381611fbd9190614f32565b60008087815260200190815260200160002060008973ffffffffffffffffffffffffffffffffffffffff1673ffffffffffffffffffffffffffffffffffffffff168152602001908152602001600020819055508360008087815260200190815260200160002060008873ffffffffffffffffffffffffffffffffffffffff1673ffffffffffffffffffffffffffffffffffffffff168152602001908152602001600020600082825461206f9190614e51565b925050819055508573ffffffffffffffffffffffffffffffffffffffff168773ffffffffffffffffffffffffffffffffffffffff168373ffffffffffffffffffffffffffffffffffffffff167fc3d58168c5ae7397731d063d5bbf3d657854427343f4c083240f7aacaa2d0f6288886040516120ec929190614cfe565b60405180910390a461210282888888888861348a565b50505050505050565b60007f01ffc9a7000000000000000000000000000000000000000000000000000000007bffffffffffffffffffffffffffffffffffffffffffffffffffffffff1916827bffffffffffffffffffffffffffffffffffffffffffffffffffffffff1916149050919050565b600073ffffffffffffffffffffffffffffffffffffffff168373ffffffffffffffffffffffffffffffffffffffff1614156121e5576040517f08c379a00000000000000000000000000000000000000000000000000000000081526004016121dc90614be3565b60405180910390fd5b8051825114612229576040517f08c379a000000000000000000000000000000000000000000000000000000000815260040161222090614c63565b60405180910390fd5b60006122336127ef565b9050612253818560008686604051806020016040528060008152506127f7565b60005b83518110156123f557600084828151811061229a577f4e487b7100000000000000000000000000000000000000000000000000000000600052603260045260246000fd5b6020026020010151905060008483815181106122df577f4e487b7100000000000000000000000000000000000000000000000000000000600052603260045260246000fd5b60200260200101519050600080600084815260200190815260200160002060008973ffffffffffffffffffffffffffffffffffffffff1673ffffffffffffffffffffffffffffffffffffffff16815260200190815260200160002054905081811015612380576040517f08c379a000000000000000000000000000000000000000000000000000000000815260040161237790614ac3565b60405180910390fd5b818161238c9190614f32565b60008085815260200190815260200160002060008a73ffffffffffffffffffffffffffffffffffffffff1673ffffffffffffffffffffffffffffffffffffffff1681526020019081526020016000208190555050505080806123ed90615058565b915050612256565b50600073ffffffffffffffffffffffffffffffffffffffff168473ffffffffffffffffffffffffffffffffffffffff168273ffffffffffffffffffffffffffffffffffffffff167f4a39dc06d4c0dbc64b70af90fd698a233a518aa5d07e595d983b8c0526c8f7fb868660405161246d929190614934565b60405180910390a450505050565b600082828461248a9190614f32565b91508111156124ce576040517f08c379a00000000000000000000000000000000000000000000000000000000081526004016124c5906149e3565b60405180910390fd5b92915050565b600061257b8360066000858152602001908152602001600020600060038110612526577f4e487b7100000000000000000000000000000000000000000000000000000000600052603260045260246000fd5b015460066000868152602001908152602001600020600160038110612574577f4e487b7100000000000000000000000000000000000000000000000000000000600052603260045260246000fd5b015461365a565b9050600360009054906101000a900473ffffffffffffffffffffffffffffffffffffffff1673ffffffffffffffffffffffffffffffffffffffff166323b872dd3330846040518463ffffffff1660e01b81526004016125dc93929190614858565b602060405180830381600087803b1580156125f657600080fd5b505af115801561260a573d6000803e3d6000fd5b505050506040513d601f19601f8201168201806040525081019061262e9190613cb0565b61266d576040517f08c379a000000000000000000000000000000000000000000000000000000000815260040161266490614a63565b60405180910390fd5b61268833838560405180602001604052806000815250612a95565b6126e883600660008581526020019081526020016000206000600381106126d8577f4e487b7100000000000000000000000000000000000000000000000000000000600052603260045260246000fd5b015461247b90919063ffffffff16565b60066000848152602001908152602001600020600060038110612734577f4e487b7100000000000000000000000000000000000000000000000000000000600052603260045260246000fd5b01819055506127998160066000858152602001908152602001600020600160038110612789577f4e487b7100000000000000000000000000000000000000000000000000000000600052603260045260246000fd5b01546129cf90919063ffffffff16565b600660008481526020019081526020016000206001600381106127e5577f4e487b7100000000000000000000000000000000000000000000000000000000600052603260045260246000fd5b0181905550505050565b600033905090565b505050505050565b61281e8473ffffffffffffffffffffffffffffffffffffffff16613745565b156129c7578373ffffffffffffffffffffffffffffffffffffffff1663bc197c8187878686866040518663ffffffff1660e01b81526004016128649594939291906147f0565b602060405180830381600087803b15801561287e57600080fd5b505af19250505080156128af57506040513d601f19601f820116820180604052508101906128ac9190613d02565b60015b61293e576128bb61517b565b806128c65750612903565b806040517f08c379a00000000000000000000000000000000000000000000000000000000081526004016128fa91906149a1565b60405180910390fd5b6040517f08c379a0000000000000000000000000000000000000000000000000000000008152600401612935906149c3565b60405180910390fd5b63bc197c8160e01b7bffffffffffffffffffffffffffffffffffffffffffffffffffffffff1916817bffffffffffffffffffffffffffffffffffffffffffffffffffffffff1916146129c5576040517f08c379a00000000000000000000000000000000000000000000000000000000081526004016129bc90614a03565b60405180910390fd5b505b505050505050565b60008282846129de9190614e51565b9150811015612a22576040517f08c379a0000000000000000000000000000000000000000000000000000000008152600401612a1990614b03565b60405180910390fd5b92915050565b600080821480612a50575082828385612a419190614ed8565b925082612a4e9190614ea7565b145b612a8f576040517f08c379a0000000000000000000000000000000000000000000000000000000008152600401612a8690614aa3565b60405180910390fd5b92915050565b600073ffffffffffffffffffffffffffffffffffffffff168473ffffffffffffffffffffffffffffffffffffffff161415612b05576040517f08c379a0000000000000000000000000000000000000000000000000000000008152600401612afc90614c83565b60405180910390fd5b6000612b0f6127ef565b9050612b3081600087612b21886133c4565b612b2a886133c4565b876127f7565b8260008086815260200190815260200160002060008773ffffffffffffffffffffffffffffffffffffffff1673ffffffffffffffffffffffffffffffffffffffff1681526020019081526020016000206000828254612b8f9190614e51565b925050819055508473ffffffffffffffffffffffffffffffffffffffff16600073ffffffffffffffffffffffffffffffffffffffff168273ffffffffffffffffffffffffffffffffffffffff167fc3d58168c5ae7397731d063d5bbf3d657854427343f4c083240f7aacaa2d0f628787604051612c0d929190614cfe565b60405180910390a4612c248160008787878761348a565b5050505050565b600073ffffffffffffffffffffffffffffffffffffffff168373ffffffffffffffffffffffffffffffffffffffff161415612c9b576040517f08c379a0000000000000000000000000000000000000000000000000000000008152600401612c9290614be3565b60405180910390fd5b6000612ca56127ef565b9050612cd581856000612cb7876133c4565b612cc0876133c4565b604051806020016040528060008152506127f7565b600080600085815260200190815260200160002060008673ffffffffffffffffffffffffffffffffffffffff1673ffffffffffffffffffffffffffffffffffffffff16815260200190815260200160002054905082811015612d6c576040517f08c379a0000000000000000000000000000000000000000000000000000000008152600401612d6390614ac3565b60405180910390fd5b8281612d789190614f32565b60008086815260200190815260200160002060008773ffffffffffffffffffffffffffffffffffffffff1673ffffffffffffffffffffffffffffffffffffffff16815260200190815260200160002081905550600073ffffffffffffffffffffffffffffffffffffffff168573ffffffffffffffffffffffffffffffffffffffff168373ffffffffffffffffffffffffffffffffffffffff167fc3d58168c5ae7397731d063d5bbf3d657854427343f4c083240f7aacaa2d0f628787604051612e42929190614cfe565b60405180910390a45050505050565b6000612ef88360066000858152602001908152602001600020600060038110612ea3577f4e487b7100000000000000000000000000000000000000000000000000000000600052603260045260246000fd5b015460066000868152602001908152602001600020600160038110612ef1577f4e487b7100000000000000000000000000000000000000000000000000000000600052603260045260246000fd5b0154613758565b9050612f05338385612c2b565b600360009054906101000a900473ffffffffffffffffffffffffffffffffffffffff1673ffffffffffffffffffffffffffffffffffffffff1663a9059cbb33836040518363ffffffff1660e01b8152600401612f629291906148e9565b602060405180830381600087803b158015612f7c57600080fd5b505af1158015612f90573d6000803e3d6000fd5b505050506040513d601f19601f82011682018060405250810190612fb49190613cb0565b612ff3576040517f08c379a0000000000000000000000000000000000000000000000000000000008152600401612fea90614b43565b60405180910390fd5b6130538360066000858152602001908152602001600020600060038110613043577f4e487b7100000000000000000000000000000000000000000000000000000000600052603260045260246000fd5b01546129cf90919063ffffffff16565b6006600084815260200190815260200160002060006003811061309f577f4e487b7100000000000000000000000000000000000000000000000000000000600052603260045260246000fd5b018190555061310481600660008581526020019081526020016000206001600381106130f4577f4e487b7100000000000000000000000000000000000000000000000000000000600052603260045260246000fd5b015461247b90919063ffffffff16565b60066000848152602001908152602001600020600160038110613150577f4e487b7100000000000000000000000000000000000000000000000000000000600052603260045260246000fd5b0181905550505050565b600073ffffffffffffffffffffffffffffffffffffffff168473ffffffffffffffffffffffffffffffffffffffff1614156131ca576040517f08c379a00000000000000000000000000000000000000000000000000000000081526004016131c190614c83565b60405180910390fd5b815183511461320e576040517f08c379a000000000000000000000000000000000000000000000000000000000815260040161320590614c63565b60405180910390fd5b60006132186127ef565b9050613229816000878787876127f7565b60005b845181101561332e5783818151811061326e577f4e487b7100000000000000000000000000000000000000000000000000000000600052603260045260246000fd5b60200260200101516000808784815181106132b2577f4e487b7100000000000000000000000000000000000000000000000000000000600052603260045260246000fd5b6020026020010151815260200190815260200160002060008873ffffffffffffffffffffffffffffffffffffffff1673ffffffffffffffffffffffffffffffffffffffff16815260200190815260200160002060008282546133149190614e51565b92505081905550808061332690615058565b91505061322c565b508473ffffffffffffffffffffffffffffffffffffffff16600073ffffffffffffffffffffffffffffffffffffffff168273ffffffffffffffffffffffffffffffffffffffff167f4a39dc06d4c0dbc64b70af90fd698a233a518aa5d07e595d983b8c0526c8f7fb87876040516133a6929190614934565b60405180910390a46133bd816000878787876127ff565b5050505050565b60606000600167ffffffffffffffff811115613409577f4e487b7100000000000000000000000000000000000000000000000000000000600052604160045260246000fd5b6040519080825280602002602001820160405280156134375781602001602082028036833780820191505090505b5090508281600081518110613475577f4e487b7100000000000000000000000000000000000000000000000000000000600052603260045260246000fd5b60200260200101818152505080915050919050565b6134a98473ffffffffffffffffffffffffffffffffffffffff16613745565b15613652578373ffffffffffffffffffffffffffffffffffffffff1663f23a6e6187878686866040518663ffffffff1660e01b81526004016134ef95949392919061488f565b602060405180830381600087803b15801561350957600080fd5b505af192505050801561353a57506040513d601f19601f820116820180604052508101906135379190613d02565b60015b6135c95761354661517b565b80613551575061358e565b806040517f08c379a000000000000000000000000000000000000000000000000000000000815260040161358591906149a1565b60405180910390fd5b6040517f08c379a00000000000000000000000000000000000000000000000000000000081526004016135c0906149c3565b60405180910390fd5b63f23a6e6160e01b7bffffffffffffffffffffffffffffffffffffffffffffffffffffffff1916817bffffffffffffffffffffffffffffffffffffffffffffffffffffffff191614613650576040517f08c379a000000000000000000000000000000000000000000000000000000000815260040161364790614a03565b60405180910390fd5b505b505050505050565b600080841161369e576040517f08c379a000000000000000000000000000000000000000000000000000000000815260040161369590614ae3565b60405180910390fd5b6000821180156136ae5750600083115b6136ed576040517f08c379a00000000000000000000000000000000000000000000000000000000081526004016136e490614bc3565b60405180910390fd5b60006137028584612a2890919063ffffffff16565b90506000613719868661247b90919063ffffffff16565b905061373a6001828461372c9190614ea7565b6129cf90919063ffffffff16565b925050509392505050565b600080823b905060008111915050919050565b600080841161379c576040517f08c379a000000000000000000000000000000000000000000000000000000000815260040161379390614ca3565b60405180910390fd5b6000821180156137ac5750600083115b6137eb576040517f08c379a00000000000000000000000000000000000000000000000000000000081526004016137e290614bc3565b60405180910390fd5b60006138008386612a2890919063ffffffff16565b9050600061381786866129cf90919063ffffffff16565b905080826138259190614ea7565b925050509392505050565b600061384361383e84614d58565b614d27565b9050808382526020820190508285602086028201111561386257600080fd5b60005b8581101561389257816138788882613946565b845260208401935060208301925050600181019050613865565b5050509392505050565b60006138af6138aa84614d84565b614d27565b905080838252602082019050828560208602820111156138ce57600080fd5b60005b858110156138fe57816138e48882613a2d565b8452602084019350602083019250506001810190506138d1565b5050509392505050565b600061391b61391684614db0565b614d27565b90508281526020810184848401111561393357600080fd5b61393e848285614fe4565b509392505050565b60008135905061395581615231565b92915050565b600082601f83011261396c57600080fd5b813561397c848260208601613830565b91505092915050565b600082601f83011261399657600080fd5b81356139a684826020860161389c565b91505092915050565b6000813590506139be81615248565b92915050565b6000815190506139d381615248565b92915050565b6000813590506139e88161525f565b92915050565b6000815190506139fd8161525f565b92915050565b600082601f830112613a1457600080fd5b8135613a24848260208601613908565b91505092915050565b600081359050613a3c81615276565b92915050565b60008060408385031215613a5557600080fd5b6000613a6385828601613946565b9250506020613a7485828601613946565b9150509250929050565b600080600080600060a08688031215613a9657600080fd5b6000613aa488828901613946565b9550506020613ab588828901613946565b945050604086013567ffffffffffffffff811115613ad257600080fd5b613ade88828901613985565b935050606086013567ffffffffffffffff811115613afb57600080fd5b613b0788828901613985565b925050608086013567ffffffffffffffff811115613b2457600080fd5b613b3088828901613a03565b9150509295509295909350565b600080600080600060a08688031215613b5557600080fd5b6000613b6388828901613946565b9550506020613b7488828901613946565b9450506040613b8588828901613a2d565b9350506060613b9688828901613a2d565b925050608086013567ffffffffffffffff811115613bb357600080fd5b613bbf88828901613a03565b9150509295509295909350565b60008060408385031215613bdf57600080fd5b6000613bed85828601613946565b9250506020613bfe858286016139af565b9150509250929050565b60008060408385031215613c1b57600080fd5b6000613c2985828601613946565b9250506020613c3a85828601613a2d565b9150509250929050565b60008060408385031215613c5757600080fd5b600083013567ffffffffffffffff811115613c7157600080fd5b613c7d8582860161395b565b925050602083013567ffffffffffffffff811115613c9a57600080fd5b613ca685828601613985565b9150509250929050565b600060208284031215613cc257600080fd5b6000613cd0848285016139c4565b91505092915050565b600060208284031215613ceb57600080fd5b6000613cf9848285016139d9565b91505092915050565b600060208284031215613d1457600080fd5b6000613d22848285016139ee565b91505092915050565b600060208284031215613d3d57600080fd5b6000613d4b84828501613a2d565b91505092915050565b60008060408385031215613d6757600080fd5b6000613d7585828601613a2d565b9250506020613d8685828601613a2d565b9150509250929050565b6000613d9c83836147b7565b60208301905092915050565b613db181614f66565b82525050565b6000613dc282614df0565b613dcc8185614e1e565b9350613dd783614de0565b8060005b83811015613e08578151613def8882613d90565b9750613dfa83614e11565b925050600181019050613ddb565b5085935050505092915050565b613e1e81614f78565b82525050565b613e2d81614f84565b82525050565b6000613e3e82614dfb565b613e488185614e2f565b9350613e58818560208601614ff3565b613e618161515d565b840191505092915050565b6000613e7782614e06565b613e818185614e40565b9350613e91818560208601614ff3565b613e9a8161515d565b840191505092915050565b6000613eb2603483614e40565b91507f455243313135353a207472616e7366657220746f206e6f6e204552433131353560008301527f526563656976657220696d706c656d656e7465720000000000000000000000006020830152604082019050919050565b6000613f18601583614e40565b91507f64732d6d6174682d7375622d756e646572666c6f7700000000000000000000006000830152602082019050919050565b6000613f58602883614e40565b91507f455243313135353a204552433131353552656365697665722072656a6563746560008301527f6420746f6b656e730000000000000000000000000000000000000000000000006020830152604082019050919050565b6000613fbe602583614e40565b91507f6e6f7420656e6f756768206c697175696469747920746f6b656e7320746f207260008301527f656465656d0000000000000000000000000000000000000000000000000000006020830152604082019050919050565b6000614024602483614e40565b91507f636f756c64206e6f74207472616e7366657220636f6c6c61746572616c20746f60008301527f6b656e73000000000000000000000000000000000000000000000000000000006020830152604082019050919050565b600061408a601983614e40565b91507f756e61626c6520746f20726563656976652072657365727665000000000000006000830152602082019050919050565b60006140ca602b83614e40565b91507f455243313135353a2062616c616e636520717565727920666f7220746865207a60008301527f65726f20616464726573730000000000000000000000000000000000000000006020830152604082019050919050565b6000614130601483614e40565b91507f64732d6d6174682d6d756c2d6f766572666c6f770000000000000000000000006000830152602082019050919050565b6000614170602483614e40565b91507f455243313135353a206275726e20616d6f756e7420657863656564732062616c60008301527f616e6365000000000000000000000000000000000000000000000000000000006020830152604082019050919050565b60006141d6602c83614e40565b91507f556e697377617056324c6962726172793a20494e53554646494349454e545f4f60008301527f55545055545f414d4f554e5400000000000000000000000000000000000000006020830152604082019050919050565b600061423c601483614e40565b91507f64732d6d6174682d6164642d6f766572666c6f770000000000000000000000006000830152602082019050919050565b600061427c602983614e40565b91507f455243313135353a2063616c6c6572206973206e6f74206f776e6572206e6f7260008301527f20617070726f76656400000000000000000000000000000000000000000000006020830152604082019050919050565b60006142e2601a83614e40565b91507f636f756c64206e6f74207472616e7366657220726573657276650000000000006000830152602082019050919050565b6000614322602583614e40565b91507f455243313135353a207472616e7366657220746f20746865207a65726f20616460008301527f64726573730000000000000000000000000000000000000000000000000000006020830152604082019050919050565b6000614388603283614e40565b91507f455243313135353a207472616e736665722063616c6c6572206973206e6f742060008301527f6f776e6572206e6f7220617070726f76656400000000000000000000000000006020830152604082019050919050565b60006143ee602383614e40565b91507f636f756c64206e6f74207265636569766520636f6c6c61746572616c20746f6b60008301527f656e7300000000000000000000000000000000000000000000000000000000006020830152604082019050919050565b6000614454602883614e40565b91507f556e697377617056324c6962726172793a20494e53554646494349454e545f4c60008301527f49515549444954590000000000000000000000000000000000000000000000006020830152604082019050919050565b60006144ba602383614e40565b91507f455243313135353a206275726e2066726f6d20746865207a65726f206164647260008301527f65737300000000000000000000000000000000000000000000000000000000006020830152604082019050919050565b6000614520602a83614e40565b91507f455243313135353a20696e73756666696369656e742062616c616e636520666f60008301527f72207472616e73666572000000000000000000000000000000000000000000006020830152604082019050919050565b6000614586602983614e40565b91507f455243313135353a2073657474696e6720617070726f76616c2073746174757360008301527f20666f722073656c6600000000000000000000000000000000000000000000006020830152604082019050919050565b60006145ec602983614e40565b91507f455243313135353a206163636f756e747320616e6420696473206c656e67746860008301527f206d69736d6174636800000000000000000000000000000000000000000000006020830152604082019050919050565b6000614652602883614e40565b91507f455243313135353a2069647320616e6420616d6f756e7473206c656e6774682060008301527f6d69736d617463680000000000000000000000000000000000000000000000006020830152604082019050919050565b60006146b8602183614e40565b91507f455243313135353a206d696e7420746f20746865207a65726f2061646472657360008301527f73000000000000000000000000000000000000000000000000000000000000006020830152604082019050919050565b600061471e602b83614e40565b91507f556e697377617056324c6962726172793a20494e53554646494349454e545f4960008301527f4e5055545f414d4f554e540000000000000000000000000000000000000000006020830152604082019050919050565b6000614784601a83614e40565b91507f4e6f6e2d6f7261636c652063616c6c65642076616c69646174650000000000006000830152602082019050919050565b6147c081614fda565b82525050565b6147cf81614fda565b82525050565b60006020820190506147ea6000830184613da8565b92915050565b600060a0820190506148056000830188613da8565b6148126020830187613da8565b81810360408301526148248186613db7565b905081810360608301526148388185613db7565b9050818103608083015261484c8184613e33565b90509695505050505050565b600060608201905061486d6000830186613da8565b61487a6020830185613da8565b61488760408301846147c6565b949350505050565b600060a0820190506148a46000830188613da8565b6148b16020830187613da8565b6148be60408301866147c6565b6148cb60608301856147c6565b81810360808301526148dd8184613e33565b90509695505050505050565b60006040820190506148fe6000830185613da8565b61490b60208301846147c6565b9392505050565b6000602082019050818103600083015261492c8184613db7565b905092915050565b6000604082019050818103600083015261494e8185613db7565b905081810360208301526149628184613db7565b90509392505050565b60006020820190506149806000830184613e15565b92915050565b600060208201905061499b6000830184613e24565b92915050565b600060208201905081810360008301526149bb8184613e6c565b905092915050565b600060208201905081810360008301526149dc81613ea5565b9050919050565b600060208201905081810360008301526149fc81613f0b565b9050919050565b60006020820190508181036000830152614a1c81613f4b565b9050919050565b60006020820190508181036000830152614a3c81613fb1565b9050919050565b60006020820190508181036000830152614a5c81614017565b9050919050565b60006020820190508181036000830152614a7c8161407d565b9050919050565b60006020820190508181036000830152614a9c816140bd565b9050919050565b60006020820190508181036000830152614abc81614123565b9050919050565b60006020820190508181036000830152614adc81614163565b9050919050565b60006020820190508181036000830152614afc816141c9565b9050919050565b60006020820190508181036000830152614b1c8161422f565b9050919050565b60006020820190508181036000830152614b3c8161426f565b9050919050565b60006020820190508181036000830152614b5c816142d5565b9050919050565b60006020820190508181036000830152614b7c81614315565b9050919050565b60006020820190508181036000830152614b9c8161437b565b9050919050565b60006020820190508181036000830152614bbc816143e1565b9050919050565b60006020820190508181036000830152614bdc81614447565b9050919050565b60006020820190508181036000830152614bfc816144ad565b9050919050565b60006020820190508181036000830152614c1c81614513565b9050919050565b60006020820190508181036000830152614c3c81614579565b9050919050565b60006020820190508181036000830152614c5c816145df565b9050919050565b60006020820190508181036000830152614c7c81614645565b9050919050565b60006020820190508181036000830152614c9c816146ab565b9050919050565b60006020820190508181036000830152614cbc81614711565b9050919050565b60006020820190508181036000830152614cdc81614777565b9050919050565b6000602082019050614cf860008301846147c6565b92915050565b6000604082019050614d1360008301856147c6565b614d2060208301846147c6565b9392505050565b6000604051905081810181811067ffffffffffffffff82111715614d4e57614d4d61512e565b5b8060405250919050565b600067ffffffffffffffff821115614d7357614d7261512e565b5b602082029050602081019050919050565b600067ffffffffffffffff821115614d9f57614d9e61512e565b5b602082029050602081019050919050565b600067ffffffffffffffff821115614dcb57614dca61512e565b5b601f19601f8301169050602081019050919050565b6000819050602082019050919050565b600081519050919050565b600081519050919050565b600081519050919050565b6000602082019050919050565b600082825260208201905092915050565b600082825260208201905092915050565b600082825260208201905092915050565b6000614e5c82614fda565b9150614e6783614fda565b9250827fffffffffffffffffffffffffffffffffffffffffffffffffffffffffffffffff03821115614e9c57614e9b6150a1565b5b828201905092915050565b6000614eb282614fda565b9150614ebd83614fda565b925082614ecd57614ecc6150d0565b5b828204905092915050565b6000614ee382614fda565b9150614eee83614fda565b9250817fffffffffffffffffffffffffffffffffffffffffffffffffffffffffffffffff0483118215151615614f2757614f266150a1565b5b828202905092915050565b6000614f3d82614fda565b9150614f4883614fda565b925082821015614f5b57614f5a6150a1565b5b828203905092915050565b6000614f7182614fba565b9050919050565b60008115159050919050565b6000819050919050565b60007fffffffff0000000000000000000000000000000000000000000000000000000082169050919050565b600073ffffffffffffffffffffffffffffffffffffffff82169050919050565b6000819050919050565b82818337600083830152505050565b60005b83811015615011578082015181840152602081019050614ff6565b83811115615020576000848401525b50505050565b6000600282049050600182168061503e57607f821691505b60208210811415615052576150516150ff565b5b50919050565b600061506382614fda565b91507fffffffffffffffffffffffffffffffffffffffffffffffffffffffffffffffff821415615096576150956150a1565b5b600182019050919050565b7f4e487b7100000000000000000000000000000000000000000000000000000000600052601160045260246000fd5b7f4e487b7100000000000000000000000000000000000000000000000000000000600052601260045260246000fd5b7f4e487b7100000000000000000000000000000000000000000000000000000000600052602260045260246000fd5b7f4e487b7100000000000000000000000000000000000000000000000000000000600052604160045260246000fd5b6000601f19601f8301169050919050565b60008160e01c9050919050565b600060443d101561518b5761522e565b60046000803e61519c60005161516e565b6308c379a081146151ad575061522e565b60405160043d036004823e80513d602482011167ffffffffffffffff821117156151d95750505061522e565b808201805167ffffffffffffffff8111156151f857505050505061522e565b8060208301013d85018111156152135750505050505061522e565b61521c8261515d565b60208401016040528296505050505050505b90565b61523a81614f66565b811461524557600080fd5b50565b61525181614f78565b811461525c57600080fd5b50565b61526881614f8e565b811461527357600080fd5b50565b61527f81614fda565b811461528a57600080fd5b5056fea2646970667358221220c778338106076688d88bf938ff52d5211d7a71a71b22dead410593d932d83c5d64736f6c63430008000033",
  "immutableReferences": {},
  "source": "// SPDX-License-Identifier: MIT\npragma solidity ^0.8.0;\n\nimport \"@openzeppelin/contracts/token/ERC1155/ERC1155.sol\";\nimport \"@openzeppelin/contracts/token/ERC20/IERC20.sol\";\nimport \"./libraries/SafeMath.sol\";\n\ncontract Prediction is ERC1155(\"FREE\") {\n\n    using SafeMath for uint; \n\n    address public coin;\n    address public oracle; \n\n    bytes32 public identifier;\n\n    //maps from pool to items in pool C, R, k\n    mapping(uint => uint[3]) contents;\n\n    uint public b;\n    uint public mints; \n\n    uint112[2] initialRatioNumerator;\n    uint112 initialRatioDenominator;\n\n    uint winner;\n\n    constructor (address _coin) {\n        coin = _coin;\n        oracle = msg.sender;  \n        identifier = keccak256(abi.encodePacked(oracle, \"Heads or Tails\", uint(2)));\n        initialRatioNumerator = [1, 1];\n        initialRatioDenominator = 2; \n    }\n\n    function buySet(uint _amount) public {\n        uint[] memory positionIds = new uint[](uint(2));\n        uint[] memory amounts = new uint[](uint(2));\n\n        for (uint i = 0; i < uint(2); ++i) {\n            positionIds[i] = i+1; \n            amounts[i] = _amount;\n        }\n\n        require(IERC20(coin).transferFrom(msg.sender, address(this), _amount), \"could not receive collateral tokens\");\n        _mintBatch(\n            msg.sender,\n            positionIds,\n            amounts,\n            \"\"\n        );\n        b = b.add(_amount); \n        mints = mints.add(_amount); \n    }\n\n    function sellSet(uint _amount) public {\n        uint[] memory positionIds = new uint[](uint(2));\n        uint[] memory amounts = new uint[](uint(2));\n\n        for (uint i = 0; i < uint(2); ++i) {\n            positionIds[i] = i+1; \n            amounts[i] = _amount;\n        }\n\n        _burnBatch(\n            msg.sender,\n            positionIds,\n            amounts\n        );\n        require(IERC20(coin).transfer(msg.sender, _amount), \"could not transfer collateral tokens\");\n        b = b.sub(_amount); \n        mints = mints.sub(_amount);  \n    }\n\n    function getState(uint _id) public view returns (uint _contractAmount, uint _reserveAmount) {\n        return (contents[_id][0], contents[_id][1]);\n    }\n\n    //taken from uniswap\n    function getReserveIn(uint _contractOut, uint _contractAmount, uint _reserveAmount) private pure returns (uint _reserveIn) {\n        require(_contractOut > 0, 'UniswapV2Library: INSUFFICIENT_OUTPUT_AMOUNT');\n        require(_reserveAmount > 0 && _contractAmount > 0, 'UniswapV2Library: INSUFFICIENT_LIQUIDITY');\n        uint numerator = _reserveAmount.mul(_contractOut);\n        uint denominator = _contractAmount.sub(_contractOut);\n        _reserveIn = (numerator / denominator).add(1);\n    }\n\n    //taken from uniswap\n    function getReserveOut(uint _contractIn, uint _contractAmount, uint _reserveAmount) private pure returns (uint _reserveOut) {\n        require(_contractIn > 0, 'UniswapV2Library: INSUFFICIENT_INPUT_AMOUNT');\n        require(_reserveAmount > 0 && _contractAmount > 0, 'UniswapV2Library: INSUFFICIENT_LIQUIDITY');\n        uint numerator = _contractIn.mul(_reserveAmount);\n        uint denominator = _contractAmount.add(_contractIn);\n        _reserveOut = numerator / denominator;\n    }\n\n    function _buyRaw(uint _amount, uint _id) private {\n        uint reserveIn = getReserveIn(_amount, contents[_id][0], contents[_id][1]);\n        require(IERC20(coin).transferFrom(msg.sender, address(this), reserveIn), \"unable to receive reserve\");\n        _mint(msg.sender, _id, _amount, \"\");\n        contents[_id][0] = contents[_id][0].sub(_amount); \n        contents[_id][1] = contents[_id][1].add(reserveIn); \n    }\n\n    function _sellRaw(uint _amount, uint _id) private {\n        uint reserveOut = getReserveOut(_amount, contents[_id][0], contents[_id][1]);\n        _burn(msg.sender, _id, _amount); \n        require(IERC20(coin).transfer(msg.sender, reserveOut), \"could not transfer reserve\");\n        contents[_id][0] = contents[_id][0].add(_amount); \n        contents[_id][1] = contents[_id][1].sub(reserveOut); \n    }\n\n    function buyContract(uint _amount, uint _id) public {\n        _buyRaw(_amount, _id);\n    }\n\n    function sellContract(uint _amount, uint _id) public {\n        _sellRaw(_amount, _id); \n    }\n\n    function addLiquidity(uint _amount) public {\n        require(IERC20(coin).transferFrom(msg.sender, address(this), _amount), \"unable to receive reserve\");\n        if (initialRatioDenominator != 0) {\n            for (uint i = 0; i < uint(2); ++i) {\n                contents[i+1][0] = contents[i+1][0].add(_amount);\n                contents[i+1][1] = contents[i+1][1].add(_amount.mul(initialRatioNumerator[i]) / initialRatioDenominator);\n            }\n            initialRatioDenominator = 0; \n        } else {\n            for (uint i = 0; i < uint(2); ++i) {\n                contents[i+1][0] = contents[i+1][0].add(_amount);\n            }\n        }\n        _mint(msg.sender, 0, _amount, \"\");\n        mints = mints.add(_amount); \n    }\n\n    function removeLiquidity(uint _amount) public {\n        require(balanceOf(msg.sender, 0) > 0, \"not enough liquidity tokens to redeem\");\n        for (uint i = 0; i < uint(2); ++i) {\n            contents[i+1][0] = contents[i+1][0].mul(mints.sub(_amount) / mints);\n            contents[i+1][1] = contents[i+1][1].mul(mints.sub(_amount) / mints);\n        }\n        b = b.mul(mints.sub(_amount) / mints); \n        require(IERC20(coin).transfer(msg.sender, _amount), \"could not transfer collateral tokens\");\n        _burn(msg.sender, 0, _amount); \n        mints = mints.sub(_amount); \n    }\n\n    function validate(uint _id) public {\n        require(msg.sender == oracle, \"Non-oracle called validate\");\n        winner = _id; \n    }\n\n    // function redeem(uint _amount, uint _id) public {\n    //     require(_id == winner)\n    // }\n}",
  "sourcePath": "/Users/kylescott/src/simple_prediction/contracts/Prediction.sol",
  "compiler": {
    "name": "solc",
    "version": "0.8.0+commit.c7dfd78e.Emscripten.clang"
  },
  "schemaVersion": "3.2.4",
  "updatedAt": "2021-04-26T20:13:41.358Z",
  "devdoc": {
    "kind": "dev",
    "methods": {
      "balanceOf(address,uint256)": {
        "details": "See {IERC1155-balanceOf}. Requirements: - `account` cannot be the zero address."
      },
      "balanceOfBatch(address[],uint256[])": {
        "details": "See {IERC1155-balanceOfBatch}. Requirements: - `accounts` and `ids` must have the same length."
      },
      "isApprovedForAll(address,address)": {
        "details": "See {IERC1155-isApprovedForAll}."
      },
      "safeBatchTransferFrom(address,address,uint256[],uint256[],bytes)": {
        "details": "See {IERC1155-safeBatchTransferFrom}."
      },
      "safeTransferFrom(address,address,uint256,uint256,bytes)": {
        "details": "See {IERC1155-safeTransferFrom}."
      },
      "setApprovalForAll(address,bool)": {
        "details": "See {IERC1155-setApprovalForAll}."
      },
      "supportsInterface(bytes4)": {
        "details": "See {IERC165-supportsInterface}."
      },
      "uri(uint256)": {
        "details": "See {IERC1155MetadataURI-uri}. This implementation returns the same URI for *all* token types. It relies on the token type ID substitution mechanism https://eips.ethereum.org/EIPS/eip-1155#metadata[defined in the EIP]. Clients calling this function must replace the `\\{id\\}` substring with the actual token type ID."
      }
    },
    "version": 1
  },
  "userdoc": {
    "kind": "user",
    "methods": {},
    "version": 1
  }
}