{
  "contractName": "Prediction",
  "abi": [
    {
      "inputs": [
        {
          "internalType": "address",
          "name": "_coin",
          "type": "address"
        }
      ],
      "stateMutability": "nonpayable",
      "type": "constructor"
    },
    {
      "anonymous": false,
      "inputs": [
        {
          "indexed": true,
          "internalType": "address",
          "name": "account",
          "type": "address"
        },
        {
          "indexed": true,
          "internalType": "address",
          "name": "operator",
          "type": "address"
        },
        {
          "indexed": false,
          "internalType": "bool",
          "name": "approved",
          "type": "bool"
        }
      ],
      "name": "ApprovalForAll",
      "type": "event"
    },
    {
      "anonymous": false,
      "inputs": [
        {
          "indexed": true,
          "internalType": "address",
          "name": "operator",
          "type": "address"
        },
        {
          "indexed": true,
          "internalType": "address",
          "name": "from",
          "type": "address"
        },
        {
          "indexed": true,
          "internalType": "address",
          "name": "to",
          "type": "address"
        },
        {
          "indexed": false,
          "internalType": "uint256[]",
          "name": "ids",
          "type": "uint256[]"
        },
        {
          "indexed": false,
          "internalType": "uint256[]",
          "name": "values",
          "type": "uint256[]"
        }
      ],
      "name": "TransferBatch",
      "type": "event"
    },
    {
      "anonymous": false,
      "inputs": [
        {
          "indexed": true,
          "internalType": "address",
          "name": "operator",
          "type": "address"
        },
        {
          "indexed": true,
          "internalType": "address",
          "name": "from",
          "type": "address"
        },
        {
          "indexed": true,
          "internalType": "address",
          "name": "to",
          "type": "address"
        },
        {
          "indexed": false,
          "internalType": "uint256",
          "name": "id",
          "type": "uint256"
        },
        {
          "indexed": false,
          "internalType": "uint256",
          "name": "value",
          "type": "uint256"
        }
      ],
      "name": "TransferSingle",
      "type": "event"
    },
    {
      "anonymous": false,
      "inputs": [
        {
          "indexed": false,
          "internalType": "string",
          "name": "value",
          "type": "string"
        },
        {
          "indexed": true,
          "internalType": "uint256",
          "name": "id",
          "type": "uint256"
        }
      ],
      "name": "URI",
      "type": "event"
    },
    {
      "inputs": [
        {
          "internalType": "address",
          "name": "account",
          "type": "address"
        },
        {
          "internalType": "uint256",
          "name": "id",
          "type": "uint256"
        }
      ],
      "name": "balanceOf",
      "outputs": [
        {
          "internalType": "uint256",
          "name": "",
          "type": "uint256"
        }
      ],
      "stateMutability": "view",
      "type": "function"
    },
    {
      "inputs": [
        {
          "internalType": "address[]",
          "name": "accounts",
          "type": "address[]"
        },
        {
          "internalType": "uint256[]",
          "name": "ids",
          "type": "uint256[]"
        }
      ],
      "name": "balanceOfBatch",
      "outputs": [
        {
          "internalType": "uint256[]",
          "name": "",
          "type": "uint256[]"
        }
      ],
      "stateMutability": "view",
      "type": "function"
    },
    {
      "inputs": [
        {
          "internalType": "address",
          "name": "account",
          "type": "address"
        },
        {
          "internalType": "address",
          "name": "operator",
          "type": "address"
        }
      ],
      "name": "isApprovedForAll",
      "outputs": [
        {
          "internalType": "bool",
          "name": "",
          "type": "bool"
        }
      ],
      "stateMutability": "view",
      "type": "function"
    },
    {
      "inputs": [
        {
          "internalType": "address",
          "name": "from",
          "type": "address"
        },
        {
          "internalType": "address",
          "name": "to",
          "type": "address"
        },
        {
          "internalType": "uint256[]",
          "name": "ids",
          "type": "uint256[]"
        },
        {
          "internalType": "uint256[]",
          "name": "amounts",
          "type": "uint256[]"
        },
        {
          "internalType": "bytes",
          "name": "data",
          "type": "bytes"
        }
      ],
      "name": "safeBatchTransferFrom",
      "outputs": [],
      "stateMutability": "nonpayable",
      "type": "function"
    },
    {
      "inputs": [
        {
          "internalType": "address",
          "name": "from",
          "type": "address"
        },
        {
          "internalType": "address",
          "name": "to",
          "type": "address"
        },
        {
          "internalType": "uint256",
          "name": "id",
          "type": "uint256"
        },
        {
          "internalType": "uint256",
          "name": "amount",
          "type": "uint256"
        },
        {
          "internalType": "bytes",
          "name": "data",
          "type": "bytes"
        }
      ],
      "name": "safeTransferFrom",
      "outputs": [],
      "stateMutability": "nonpayable",
      "type": "function"
    },
    {
      "inputs": [
        {
          "internalType": "address",
          "name": "operator",
          "type": "address"
        },
        {
          "internalType": "bool",
          "name": "approved",
          "type": "bool"
        }
      ],
      "name": "setApprovalForAll",
      "outputs": [],
      "stateMutability": "nonpayable",
      "type": "function"
    },
    {
      "inputs": [
        {
          "internalType": "bytes4",
          "name": "interfaceId",
          "type": "bytes4"
        }
      ],
      "name": "supportsInterface",
      "outputs": [
        {
          "internalType": "bool",
          "name": "",
          "type": "bool"
        }
      ],
      "stateMutability": "view",
      "type": "function"
    },
    {
      "inputs": [
        {
          "internalType": "uint256",
          "name": "",
          "type": "uint256"
        }
      ],
      "name": "uri",
      "outputs": [
        {
          "internalType": "string",
          "name": "",
          "type": "string"
        }
      ],
      "stateMutability": "view",
      "type": "function"
    },
    {
      "inputs": [
        {
          "internalType": "uint256",
          "name": "_amount",
          "type": "uint256"
        }
      ],
      "name": "buySet",
      "outputs": [],
      "stateMutability": "nonpayable",
      "type": "function"
    }
  ],
  "bytecode": "0x60806040523480156200001157600080fd5b506040516200289c3803806200289c8339818101604052810190620000379190620001aa565b6040518060400160405280600181526020017f6b000000000000000000000000000000000000000000000000000000000000008152506200007e81620000c760201b60201c565b5080600360006101000a81548173ffffffffffffffffffffffffffffffffffffffff021916908373ffffffffffffffffffffffffffffffffffffffff1602179055505062000289565b8060029080519060200190620000df929190620000e3565b5050565b828054620000f1906200020a565b90600052602060002090601f01602090048101928262000115576000855562000161565b82601f106200013057805160ff191683800117855562000161565b8280016001018555821562000161579182015b828111156200016057825182559160200191906001019062000143565b5b50905062000170919062000174565b5090565b5b808211156200018f57600081600090555060010162000175565b5090565b600081519050620001a4816200026f565b92915050565b600060208284031215620001bd57600080fd5b6000620001cd8482850162000193565b91505092915050565b6000620001e382620001ea565b9050919050565b600073ffffffffffffffffffffffffffffffffffffffff82169050919050565b600060028204905060018216806200022357607f821691505b602082108114156200023a576200023962000240565b5b50919050565b7f4e487b7100000000000000000000000000000000000000000000000000000000600052602260045260246000fd5b6200027a81620001d6565b81146200028657600080fd5b50565b61260380620002996000396000f3fe608060405234801561001057600080fd5b50600436106100925760003560e01c80634e1273f4116100665780634e1273f414610143578063a22cb46514610173578063e96b67f31461018f578063e985e9c5146101ab578063f242432a146101db57610092565b8062fdd58e1461009757806301ffc9a7146100c75780630e89341c146100f75780632eb2c2d614610127575b600080fd5b6100b160048036038101906100ac919061180c565b6101f7565b6040516100be91906120e7565b60405180910390f35b6100e160048036038101906100dc91906118b4565b6102c0565b6040516100ee9190611f6a565b60405180910390f35b610111600480360381019061010c9190611906565b6103a2565b60405161011e9190611f85565b60405180910390f35b610141600480360381019061013c9190611682565b610436565b005b61015d60048036038101906101589190611848565b61082c565b60405161016a9190611f11565b60405180910390f35b61018d600480360381019061018891906117d0565b6109dd565b005b6101a960048036038101906101a49190611906565b610b5e565b005b6101c560048036038101906101c09190611646565b610baa565b6040516101d29190611f6a565b60405180910390f35b6101f560048036038101906101f09190611741565b610c3e565b005b60008073ffffffffffffffffffffffffffffffffffffffff168373ffffffffffffffffffffffffffffffffffffffff161415610268576040517f08c379a000000000000000000000000000000000000000000000000000000000815260040161025f90611fe7565b60405180910390fd5b60008083815260200190815260200160002060008473ffffffffffffffffffffffffffffffffffffffff1673ffffffffffffffffffffffffffffffffffffffff16815260200190815260200160002054905092915050565b60007fd9b67a26000000000000000000000000000000000000000000000000000000007bffffffffffffffffffffffffffffffffffffffffffffffffffffffff1916827bffffffffffffffffffffffffffffffffffffffffffffffffffffffff1916148061038b57507f0e89341c000000000000000000000000000000000000000000000000000000007bffffffffffffffffffffffffffffffffffffffffffffffffffffffff1916827bffffffffffffffffffffffffffffffffffffffffffffffffffffffff1916145b8061039b575061039a82610f56565b5b9050919050565b6060600280546103b190612395565b80601f01602080910402602001604051908101604052809291908181526020018280546103dd90612395565b801561042a5780601f106103ff5761010080835404028352916020019161042a565b820191906000526020600020905b81548152906001019060200180831161040d57829003601f168201915b50505050509050919050565b815183511461047a576040517f08c379a0000000000000000000000000000000000000000000000000000000008152600401610471906120c7565b60405180910390fd5b600073ffffffffffffffffffffffffffffffffffffffff168473ffffffffffffffffffffffffffffffffffffffff1614156104ea576040517f08c379a00000000000000000000000000000000000000000000000000000000081526004016104e190612027565b60405180910390fd5b6104f2610fc0565b73ffffffffffffffffffffffffffffffffffffffff168573ffffffffffffffffffffffffffffffffffffffff161480610538575061053785610532610fc0565b610baa565b5b610577576040517f08c379a000000000000000000000000000000000000000000000000000000000815260040161056e90612047565b60405180910390fd5b6000610581610fc0565b9050610591818787878787610fc8565b60005b84518110156107975760008582815181106105d8577f4e487b7100000000000000000000000000000000000000000000000000000000600052603260045260246000fd5b60200260200101519050600085838151811061061d577f4e487b7100000000000000000000000000000000000000000000000000000000600052603260045260246000fd5b60200260200101519050600080600084815260200190815260200160002060008b73ffffffffffffffffffffffffffffffffffffffff1673ffffffffffffffffffffffffffffffffffffffff168152602001908152602001600020549050818110156106be576040517f08c379a00000000000000000000000000000000000000000000000000000000081526004016106b590612067565b60405180910390fd5b81816106ca91906122ab565b60008085815260200190815260200160002060008c73ffffffffffffffffffffffffffffffffffffffff1673ffffffffffffffffffffffffffffffffffffffff168152602001908152602001600020819055508160008085815260200190815260200160002060008b73ffffffffffffffffffffffffffffffffffffffff1673ffffffffffffffffffffffffffffffffffffffff168152602001908152602001600020600082825461077c9190612255565b9250508190555050505080610790906123c7565b9050610594565b508473ffffffffffffffffffffffffffffffffffffffff168673ffffffffffffffffffffffffffffffffffffffff168273ffffffffffffffffffffffffffffffffffffffff167f4a39dc06d4c0dbc64b70af90fd698a233a518aa5d07e595d983b8c0526c8f7fb878760405161080e929190611f33565b60405180910390a4610824818787878787610fd0565b505050505050565b60608151835114610872576040517f08c379a0000000000000000000000000000000000000000000000000000000008152600401610869906120a7565b60405180910390fd5b6000835167ffffffffffffffff8111156108b5577f4e487b7100000000000000000000000000000000000000000000000000000000600052604160045260246000fd5b6040519080825280602002602001820160405280156108e35781602001602082028036833780820191505090505b50905060005b84518110156109d25761097c85828151811061092e577f4e487b7100000000000000000000000000000000000000000000000000000000600052603260045260246000fd5b602002602001015185838151811061096f577f4e487b7100000000000000000000000000000000000000000000000000000000600052603260045260246000fd5b60200260200101516101f7565b8282815181106109b5577f4e487b7100000000000000000000000000000000000000000000000000000000600052603260045260246000fd5b602002602001018181525050806109cb906123c7565b90506108e9565b508091505092915050565b8173ffffffffffffffffffffffffffffffffffffffff166109fc610fc0565b73ffffffffffffffffffffffffffffffffffffffff161415610a53576040517f08c379a0000000000000000000000000000000000000000000000000000000008152600401610a4a90612087565b60405180910390fd5b8060016000610a60610fc0565b73ffffffffffffffffffffffffffffffffffffffff1673ffffffffffffffffffffffffffffffffffffffff16815260200190815260200160002060008473ffffffffffffffffffffffffffffffffffffffff1673ffffffffffffffffffffffffffffffffffffffff16815260200190815260200160002060006101000a81548160ff0219169083151502179055508173ffffffffffffffffffffffffffffffffffffffff16610b0d610fc0565b73ffffffffffffffffffffffffffffffffffffffff167f17307eab39ab6107e8899845ad3d59bd9653f200f220920489ca2b5937696c3183604051610b529190611f6a565b60405180910390a35050565b806004819055506000600360006101000a81548173ffffffffffffffffffffffffffffffffffffffff021916908373ffffffffffffffffffffffffffffffffffffffff16021790555050565b6000600160008473ffffffffffffffffffffffffffffffffffffffff1673ffffffffffffffffffffffffffffffffffffffff16815260200190815260200160002060008373ffffffffffffffffffffffffffffffffffffffff1673ffffffffffffffffffffffffffffffffffffffff16815260200190815260200160002060009054906101000a900460ff16905092915050565b600073ffffffffffffffffffffffffffffffffffffffff168473ffffffffffffffffffffffffffffffffffffffff161415610cae576040517f08c379a0000000000000000000000000000000000000000000000000000000008152600401610ca590612027565b60405180910390fd5b610cb6610fc0565b73ffffffffffffffffffffffffffffffffffffffff168573ffffffffffffffffffffffffffffffffffffffff161480610cfc5750610cfb85610cf6610fc0565b610baa565b5b610d3b576040517f08c379a0000000000000000000000000000000000000000000000000000000008152600401610d3290612007565b60405180910390fd5b6000610d45610fc0565b9050610d65818787610d56886111a0565b610d5f886111a0565b87610fc8565b600080600086815260200190815260200160002060008873ffffffffffffffffffffffffffffffffffffffff1673ffffffffffffffffffffffffffffffffffffffff16815260200190815260200160002054905083811015610dfc576040517f08c379a0000000000000000000000000000000000000000000000000000000008152600401610df390612067565b60405180910390fd5b8381610e0891906122ab565b60008087815260200190815260200160002060008973ffffffffffffffffffffffffffffffffffffffff1673ffffffffffffffffffffffffffffffffffffffff168152602001908152602001600020819055508360008087815260200190815260200160002060008873ffffffffffffffffffffffffffffffffffffffff1673ffffffffffffffffffffffffffffffffffffffff1681526020019081526020016000206000828254610eba9190612255565b925050819055508573ffffffffffffffffffffffffffffffffffffffff168773ffffffffffffffffffffffffffffffffffffffff168373ffffffffffffffffffffffffffffffffffffffff167fc3d58168c5ae7397731d063d5bbf3d657854427343f4c083240f7aacaa2d0f628888604051610f37929190612102565b60405180910390a4610f4d828888888888611266565b50505050505050565b60007f01ffc9a7000000000000000000000000000000000000000000000000000000007bffffffffffffffffffffffffffffffffffffffffffffffffffffffff1916827bffffffffffffffffffffffffffffffffffffffffffffffffffffffff1916149050919050565b600033905090565b505050505050565b610fef8473ffffffffffffffffffffffffffffffffffffffff16611436565b15611198578373ffffffffffffffffffffffffffffffffffffffff1663bc197c8187878686866040518663ffffffff1660e01b8152600401611035959493929190611e4f565b602060405180830381600087803b15801561104f57600080fd5b505af192505050801561108057506040513d601f19601f8201168201806040525081019061107d91906118dd565b60015b61110f5761108c6124bb565b8061109757506110d4565b806040517f08c379a00000000000000000000000000000000000000000000000000000000081526004016110cb9190611f85565b60405180910390fd5b6040517f08c379a000000000000000000000000000000000000000000000000000000000815260040161110690611fa7565b60405180910390fd5b63bc197c8160e01b7bffffffffffffffffffffffffffffffffffffffffffffffffffffffff1916817bffffffffffffffffffffffffffffffffffffffffffffffffffffffff191614611196576040517f08c379a000000000000000000000000000000000000000000000000000000000815260040161118d90611fc7565b60405180910390fd5b505b505050505050565b60606000600167ffffffffffffffff8111156111e5577f4e487b7100000000000000000000000000000000000000000000000000000000600052604160045260246000fd5b6040519080825280602002602001820160405280156112135781602001602082028036833780820191505090505b5090508281600081518110611251577f4e487b7100000000000000000000000000000000000000000000000000000000600052603260045260246000fd5b60200260200101818152505080915050919050565b6112858473ffffffffffffffffffffffffffffffffffffffff16611436565b1561142e578373ffffffffffffffffffffffffffffffffffffffff1663f23a6e6187878686866040518663ffffffff1660e01b81526004016112cb959493929190611eb7565b602060405180830381600087803b1580156112e557600080fd5b505af192505050801561131657506040513d601f19601f8201168201806040525081019061131391906118dd565b60015b6113a5576113226124bb565b8061132d575061136a565b806040517f08c379a00000000000000000000000000000000000000000000000000000000081526004016113619190611f85565b60405180910390fd5b6040517f08c379a000000000000000000000000000000000000000000000000000000000815260040161139c90611fa7565b60405180910390fd5b63f23a6e6160e01b7bffffffffffffffffffffffffffffffffffffffffffffffffffffffff1916817bffffffffffffffffffffffffffffffffffffffffffffffffffffffff19161461142c576040517f08c379a000000000000000000000000000000000000000000000000000000000815260040161142390611fc7565b60405180910390fd5b505b505050505050565b600080823b905060008111915050919050565b600061145c6114578461215c565b61212b565b9050808382526020820190508285602086028201111561147b57600080fd5b60005b858110156114ab5781611491888261155f565b84526020840193506020830192505060018101905061147e565b5050509392505050565b60006114c86114c384612188565b61212b565b905080838252602082019050828560208602820111156114e757600080fd5b60005b8581101561151757816114fd8882611631565b8452602084019350602083019250506001810190506114ea565b5050509392505050565b600061153461152f846121b4565b61212b565b90508281526020810184848401111561154c57600080fd5b611557848285612353565b509392505050565b60008135905061156e81612571565b92915050565b600082601f83011261158557600080fd5b8135611595848260208601611449565b91505092915050565b600082601f8301126115af57600080fd5b81356115bf8482602086016114b5565b91505092915050565b6000813590506115d781612588565b92915050565b6000813590506115ec8161259f565b92915050565b6000815190506116018161259f565b92915050565b600082601f83011261161857600080fd5b8135611628848260208601611521565b91505092915050565b600081359050611640816125b6565b92915050565b6000806040838503121561165957600080fd5b60006116678582860161155f565b92505060206116788582860161155f565b9150509250929050565b600080600080600060a0868803121561169a57600080fd5b60006116a88882890161155f565b95505060206116b98882890161155f565b945050604086013567ffffffffffffffff8111156116d657600080fd5b6116e28882890161159e565b935050606086013567ffffffffffffffff8111156116ff57600080fd5b61170b8882890161159e565b925050608086013567ffffffffffffffff81111561172857600080fd5b61173488828901611607565b9150509295509295909350565b600080600080600060a0868803121561175957600080fd5b60006117678882890161155f565b95505060206117788882890161155f565b945050604061178988828901611631565b935050606061179a88828901611631565b925050608086013567ffffffffffffffff8111156117b757600080fd5b6117c388828901611607565b9150509295509295909350565b600080604083850312156117e357600080fd5b60006117f18582860161155f565b9250506020611802858286016115c8565b9150509250929050565b6000806040838503121561181f57600080fd5b600061182d8582860161155f565b925050602061183e85828601611631565b9150509250929050565b6000806040838503121561185b57600080fd5b600083013567ffffffffffffffff81111561187557600080fd5b61188185828601611574565b925050602083013567ffffffffffffffff81111561189e57600080fd5b6118aa8582860161159e565b9150509250929050565b6000602082840312156118c657600080fd5b60006118d4848285016115dd565b91505092915050565b6000602082840312156118ef57600080fd5b60006118fd848285016115f2565b91505092915050565b60006020828403121561191857600080fd5b600061192684828501611631565b91505092915050565b600061193b8383611e31565b60208301905092915050565b611950816122df565b82525050565b6000611961826121f4565b61196b8185612222565b9350611976836121e4565b8060005b838110156119a757815161198e888261192f565b975061199983612215565b92505060018101905061197a565b5085935050505092915050565b6119bd816122f1565b82525050565b60006119ce826121ff565b6119d88185612233565b93506119e8818560208601612362565b6119f18161249d565b840191505092915050565b6000611a078261220a565b611a118185612244565b9350611a21818560208601612362565b611a2a8161249d565b840191505092915050565b6000611a42603483612244565b91507f455243313135353a207472616e7366657220746f206e6f6e204552433131353560008301527f526563656976657220696d706c656d656e7465720000000000000000000000006020830152604082019050919050565b6000611aa8602883612244565b91507f455243313135353a204552433131353552656365697665722072656a6563746560008301527f6420746f6b656e730000000000000000000000000000000000000000000000006020830152604082019050919050565b6000611b0e602b83612244565b91507f455243313135353a2062616c616e636520717565727920666f7220746865207a60008301527f65726f20616464726573730000000000000000000000000000000000000000006020830152604082019050919050565b6000611b74602983612244565b91507f455243313135353a2063616c6c6572206973206e6f74206f776e6572206e6f7260008301527f20617070726f76656400000000000000000000000000000000000000000000006020830152604082019050919050565b6000611bda602583612244565b91507f455243313135353a207472616e7366657220746f20746865207a65726f20616460008301527f64726573730000000000000000000000000000000000000000000000000000006020830152604082019050919050565b6000611c40603283612244565b91507f455243313135353a207472616e736665722063616c6c6572206973206e6f742060008301527f6f776e6572206e6f7220617070726f76656400000000000000000000000000006020830152604082019050919050565b6000611ca6602a83612244565b91507f455243313135353a20696e73756666696369656e742062616c616e636520666f60008301527f72207472616e73666572000000000000000000000000000000000000000000006020830152604082019050919050565b6000611d0c602983612244565b91507f455243313135353a2073657474696e6720617070726f76616c2073746174757360008301527f20666f722073656c6600000000000000000000000000000000000000000000006020830152604082019050919050565b6000611d72602983612244565b91507f455243313135353a206163636f756e747320616e6420696473206c656e67746860008301527f206d69736d6174636800000000000000000000000000000000000000000000006020830152604082019050919050565b6000611dd8602883612244565b91507f455243313135353a2069647320616e6420616d6f756e7473206c656e6774682060008301527f6d69736d617463680000000000000000000000000000000000000000000000006020830152604082019050919050565b611e3a81612349565b82525050565b611e4981612349565b82525050565b600060a082019050611e646000830188611947565b611e716020830187611947565b8181036040830152611e838186611956565b90508181036060830152611e978185611956565b90508181036080830152611eab81846119c3565b90509695505050505050565b600060a082019050611ecc6000830188611947565b611ed96020830187611947565b611ee66040830186611e40565b611ef36060830185611e40565b8181036080830152611f0581846119c3565b90509695505050505050565b60006020820190508181036000830152611f2b8184611956565b905092915050565b60006040820190508181036000830152611f4d8185611956565b90508181036020830152611f618184611956565b90509392505050565b6000602082019050611f7f60008301846119b4565b92915050565b60006020820190508181036000830152611f9f81846119fc565b905092915050565b60006020820190508181036000830152611fc081611a35565b9050919050565b60006020820190508181036000830152611fe081611a9b565b9050919050565b6000602082019050818103600083015261200081611b01565b9050919050565b6000602082019050818103600083015261202081611b67565b9050919050565b6000602082019050818103600083015261204081611bcd565b9050919050565b6000602082019050818103600083015261206081611c33565b9050919050565b6000602082019050818103600083015261208081611c99565b9050919050565b600060208201905081810360008301526120a081611cff565b9050919050565b600060208201905081810360008301526120c081611d65565b9050919050565b600060208201905081810360008301526120e081611dcb565b9050919050565b60006020820190506120fc6000830184611e40565b92915050565b60006040820190506121176000830185611e40565b6121246020830184611e40565b9392505050565b6000604051905081810181811067ffffffffffffffff821117156121525761215161246e565b5b8060405250919050565b600067ffffffffffffffff8211156121775761217661246e565b5b602082029050602081019050919050565b600067ffffffffffffffff8211156121a3576121a261246e565b5b602082029050602081019050919050565b600067ffffffffffffffff8211156121cf576121ce61246e565b5b601f19601f8301169050602081019050919050565b6000819050602082019050919050565b600081519050919050565b600081519050919050565b600081519050919050565b6000602082019050919050565b600082825260208201905092915050565b600082825260208201905092915050565b600082825260208201905092915050565b600061226082612349565b915061226b83612349565b9250827fffffffffffffffffffffffffffffffffffffffffffffffffffffffffffffffff038211156122a05761229f612410565b5b828201905092915050565b60006122b682612349565b91506122c183612349565b9250828210156122d4576122d3612410565b5b828203905092915050565b60006122ea82612329565b9050919050565b60008115159050919050565b60007fffffffff0000000000000000000000000000000000000000000000000000000082169050919050565b600073ffffffffffffffffffffffffffffffffffffffff82169050919050565b6000819050919050565b82818337600083830152505050565b60005b83811015612380578082015181840152602081019050612365565b8381111561238f576000848401525b50505050565b600060028204905060018216806123ad57607f821691505b602082108114156123c1576123c061243f565b5b50919050565b60006123d282612349565b91507fffffffffffffffffffffffffffffffffffffffffffffffffffffffffffffffff82141561240557612404612410565b5b600182019050919050565b7f4e487b7100000000000000000000000000000000000000000000000000000000600052601160045260246000fd5b7f4e487b7100000000000000000000000000000000000000000000000000000000600052602260045260246000fd5b7f4e487b7100000000000000000000000000000000000000000000000000000000600052604160045260246000fd5b6000601f19601f8301169050919050565b60008160e01c9050919050565b600060443d10156124cb5761256e565b60046000803e6124dc6000516124ae565b6308c379a081146124ed575061256e565b60405160043d036004823e80513d602482011167ffffffffffffffff821117156125195750505061256e565b808201805167ffffffffffffffff81111561253857505050505061256e565b8060208301013d85018111156125535750505050505061256e565b61255c8261249d565b60208401016040528296505050505050505b90565b61257a816122df565b811461258557600080fd5b50565b612591816122f1565b811461259c57600080fd5b50565b6125a8816122fd565b81146125b357600080fd5b50565b6125bf81612349565b81146125ca57600080fd5b5056fea2646970667358221220869a84b9c0e81a0e04252184e18e3fd3f8ce8a2ec5109203e74aea19bf8f55d164736f6c63430008000033",
  "immutableReferences": {},
  "source": "// SPDX-License-Identifier: MIT\npragma solidity ^0.8.0;\n\nimport \"@openzeppelin/contracts/token/ERC1155/ERC1155.sol\";\nimport \"./Interfaces/ICoin.sol\";\n\ncontract Prediction is ERC1155(\"k\") {\n    address coin; \n    uint amount;\n    constructor (address _coin) {\n        coin = _coin; \n    }\n    function buySet(uint _amount) public {\n        amount = _amount; \n        coin = address(0);\n    }\n}",
  "sourcePath": "/Users/kylescott/src/simple_prediction/contracts/Prediction.sol",
  "compiler": {
    "name": "solc",
    "version": "0.8.0+commit.c7dfd78e.Emscripten.clang"
  },
  "schemaVersion": "3.2.4",
  "updatedAt": "2021-04-17T22:40:36.305Z",
  "devdoc": {
    "kind": "dev",
    "methods": {
      "balanceOf(address,uint256)": {
        "details": "See {IERC1155-balanceOf}. Requirements: - `account` cannot be the zero address."
      },
      "balanceOfBatch(address[],uint256[])": {
        "details": "See {IERC1155-balanceOfBatch}. Requirements: - `accounts` and `ids` must have the same length."
      },
      "isApprovedForAll(address,address)": {
        "details": "See {IERC1155-isApprovedForAll}."
      },
      "safeBatchTransferFrom(address,address,uint256[],uint256[],bytes)": {
        "details": "See {IERC1155-safeBatchTransferFrom}."
      },
      "safeTransferFrom(address,address,uint256,uint256,bytes)": {
        "details": "See {IERC1155-safeTransferFrom}."
      },
      "setApprovalForAll(address,bool)": {
        "details": "See {IERC1155-setApprovalForAll}."
      },
      "supportsInterface(bytes4)": {
        "details": "See {IERC165-supportsInterface}."
      },
      "uri(uint256)": {
        "details": "See {IERC1155MetadataURI-uri}. This implementation returns the same URI for *all* token types. It relies on the token type ID substitution mechanism https://eips.ethereum.org/EIPS/eip-1155#metadata[defined in the EIP]. Clients calling this function must replace the `\\{id\\}` substring with the actual token type ID."
      }
    },
    "version": 1
  },
  "userdoc": {
    "kind": "user",
    "methods": {},
    "version": 1
  }
}