{
  "contractName": "Prediction",
  "abi": [
    {
      "inputs": [
        {
          "internalType": "address",
          "name": "_coin",
          "type": "address"
        }
      ],
      "stateMutability": "nonpayable",
      "type": "constructor"
    },
    {
      "anonymous": false,
      "inputs": [
        {
          "indexed": true,
          "internalType": "address",
          "name": "account",
          "type": "address"
        },
        {
          "indexed": true,
          "internalType": "address",
          "name": "operator",
          "type": "address"
        },
        {
          "indexed": false,
          "internalType": "bool",
          "name": "approved",
          "type": "bool"
        }
      ],
      "name": "ApprovalForAll",
      "type": "event"
    },
    {
      "anonymous": false,
      "inputs": [
        {
          "indexed": true,
          "internalType": "address",
          "name": "operator",
          "type": "address"
        },
        {
          "indexed": true,
          "internalType": "address",
          "name": "from",
          "type": "address"
        },
        {
          "indexed": true,
          "internalType": "address",
          "name": "to",
          "type": "address"
        },
        {
          "indexed": false,
          "internalType": "uint256[]",
          "name": "ids",
          "type": "uint256[]"
        },
        {
          "indexed": false,
          "internalType": "uint256[]",
          "name": "values",
          "type": "uint256[]"
        }
      ],
      "name": "TransferBatch",
      "type": "event"
    },
    {
      "anonymous": false,
      "inputs": [
        {
          "indexed": true,
          "internalType": "address",
          "name": "operator",
          "type": "address"
        },
        {
          "indexed": true,
          "internalType": "address",
          "name": "from",
          "type": "address"
        },
        {
          "indexed": true,
          "internalType": "address",
          "name": "to",
          "type": "address"
        },
        {
          "indexed": false,
          "internalType": "uint256",
          "name": "id",
          "type": "uint256"
        },
        {
          "indexed": false,
          "internalType": "uint256",
          "name": "value",
          "type": "uint256"
        }
      ],
      "name": "TransferSingle",
      "type": "event"
    },
    {
      "anonymous": false,
      "inputs": [
        {
          "indexed": false,
          "internalType": "string",
          "name": "value",
          "type": "string"
        },
        {
          "indexed": true,
          "internalType": "uint256",
          "name": "id",
          "type": "uint256"
        }
      ],
      "name": "URI",
      "type": "event"
    },
    {
      "inputs": [
        {
          "internalType": "address",
          "name": "account",
          "type": "address"
        },
        {
          "internalType": "uint256",
          "name": "id",
          "type": "uint256"
        }
      ],
      "name": "balanceOf",
      "outputs": [
        {
          "internalType": "uint256",
          "name": "",
          "type": "uint256"
        }
      ],
      "stateMutability": "view",
      "type": "function"
    },
    {
      "inputs": [
        {
          "internalType": "address[]",
          "name": "accounts",
          "type": "address[]"
        },
        {
          "internalType": "uint256[]",
          "name": "ids",
          "type": "uint256[]"
        }
      ],
      "name": "balanceOfBatch",
      "outputs": [
        {
          "internalType": "uint256[]",
          "name": "",
          "type": "uint256[]"
        }
      ],
      "stateMutability": "view",
      "type": "function"
    },
    {
      "inputs": [],
      "name": "coin",
      "outputs": [
        {
          "internalType": "address",
          "name": "",
          "type": "address"
        }
      ],
      "stateMutability": "view",
      "type": "function"
    },
    {
      "inputs": [],
      "name": "identifier",
      "outputs": [
        {
          "internalType": "bytes32",
          "name": "",
          "type": "bytes32"
        }
      ],
      "stateMutability": "view",
      "type": "function"
    },
    {
      "inputs": [
        {
          "internalType": "address",
          "name": "account",
          "type": "address"
        },
        {
          "internalType": "address",
          "name": "operator",
          "type": "address"
        }
      ],
      "name": "isApprovedForAll",
      "outputs": [
        {
          "internalType": "bool",
          "name": "",
          "type": "bool"
        }
      ],
      "stateMutability": "view",
      "type": "function"
    },
    {
      "inputs": [],
      "name": "oracle",
      "outputs": [
        {
          "internalType": "address",
          "name": "",
          "type": "address"
        }
      ],
      "stateMutability": "view",
      "type": "function"
    },
    {
      "inputs": [
        {
          "internalType": "address",
          "name": "from",
          "type": "address"
        },
        {
          "internalType": "address",
          "name": "to",
          "type": "address"
        },
        {
          "internalType": "uint256[]",
          "name": "ids",
          "type": "uint256[]"
        },
        {
          "internalType": "uint256[]",
          "name": "amounts",
          "type": "uint256[]"
        },
        {
          "internalType": "bytes",
          "name": "data",
          "type": "bytes"
        }
      ],
      "name": "safeBatchTransferFrom",
      "outputs": [],
      "stateMutability": "nonpayable",
      "type": "function"
    },
    {
      "inputs": [
        {
          "internalType": "address",
          "name": "from",
          "type": "address"
        },
        {
          "internalType": "address",
          "name": "to",
          "type": "address"
        },
        {
          "internalType": "uint256",
          "name": "id",
          "type": "uint256"
        },
        {
          "internalType": "uint256",
          "name": "amount",
          "type": "uint256"
        },
        {
          "internalType": "bytes",
          "name": "data",
          "type": "bytes"
        }
      ],
      "name": "safeTransferFrom",
      "outputs": [],
      "stateMutability": "nonpayable",
      "type": "function"
    },
    {
      "inputs": [
        {
          "internalType": "address",
          "name": "operator",
          "type": "address"
        },
        {
          "internalType": "bool",
          "name": "approved",
          "type": "bool"
        }
      ],
      "name": "setApprovalForAll",
      "outputs": [],
      "stateMutability": "nonpayable",
      "type": "function"
    },
    {
      "inputs": [
        {
          "internalType": "bytes4",
          "name": "interfaceId",
          "type": "bytes4"
        }
      ],
      "name": "supportsInterface",
      "outputs": [
        {
          "internalType": "bool",
          "name": "",
          "type": "bool"
        }
      ],
      "stateMutability": "view",
      "type": "function"
    },
    {
      "inputs": [
        {
          "internalType": "uint256",
          "name": "",
          "type": "uint256"
        }
      ],
      "name": "uri",
      "outputs": [
        {
          "internalType": "string",
          "name": "",
          "type": "string"
        }
      ],
      "stateMutability": "view",
      "type": "function"
    },
    {
      "inputs": [
        {
          "internalType": "uint256",
          "name": "_amount",
          "type": "uint256"
        }
      ],
      "name": "buySet",
      "outputs": [],
      "stateMutability": "nonpayable",
      "type": "function"
    },
    {
      "inputs": [
        {
          "internalType": "uint256",
          "name": "_amount",
          "type": "uint256"
        }
      ],
      "name": "sellSet",
      "outputs": [],
      "stateMutability": "nonpayable",
      "type": "function"
    }
  ],
  "bytecode": "0x60806040523480156200001157600080fd5b50604051620039373803806200393783398181016040528101906200003791906200023f565b6040518060400160405280600481526020017f46524545000000000000000000000000000000000000000000000000000000008152506200007e816200015c60201b60201c565b5080600360006101000a81548173ffffffffffffffffffffffffffffffffffffffff021916908373ffffffffffffffffffffffffffffffffffffffff16021790555033600460006101000a81548173ffffffffffffffffffffffffffffffffffffffff021916908373ffffffffffffffffffffffffffffffffffffffff160217905550600460009054906101000a900473ffffffffffffffffffffffffffffffffffffffff16600260405160200162000139929190620002e3565b604051602081830303815290604052805190602001206005819055505062000427565b80600290805190602001906200017492919062000178565b5050565b828054620001869062000369565b90600052602060002090601f016020900481019282620001aa5760008555620001f6565b82601f10620001c557805160ff1916838001178555620001f6565b82800160010185558215620001f6579182015b82811115620001f5578251825591602001919060010190620001d8565b5b50905062000205919062000209565b5090565b5b80821115620002245760008160009055506001016200020a565b5090565b60008151905062000239816200040d565b92915050565b6000602082840312156200025257600080fd5b6000620002628482850162000228565b91505092915050565b620002806200027a826200032b565b6200039f565b82525050565b600062000295600e8362000320565b91507f4865616473206f72205461696c730000000000000000000000000000000000006000830152600e82019050919050565b620002dd620002d7826200035f565b620003c7565b82525050565b6000620002f182856200026b565b601482019150620003028262000286565b9150620003108284620002c8565b6020820191508190509392505050565b600081905092915050565b600062000338826200033f565b9050919050565b600073ffffffffffffffffffffffffffffffffffffffff82169050919050565b6000819050919050565b600060028204905060018216806200038257607f821691505b60208210811415620003995762000398620003d1565b5b50919050565b6000620003ac82620003b3565b9050919050565b6000620003c08262000400565b9050919050565b6000819050919050565b7f4e487b7100000000000000000000000000000000000000000000000000000000600052602260045260246000fd5b60008160601b9050919050565b62000418816200032b565b81146200042457600080fd5b50565b61350080620004376000396000f3fe608060405234801561001057600080fd5b50600436106100ce5760003560e01c80634e1273f41161008c578063a22cb46511610066578063a22cb46514610225578063e96b67f314610241578063e985e9c51461025d578063f242432a1461028d576100ce565b80634e1273f4146101b95780637998a1c4146101e95780637dc0d1d014610207576100ce565b8062fdd58e146100d357806301ffc9a7146101035780630376042b146101335780630e89341c1461014f57806311df99951461017f5780632eb2c2d61461019d575b600080fd5b6100ed60048036038101906100e89190612393565b6102a9565b6040516100fa9190612fda565b60405180910390f35b61011d60048036038101906101189190612464565b610372565b60405161012a9190612da2565b60405180910390f35b61014d600480360381019061014891906124b6565b610454565b005b610169600480360381019061016491906124b6565b6106f0565b6040516101769190612dd8565b60405180910390f35b610187610784565b6040516101949190612c0c565b60405180910390f35b6101b760048036038101906101b29190612209565b6107aa565b005b6101d360048036038101906101ce91906123cf565b610ba0565b6040516101e09190612d49565b60405180910390f35b6101f1610d51565b6040516101fe9190612dbd565b60405180910390f35b61020f610d57565b60405161021c9190612c0c565b60405180910390f35b61023f600480360381019061023a9190612357565b610d7d565b005b61025b600480360381019061025691906124b6565b610efe565b005b610277600480360381019061027291906121cd565b6111ac565b6040516102849190612da2565b60405180910390f35b6102a760048036038101906102a291906122c8565b611240565b005b60008073ffffffffffffffffffffffffffffffffffffffff168373ffffffffffffffffffffffffffffffffffffffff16141561031a576040517f08c379a000000000000000000000000000000000000000000000000000000000815260040161031190612e5a565b60405180910390fd5b60008083815260200190815260200160002060008473ffffffffffffffffffffffffffffffffffffffff1673ffffffffffffffffffffffffffffffffffffffff16815260200190815260200160002054905092915050565b60007fd9b67a26000000000000000000000000000000000000000000000000000000007bffffffffffffffffffffffffffffffffffffffffffffffffffffffff1916827bffffffffffffffffffffffffffffffffffffffffffffffffffffffff1916148061043d57507f0e89341c000000000000000000000000000000000000000000000000000000007bffffffffffffffffffffffffffffffffffffffffffffffffffffffff1916827bffffffffffffffffffffffffffffffffffffffffffffffffffffffff1916145b8061044d575061044c82611558565b5b9050919050565b6000600267ffffffffffffffff811115610497577f4e487b7100000000000000000000000000000000000000000000000000000000600052604160045260246000fd5b6040519080825280602002602001820160405280156104c55781602001602082028036833780820191505090505b5090506000600267ffffffffffffffff81111561050b577f4e487b7100000000000000000000000000000000000000000000000000000000600052604160045260246000fd5b6040519080825280602002602001820160405280156105395781602001602082028036833780820191505090505b50905060005b60028110156105f1576001816105559190613148565b83828151811061058e577f4e487b7100000000000000000000000000000000000000000000000000000000600052603260045260246000fd5b602002602001018181525050838282815181106105d4577f4e487b7100000000000000000000000000000000000000000000000000000000600052603260045260246000fd5b602002602001018181525050806105ea906132c4565b905061053f565b506105fd3383836115c2565b600360009054906101000a900473ffffffffffffffffffffffffffffffffffffffff1673ffffffffffffffffffffffffffffffffffffffff1663a9059cbb33856040518363ffffffff1660e01b815260040161065a929190612d20565b602060405180830381600087803b15801561067457600080fd5b505af1158015610688573d6000803e3d6000fd5b505050506040513d601f19601f820116820180604052508101906106ac919061243b565b6106eb576040517f08c379a00000000000000000000000000000000000000000000000000000000081526004016106e290612e3a565b60405180910390fd5b505050565b6060600280546106ff90613292565b80601f016020809104026020016040519081016040528092919081815260200182805461072b90613292565b80156107785780601f1061074d57610100808354040283529160200191610778565b820191906000526020600020905b81548152906001019060200180831161075b57829003601f168201915b50505050509050919050565b600360009054906101000a900473ffffffffffffffffffffffffffffffffffffffff1681565b81518351146107ee576040517f08c379a00000000000000000000000000000000000000000000000000000000081526004016107e590612f9a565b60405180910390fd5b600073ffffffffffffffffffffffffffffffffffffffff168473ffffffffffffffffffffffffffffffffffffffff16141561085e576040517f08c379a000000000000000000000000000000000000000000000000000000000815260040161085590612eba565b60405180910390fd5b6108666118c8565b73ffffffffffffffffffffffffffffffffffffffff168573ffffffffffffffffffffffffffffffffffffffff1614806108ac57506108ab856108a66118c8565b6111ac565b5b6108eb576040517f08c379a00000000000000000000000000000000000000000000000000000000081526004016108e290612eda565b60405180910390fd5b60006108f56118c8565b90506109058187878787876118d0565b60005b8451811015610b0b57600085828151811061094c577f4e487b7100000000000000000000000000000000000000000000000000000000600052603260045260246000fd5b602002602001015190506000858381518110610991577f4e487b7100000000000000000000000000000000000000000000000000000000600052603260045260246000fd5b60200260200101519050600080600084815260200190815260200160002060008b73ffffffffffffffffffffffffffffffffffffffff1673ffffffffffffffffffffffffffffffffffffffff16815260200190815260200160002054905081811015610a32576040517f08c379a0000000000000000000000000000000000000000000000000000000008152600401610a2990612f3a565b60405180910390fd5b8181610a3e919061319e565b60008085815260200190815260200160002060008c73ffffffffffffffffffffffffffffffffffffffff1673ffffffffffffffffffffffffffffffffffffffff168152602001908152602001600020819055508160008085815260200190815260200160002060008b73ffffffffffffffffffffffffffffffffffffffff1673ffffffffffffffffffffffffffffffffffffffff1681526020019081526020016000206000828254610af09190613148565b9250508190555050505080610b04906132c4565b9050610908565b508473ffffffffffffffffffffffffffffffffffffffff168673ffffffffffffffffffffffffffffffffffffffff168273ffffffffffffffffffffffffffffffffffffffff167f4a39dc06d4c0dbc64b70af90fd698a233a518aa5d07e595d983b8c0526c8f7fb8787604051610b82929190612d6b565b60405180910390a4610b988187878787876118d8565b505050505050565b60608151835114610be6576040517f08c379a0000000000000000000000000000000000000000000000000000000008152600401610bdd90612f7a565b60405180910390fd5b6000835167ffffffffffffffff811115610c29577f4e487b7100000000000000000000000000000000000000000000000000000000600052604160045260246000fd5b604051908082528060200260200182016040528015610c575781602001602082028036833780820191505090505b50905060005b8451811015610d4657610cf0858281518110610ca2577f4e487b7100000000000000000000000000000000000000000000000000000000600052603260045260246000fd5b6020026020010151858381518110610ce3577f4e487b7100000000000000000000000000000000000000000000000000000000600052603260045260246000fd5b60200260200101516102a9565b828281518110610d29577f4e487b7100000000000000000000000000000000000000000000000000000000600052603260045260246000fd5b60200260200101818152505080610d3f906132c4565b9050610c5d565b508091505092915050565b60055481565b600460009054906101000a900473ffffffffffffffffffffffffffffffffffffffff1681565b8173ffffffffffffffffffffffffffffffffffffffff16610d9c6118c8565b73ffffffffffffffffffffffffffffffffffffffff161415610df3576040517f08c379a0000000000000000000000000000000000000000000000000000000008152600401610dea90612f5a565b60405180910390fd5b8060016000610e006118c8565b73ffffffffffffffffffffffffffffffffffffffff1673ffffffffffffffffffffffffffffffffffffffff16815260200190815260200160002060008473ffffffffffffffffffffffffffffffffffffffff1673ffffffffffffffffffffffffffffffffffffffff16815260200190815260200160002060006101000a81548160ff0219169083151502179055508173ffffffffffffffffffffffffffffffffffffffff16610ead6118c8565b73ffffffffffffffffffffffffffffffffffffffff167f17307eab39ab6107e8899845ad3d59bd9653f200f220920489ca2b5937696c3183604051610ef29190612da2565b60405180910390a35050565b6000600267ffffffffffffffff811115610f41577f4e487b7100000000000000000000000000000000000000000000000000000000600052604160045260246000fd5b604051908082528060200260200182016040528015610f6f5781602001602082028036833780820191505090505b5090506000600267ffffffffffffffff811115610fb5577f4e487b7100000000000000000000000000000000000000000000000000000000600052604160045260246000fd5b604051908082528060200260200182016040528015610fe35781602001602082028036833780820191505090505b50905060005b600281101561109b57600181610fff9190613148565b838281518110611038577f4e487b7100000000000000000000000000000000000000000000000000000000600052603260045260246000fd5b6020026020010181815250508382828151811061107e577f4e487b7100000000000000000000000000000000000000000000000000000000600052603260045260246000fd5b60200260200101818152505080611094906132c4565b9050610fe9565b50600360009054906101000a900473ffffffffffffffffffffffffffffffffffffffff1673ffffffffffffffffffffffffffffffffffffffff166323b872dd3330866040518463ffffffff1660e01b81526004016110fb93929190612c8f565b602060405180830381600087803b15801561111557600080fd5b505af1158015611129573d6000803e3d6000fd5b505050506040513d601f19601f8201168201806040525081019061114d919061243b565b61118c576040517f08c379a000000000000000000000000000000000000000000000000000000000815260040161118390612efa565b60405180910390fd5b6111a733838360405180602001604052806000815250611aa8565b505050565b6000600160008473ffffffffffffffffffffffffffffffffffffffff1673ffffffffffffffffffffffffffffffffffffffff16815260200190815260200160002060008373ffffffffffffffffffffffffffffffffffffffff1673ffffffffffffffffffffffffffffffffffffffff16815260200190815260200160002060009054906101000a900460ff16905092915050565b600073ffffffffffffffffffffffffffffffffffffffff168473ffffffffffffffffffffffffffffffffffffffff1614156112b0576040517f08c379a00000000000000000000000000000000000000000000000000000000081526004016112a790612eba565b60405180910390fd5b6112b86118c8565b73ffffffffffffffffffffffffffffffffffffffff168573ffffffffffffffffffffffffffffffffffffffff1614806112fe57506112fd856112f86118c8565b6111ac565b5b61133d576040517f08c379a000000000000000000000000000000000000000000000000000000000815260040161133490612e9a565b60405180910390fd5b60006113476118c8565b905061136781878761135888611d12565b61136188611d12565b876118d0565b600080600086815260200190815260200160002060008873ffffffffffffffffffffffffffffffffffffffff1673ffffffffffffffffffffffffffffffffffffffff168152602001908152602001600020549050838110156113fe576040517f08c379a00000000000000000000000000000000000000000000000000000000081526004016113f590612f3a565b60405180910390fd5b838161140a919061319e565b60008087815260200190815260200160002060008973ffffffffffffffffffffffffffffffffffffffff1673ffffffffffffffffffffffffffffffffffffffff168152602001908152602001600020819055508360008087815260200190815260200160002060008873ffffffffffffffffffffffffffffffffffffffff1673ffffffffffffffffffffffffffffffffffffffff16815260200190815260200160002060008282546114bc9190613148565b925050819055508573ffffffffffffffffffffffffffffffffffffffff168773ffffffffffffffffffffffffffffffffffffffff168373ffffffffffffffffffffffffffffffffffffffff167fc3d58168c5ae7397731d063d5bbf3d657854427343f4c083240f7aacaa2d0f628888604051611539929190612ff5565b60405180910390a461154f828888888888611dd8565b50505050505050565b60007f01ffc9a7000000000000000000000000000000000000000000000000000000007bffffffffffffffffffffffffffffffffffffffffffffffffffffffff1916827bffffffffffffffffffffffffffffffffffffffffffffffffffffffff1916149050919050565b600073ffffffffffffffffffffffffffffffffffffffff168373ffffffffffffffffffffffffffffffffffffffff161415611632576040517f08c379a000000000000000000000000000000000000000000000000000000000815260040161162990612f1a565b60405180910390fd5b8051825114611676576040517f08c379a000000000000000000000000000000000000000000000000000000000815260040161166d90612f9a565b60405180910390fd5b60006116806118c8565b90506116a0818560008686604051806020016040528060008152506118d0565b60005b83518110156118425760008482815181106116e7577f4e487b7100000000000000000000000000000000000000000000000000000000600052603260045260246000fd5b60200260200101519050600084838151811061172c577f4e487b7100000000000000000000000000000000000000000000000000000000600052603260045260246000fd5b60200260200101519050600080600084815260200190815260200160002060008973ffffffffffffffffffffffffffffffffffffffff1673ffffffffffffffffffffffffffffffffffffffff168152602001908152602001600020549050818110156117cd576040517f08c379a00000000000000000000000000000000000000000000000000000000081526004016117c490612e7a565b60405180910390fd5b81816117d9919061319e565b60008085815260200190815260200160002060008a73ffffffffffffffffffffffffffffffffffffffff1673ffffffffffffffffffffffffffffffffffffffff16815260200190815260200160002081905550505050808061183a906132c4565b9150506116a3565b50600073ffffffffffffffffffffffffffffffffffffffff168473ffffffffffffffffffffffffffffffffffffffff168273ffffffffffffffffffffffffffffffffffffffff167f4a39dc06d4c0dbc64b70af90fd698a233a518aa5d07e595d983b8c0526c8f7fb86866040516118ba929190612d6b565b60405180910390a450505050565b600033905090565b505050505050565b6118f78473ffffffffffffffffffffffffffffffffffffffff16611fa8565b15611aa0578373ffffffffffffffffffffffffffffffffffffffff1663bc197c8187878686866040518663ffffffff1660e01b815260040161193d959493929190612c27565b602060405180830381600087803b15801561195757600080fd5b505af192505050801561198857506040513d601f19601f82011682018060405250810190611985919061248d565b60015b611a17576119946133b8565b8061199f57506119dc565b806040517f08c379a00000000000000000000000000000000000000000000000000000000081526004016119d39190612dd8565b60405180910390fd5b6040517f08c379a0000000000000000000000000000000000000000000000000000000008152600401611a0e90612dfa565b60405180910390fd5b63bc197c8160e01b7bffffffffffffffffffffffffffffffffffffffffffffffffffffffff1916817bffffffffffffffffffffffffffffffffffffffffffffffffffffffff191614611a9e576040517f08c379a0000000000000000000000000000000000000000000000000000000008152600401611a9590612e1a565b60405180910390fd5b505b505050505050565b600073ffffffffffffffffffffffffffffffffffffffff168473ffffffffffffffffffffffffffffffffffffffff161415611b18576040517f08c379a0000000000000000000000000000000000000000000000000000000008152600401611b0f90612fba565b60405180910390fd5b8151835114611b5c576040517f08c379a0000000000000000000000000000000000000000000000000000000008152600401611b5390612f9a565b60405180910390fd5b6000611b666118c8565b9050611b77816000878787876118d0565b60005b8451811015611c7c57838181518110611bbc577f4e487b7100000000000000000000000000000000000000000000000000000000600052603260045260246000fd5b6020026020010151600080878481518110611c00577f4e487b7100000000000000000000000000000000000000000000000000000000600052603260045260246000fd5b6020026020010151815260200190815260200160002060008873ffffffffffffffffffffffffffffffffffffffff1673ffffffffffffffffffffffffffffffffffffffff1681526020019081526020016000206000828254611c629190613148565b925050819055508080611c74906132c4565b915050611b7a565b508473ffffffffffffffffffffffffffffffffffffffff16600073ffffffffffffffffffffffffffffffffffffffff168273ffffffffffffffffffffffffffffffffffffffff167f4a39dc06d4c0dbc64b70af90fd698a233a518aa5d07e595d983b8c0526c8f7fb8787604051611cf4929190612d6b565b60405180910390a4611d0b816000878787876118d8565b5050505050565b60606000600167ffffffffffffffff811115611d57577f4e487b7100000000000000000000000000000000000000000000000000000000600052604160045260246000fd5b604051908082528060200260200182016040528015611d855781602001602082028036833780820191505090505b5090508281600081518110611dc3577f4e487b7100000000000000000000000000000000000000000000000000000000600052603260045260246000fd5b60200260200101818152505080915050919050565b611df78473ffffffffffffffffffffffffffffffffffffffff16611fa8565b15611fa0578373ffffffffffffffffffffffffffffffffffffffff1663f23a6e6187878686866040518663ffffffff1660e01b8152600401611e3d959493929190612cc6565b602060405180830381600087803b158015611e5757600080fd5b505af1925050508015611e8857506040513d601f19601f82011682018060405250810190611e85919061248d565b60015b611f1757611e946133b8565b80611e9f5750611edc565b806040517f08c379a0000000000000000000000000000000000000000000000000000000008152600401611ed39190612dd8565b60405180910390fd5b6040517f08c379a0000000000000000000000000000000000000000000000000000000008152600401611f0e90612dfa565b60405180910390fd5b63f23a6e6160e01b7bffffffffffffffffffffffffffffffffffffffffffffffffffffffff1916817bffffffffffffffffffffffffffffffffffffffffffffffffffffffff191614611f9e576040517f08c379a0000000000000000000000000000000000000000000000000000000008152600401611f9590612e1a565b60405180910390fd5b505b505050505050565b600080823b905060008111915050919050565b6000611fce611fc98461304f565b61301e565b90508083825260208201905082856020860282011115611fed57600080fd5b60005b8581101561201d578161200388826120d1565b845260208401935060208301925050600181019050611ff0565b5050509392505050565b600061203a6120358461307b565b61301e565b9050808382526020820190508285602086028201111561205957600080fd5b60005b85811015612089578161206f88826121b8565b84526020840193506020830192505060018101905061205c565b5050509392505050565b60006120a66120a1846130a7565b61301e565b9050828152602081018484840111156120be57600080fd5b6120c9848285613250565b509392505050565b6000813590506120e08161346e565b92915050565b600082601f8301126120f757600080fd5b8135612107848260208601611fbb565b91505092915050565b600082601f83011261212157600080fd5b8135612131848260208601612027565b91505092915050565b60008135905061214981613485565b92915050565b60008151905061215e81613485565b92915050565b6000813590506121738161349c565b92915050565b6000815190506121888161349c565b92915050565b600082601f83011261219f57600080fd5b81356121af848260208601612093565b91505092915050565b6000813590506121c7816134b3565b92915050565b600080604083850312156121e057600080fd5b60006121ee858286016120d1565b92505060206121ff858286016120d1565b9150509250929050565b600080600080600060a0868803121561222157600080fd5b600061222f888289016120d1565b9550506020612240888289016120d1565b945050604086013567ffffffffffffffff81111561225d57600080fd5b61226988828901612110565b935050606086013567ffffffffffffffff81111561228657600080fd5b61229288828901612110565b925050608086013567ffffffffffffffff8111156122af57600080fd5b6122bb8882890161218e565b9150509295509295909350565b600080600080600060a086880312156122e057600080fd5b60006122ee888289016120d1565b95505060206122ff888289016120d1565b9450506040612310888289016121b8565b9350506060612321888289016121b8565b925050608086013567ffffffffffffffff81111561233e57600080fd5b61234a8882890161218e565b9150509295509295909350565b6000806040838503121561236a57600080fd5b6000612378858286016120d1565b92505060206123898582860161213a565b9150509250929050565b600080604083850312156123a657600080fd5b60006123b4858286016120d1565b92505060206123c5858286016121b8565b9150509250929050565b600080604083850312156123e257600080fd5b600083013567ffffffffffffffff8111156123fc57600080fd5b612408858286016120e6565b925050602083013567ffffffffffffffff81111561242557600080fd5b61243185828601612110565b9150509250929050565b60006020828403121561244d57600080fd5b600061245b8482850161214f565b91505092915050565b60006020828403121561247657600080fd5b600061248484828501612164565b91505092915050565b60006020828403121561249f57600080fd5b60006124ad84828501612179565b91505092915050565b6000602082840312156124c857600080fd5b60006124d6848285016121b8565b91505092915050565b60006124eb8383612bee565b60208301905092915050565b612500816131d2565b82525050565b6000612511826130e7565b61251b8185613115565b9350612526836130d7565b8060005b8381101561255757815161253e88826124df565b975061254983613108565b92505060018101905061252a565b5085935050505092915050565b61256d816131e4565b82525050565b61257c816131f0565b82525050565b600061258d826130f2565b6125978185613126565b93506125a781856020860161325f565b6125b08161339a565b840191505092915050565b60006125c6826130fd565b6125d08185613137565b93506125e081856020860161325f565b6125e98161339a565b840191505092915050565b6000612601603483613137565b91507f455243313135353a207472616e7366657220746f206e6f6e204552433131353560008301527f526563656976657220696d706c656d656e7465720000000000000000000000006020830152604082019050919050565b6000612667602883613137565b91507f455243313135353a204552433131353552656365697665722072656a6563746560008301527f6420746f6b656e730000000000000000000000000000000000000000000000006020830152604082019050919050565b60006126cd602483613137565b91507f636f756c64206e6f74207472616e7366657220636f6c6c61746572616c20746f60008301527f6b656e73000000000000000000000000000000000000000000000000000000006020830152604082019050919050565b6000612733602b83613137565b91507f455243313135353a2062616c616e636520717565727920666f7220746865207a60008301527f65726f20616464726573730000000000000000000000000000000000000000006020830152604082019050919050565b6000612799602483613137565b91507f455243313135353a206275726e20616d6f756e7420657863656564732062616c60008301527f616e6365000000000000000000000000000000000000000000000000000000006020830152604082019050919050565b60006127ff602983613137565b91507f455243313135353a2063616c6c6572206973206e6f74206f776e6572206e6f7260008301527f20617070726f76656400000000000000000000000000000000000000000000006020830152604082019050919050565b6000612865602583613137565b91507f455243313135353a207472616e7366657220746f20746865207a65726f20616460008301527f64726573730000000000000000000000000000000000000000000000000000006020830152604082019050919050565b60006128cb603283613137565b91507f455243313135353a207472616e736665722063616c6c6572206973206e6f742060008301527f6f776e6572206e6f7220617070726f76656400000000000000000000000000006020830152604082019050919050565b6000612931602383613137565b91507f636f756c64206e6f74207265636569766520636f6c6c61746572616c20746f6b60008301527f656e7300000000000000000000000000000000000000000000000000000000006020830152604082019050919050565b6000612997602383613137565b91507f455243313135353a206275726e2066726f6d20746865207a65726f206164647260008301527f65737300000000000000000000000000000000000000000000000000000000006020830152604082019050919050565b60006129fd602a83613137565b91507f455243313135353a20696e73756666696369656e742062616c616e636520666f60008301527f72207472616e73666572000000000000000000000000000000000000000000006020830152604082019050919050565b6000612a63602983613137565b91507f455243313135353a2073657474696e6720617070726f76616c2073746174757360008301527f20666f722073656c6600000000000000000000000000000000000000000000006020830152604082019050919050565b6000612ac9602983613137565b91507f455243313135353a206163636f756e747320616e6420696473206c656e67746860008301527f206d69736d6174636800000000000000000000000000000000000000000000006020830152604082019050919050565b6000612b2f602883613137565b91507f455243313135353a2069647320616e6420616d6f756e7473206c656e6774682060008301527f6d69736d617463680000000000000000000000000000000000000000000000006020830152604082019050919050565b6000612b95602183613137565b91507f455243313135353a206d696e7420746f20746865207a65726f2061646472657360008301527f73000000000000000000000000000000000000000000000000000000000000006020830152604082019050919050565b612bf781613246565b82525050565b612c0681613246565b82525050565b6000602082019050612c2160008301846124f7565b92915050565b600060a082019050612c3c60008301886124f7565b612c4960208301876124f7565b8181036040830152612c5b8186612506565b90508181036060830152612c6f8185612506565b90508181036080830152612c838184612582565b90509695505050505050565b6000606082019050612ca460008301866124f7565b612cb160208301856124f7565b612cbe6040830184612bfd565b949350505050565b600060a082019050612cdb60008301886124f7565b612ce860208301876124f7565b612cf56040830186612bfd565b612d026060830185612bfd565b8181036080830152612d148184612582565b90509695505050505050565b6000604082019050612d3560008301856124f7565b612d426020830184612bfd565b9392505050565b60006020820190508181036000830152612d638184612506565b905092915050565b60006040820190508181036000830152612d858185612506565b90508181036020830152612d998184612506565b90509392505050565b6000602082019050612db76000830184612564565b92915050565b6000602082019050612dd26000830184612573565b92915050565b60006020820190508181036000830152612df281846125bb565b905092915050565b60006020820190508181036000830152612e13816125f4565b9050919050565b60006020820190508181036000830152612e338161265a565b9050919050565b60006020820190508181036000830152612e53816126c0565b9050919050565b60006020820190508181036000830152612e7381612726565b9050919050565b60006020820190508181036000830152612e938161278c565b9050919050565b60006020820190508181036000830152612eb3816127f2565b9050919050565b60006020820190508181036000830152612ed381612858565b9050919050565b60006020820190508181036000830152612ef3816128be565b9050919050565b60006020820190508181036000830152612f1381612924565b9050919050565b60006020820190508181036000830152612f338161298a565b9050919050565b60006020820190508181036000830152612f53816129f0565b9050919050565b60006020820190508181036000830152612f7381612a56565b9050919050565b60006020820190508181036000830152612f9381612abc565b9050919050565b60006020820190508181036000830152612fb381612b22565b9050919050565b60006020820190508181036000830152612fd381612b88565b9050919050565b6000602082019050612fef6000830184612bfd565b92915050565b600060408201905061300a6000830185612bfd565b6130176020830184612bfd565b9392505050565b6000604051905081810181811067ffffffffffffffff821117156130455761304461336b565b5b8060405250919050565b600067ffffffffffffffff82111561306a5761306961336b565b5b602082029050602081019050919050565b600067ffffffffffffffff8211156130965761309561336b565b5b602082029050602081019050919050565b600067ffffffffffffffff8211156130c2576130c161336b565b5b601f19601f8301169050602081019050919050565b6000819050602082019050919050565b600081519050919050565b600081519050919050565b600081519050919050565b6000602082019050919050565b600082825260208201905092915050565b600082825260208201905092915050565b600082825260208201905092915050565b600061315382613246565b915061315e83613246565b9250827fffffffffffffffffffffffffffffffffffffffffffffffffffffffffffffffff038211156131935761319261330d565b5b828201905092915050565b60006131a982613246565b91506131b483613246565b9250828210156131c7576131c661330d565b5b828203905092915050565b60006131dd82613226565b9050919050565b60008115159050919050565b6000819050919050565b60007fffffffff0000000000000000000000000000000000000000000000000000000082169050919050565b600073ffffffffffffffffffffffffffffffffffffffff82169050919050565b6000819050919050565b82818337600083830152505050565b60005b8381101561327d578082015181840152602081019050613262565b8381111561328c576000848401525b50505050565b600060028204905060018216806132aa57607f821691505b602082108114156132be576132bd61333c565b5b50919050565b60006132cf82613246565b91507fffffffffffffffffffffffffffffffffffffffffffffffffffffffffffffffff8214156133025761330161330d565b5b600182019050919050565b7f4e487b7100000000000000000000000000000000000000000000000000000000600052601160045260246000fd5b7f4e487b7100000000000000000000000000000000000000000000000000000000600052602260045260246000fd5b7f4e487b7100000000000000000000000000000000000000000000000000000000600052604160045260246000fd5b6000601f19601f8301169050919050565b60008160e01c9050919050565b600060443d10156133c85761346b565b60046000803e6133d96000516133ab565b6308c379a081146133ea575061346b565b60405160043d036004823e80513d602482011167ffffffffffffffff821117156134165750505061346b565b808201805167ffffffffffffffff81111561343557505050505061346b565b8060208301013d85018111156134505750505050505061346b565b6134598261339a565b60208401016040528296505050505050505b90565b613477816131d2565b811461348257600080fd5b50565b61348e816131e4565b811461349957600080fd5b50565b6134a5816131fa565b81146134b057600080fd5b50565b6134bc81613246565b81146134c757600080fd5b5056fea2646970667358221220ab0ed2099e48c2157fd6598f11cb971e7d43a31312a25cf7c515c8c491a4aa4a64736f6c63430008000033",
  "immutableReferences": {},
  "source": "// SPDX-License-Identifier: MIT\npragma solidity ^0.8.0;\n\nimport \"@openzeppelin/contracts/token/ERC1155/ERC1155.sol\";\nimport \"@openzeppelin/contracts/token/ERC20/IERC20.sol\";\n\ncontract Prediction is ERC1155(\"FREE\") {\n    address public coin;\n    address public oracle; \n    bytes32 public identifier;  \n\n\n    constructor (address _coin) {\n        coin = _coin;\n        oracle = msg.sender;  \n        identifier = keccak256(abi.encodePacked(oracle, \"Heads or Tails\", uint(2)));\n    }\n\n    function buySet(uint _amount) public {\n        uint[] memory positionIds = new uint[](uint(2));\n        uint[] memory amounts = new uint[](uint(2));\n\n        for (uint i = 0; i < uint(2); ++i) {\n            positionIds[i] = i+1; \n            amounts[i] = _amount;\n        }\n\n        require(IERC20(coin).transferFrom(msg.sender, address(this), _amount), \"could not receive collateral tokens\");\n        _mintBatch(\n            msg.sender,\n            positionIds,\n            amounts,\n            \"\"\n        );\n    }\n\n    function sellSet(uint _amount) public {\n        uint[] memory positionIds = new uint[](uint(2));\n        uint[] memory amounts = new uint[](uint(2));\n\n        for (uint i = 0; i < uint(2); ++i) {\n            positionIds[i] = i+1; \n            amounts[i] = _amount;\n        }\n\n        _burnBatch(\n            msg.sender,\n            positionIds,\n            amounts\n        );\n        require(IERC20(coin).transfer(msg.sender, _amount), \"could not transfer collateral tokens\");\n    }\n}",
  "sourcePath": "/Users/kylescott/src/simple_prediction/contracts/Prediction.sol",
  "compiler": {
    "name": "solc",
    "version": "0.8.0+commit.c7dfd78e.Emscripten.clang"
  },
  "schemaVersion": "3.2.4",
  "updatedAt": "2021-04-18T15:57:21.398Z",
  "devdoc": {
    "kind": "dev",
    "methods": {
      "balanceOf(address,uint256)": {
        "details": "See {IERC1155-balanceOf}. Requirements: - `account` cannot be the zero address."
      },
      "balanceOfBatch(address[],uint256[])": {
        "details": "See {IERC1155-balanceOfBatch}. Requirements: - `accounts` and `ids` must have the same length."
      },
      "isApprovedForAll(address,address)": {
        "details": "See {IERC1155-isApprovedForAll}."
      },
      "safeBatchTransferFrom(address,address,uint256[],uint256[],bytes)": {
        "details": "See {IERC1155-safeBatchTransferFrom}."
      },
      "safeTransferFrom(address,address,uint256,uint256,bytes)": {
        "details": "See {IERC1155-safeTransferFrom}."
      },
      "setApprovalForAll(address,bool)": {
        "details": "See {IERC1155-setApprovalForAll}."
      },
      "supportsInterface(bytes4)": {
        "details": "See {IERC165-supportsInterface}."
      },
      "uri(uint256)": {
        "details": "See {IERC1155MetadataURI-uri}. This implementation returns the same URI for *all* token types. It relies on the token type ID substitution mechanism https://eips.ethereum.org/EIPS/eip-1155#metadata[defined in the EIP]. Clients calling this function must replace the `\\{id\\}` substring with the actual token type ID."
      }
    },
    "version": 1
  },
  "userdoc": {
    "kind": "user",
    "methods": {},
    "version": 1
  }
}