{
  "contractName": "Prediction",
  "abi": [
    {
      "inputs": [
        {
          "internalType": "address",
          "name": "_coin",
          "type": "address"
        }
      ],
      "stateMutability": "nonpayable",
      "type": "constructor"
    },
    {
      "anonymous": false,
      "inputs": [
        {
          "indexed": true,
          "internalType": "address",
          "name": "account",
          "type": "address"
        },
        {
          "indexed": true,
          "internalType": "address",
          "name": "operator",
          "type": "address"
        },
        {
          "indexed": false,
          "internalType": "bool",
          "name": "approved",
          "type": "bool"
        }
      ],
      "name": "ApprovalForAll",
      "type": "event"
    },
    {
      "anonymous": false,
      "inputs": [
        {
          "indexed": true,
          "internalType": "address",
          "name": "operator",
          "type": "address"
        },
        {
          "indexed": true,
          "internalType": "address",
          "name": "from",
          "type": "address"
        },
        {
          "indexed": true,
          "internalType": "address",
          "name": "to",
          "type": "address"
        },
        {
          "indexed": false,
          "internalType": "uint256[]",
          "name": "ids",
          "type": "uint256[]"
        },
        {
          "indexed": false,
          "internalType": "uint256[]",
          "name": "values",
          "type": "uint256[]"
        }
      ],
      "name": "TransferBatch",
      "type": "event"
    },
    {
      "anonymous": false,
      "inputs": [
        {
          "indexed": true,
          "internalType": "address",
          "name": "operator",
          "type": "address"
        },
        {
          "indexed": true,
          "internalType": "address",
          "name": "from",
          "type": "address"
        },
        {
          "indexed": true,
          "internalType": "address",
          "name": "to",
          "type": "address"
        },
        {
          "indexed": false,
          "internalType": "uint256",
          "name": "id",
          "type": "uint256"
        },
        {
          "indexed": false,
          "internalType": "uint256",
          "name": "value",
          "type": "uint256"
        }
      ],
      "name": "TransferSingle",
      "type": "event"
    },
    {
      "anonymous": false,
      "inputs": [
        {
          "indexed": false,
          "internalType": "string",
          "name": "value",
          "type": "string"
        },
        {
          "indexed": true,
          "internalType": "uint256",
          "name": "id",
          "type": "uint256"
        }
      ],
      "name": "URI",
      "type": "event"
    },
    {
      "inputs": [],
      "name": "b",
      "outputs": [
        {
          "internalType": "uint256",
          "name": "",
          "type": "uint256"
        }
      ],
      "stateMutability": "view",
      "type": "function"
    },
    {
      "inputs": [
        {
          "internalType": "address",
          "name": "account",
          "type": "address"
        },
        {
          "internalType": "uint256",
          "name": "id",
          "type": "uint256"
        }
      ],
      "name": "balanceOf",
      "outputs": [
        {
          "internalType": "uint256",
          "name": "",
          "type": "uint256"
        }
      ],
      "stateMutability": "view",
      "type": "function"
    },
    {
      "inputs": [
        {
          "internalType": "address[]",
          "name": "accounts",
          "type": "address[]"
        },
        {
          "internalType": "uint256[]",
          "name": "ids",
          "type": "uint256[]"
        }
      ],
      "name": "balanceOfBatch",
      "outputs": [
        {
          "internalType": "uint256[]",
          "name": "",
          "type": "uint256[]"
        }
      ],
      "stateMutability": "view",
      "type": "function"
    },
    {
      "inputs": [],
      "name": "coin",
      "outputs": [
        {
          "internalType": "address",
          "name": "",
          "type": "address"
        }
      ],
      "stateMutability": "view",
      "type": "function"
    },
    {
      "inputs": [],
      "name": "identifier",
      "outputs": [
        {
          "internalType": "bytes32",
          "name": "",
          "type": "bytes32"
        }
      ],
      "stateMutability": "view",
      "type": "function"
    },
    {
      "inputs": [
        {
          "internalType": "address",
          "name": "account",
          "type": "address"
        },
        {
          "internalType": "address",
          "name": "operator",
          "type": "address"
        }
      ],
      "name": "isApprovedForAll",
      "outputs": [
        {
          "internalType": "bool",
          "name": "",
          "type": "bool"
        }
      ],
      "stateMutability": "view",
      "type": "function"
    },
    {
      "inputs": [],
      "name": "mints",
      "outputs": [
        {
          "internalType": "uint256",
          "name": "",
          "type": "uint256"
        }
      ],
      "stateMutability": "view",
      "type": "function"
    },
    {
      "inputs": [],
      "name": "oracle",
      "outputs": [
        {
          "internalType": "address",
          "name": "",
          "type": "address"
        }
      ],
      "stateMutability": "view",
      "type": "function"
    },
    {
      "inputs": [
        {
          "internalType": "address",
          "name": "from",
          "type": "address"
        },
        {
          "internalType": "address",
          "name": "to",
          "type": "address"
        },
        {
          "internalType": "uint256[]",
          "name": "ids",
          "type": "uint256[]"
        },
        {
          "internalType": "uint256[]",
          "name": "amounts",
          "type": "uint256[]"
        },
        {
          "internalType": "bytes",
          "name": "data",
          "type": "bytes"
        }
      ],
      "name": "safeBatchTransferFrom",
      "outputs": [],
      "stateMutability": "nonpayable",
      "type": "function"
    },
    {
      "inputs": [
        {
          "internalType": "address",
          "name": "from",
          "type": "address"
        },
        {
          "internalType": "address",
          "name": "to",
          "type": "address"
        },
        {
          "internalType": "uint256",
          "name": "id",
          "type": "uint256"
        },
        {
          "internalType": "uint256",
          "name": "amount",
          "type": "uint256"
        },
        {
          "internalType": "bytes",
          "name": "data",
          "type": "bytes"
        }
      ],
      "name": "safeTransferFrom",
      "outputs": [],
      "stateMutability": "nonpayable",
      "type": "function"
    },
    {
      "inputs": [
        {
          "internalType": "address",
          "name": "operator",
          "type": "address"
        },
        {
          "internalType": "bool",
          "name": "approved",
          "type": "bool"
        }
      ],
      "name": "setApprovalForAll",
      "outputs": [],
      "stateMutability": "nonpayable",
      "type": "function"
    },
    {
      "inputs": [
        {
          "internalType": "bytes4",
          "name": "interfaceId",
          "type": "bytes4"
        }
      ],
      "name": "supportsInterface",
      "outputs": [
        {
          "internalType": "bool",
          "name": "",
          "type": "bool"
        }
      ],
      "stateMutability": "view",
      "type": "function"
    },
    {
      "inputs": [
        {
          "internalType": "uint256",
          "name": "",
          "type": "uint256"
        }
      ],
      "name": "uri",
      "outputs": [
        {
          "internalType": "string",
          "name": "",
          "type": "string"
        }
      ],
      "stateMutability": "view",
      "type": "function"
    },
    {
      "inputs": [
        {
          "internalType": "uint256",
          "name": "_amount",
          "type": "uint256"
        }
      ],
      "name": "buySet",
      "outputs": [],
      "stateMutability": "nonpayable",
      "type": "function"
    },
    {
      "inputs": [
        {
          "internalType": "uint256",
          "name": "_amount",
          "type": "uint256"
        }
      ],
      "name": "sellSet",
      "outputs": [],
      "stateMutability": "nonpayable",
      "type": "function"
    },
    {
      "inputs": [
        {
          "internalType": "uint256",
          "name": "_id",
          "type": "uint256"
        }
      ],
      "name": "getState",
      "outputs": [
        {
          "internalType": "uint256",
          "name": "_contractAmount",
          "type": "uint256"
        },
        {
          "internalType": "uint256",
          "name": "_reserveAmount",
          "type": "uint256"
        }
      ],
      "stateMutability": "view",
      "type": "function"
    },
    {
      "inputs": [
        {
          "internalType": "uint256",
          "name": "_amount",
          "type": "uint256"
        },
        {
          "internalType": "uint256",
          "name": "_id",
          "type": "uint256"
        }
      ],
      "name": "buyContract",
      "outputs": [],
      "stateMutability": "nonpayable",
      "type": "function"
    },
    {
      "inputs": [
        {
          "internalType": "uint256",
          "name": "_amount",
          "type": "uint256"
        },
        {
          "internalType": "uint256",
          "name": "_id",
          "type": "uint256"
        }
      ],
      "name": "sellContract",
      "outputs": [],
      "stateMutability": "nonpayable",
      "type": "function"
    },
    {
      "inputs": [
        {
          "internalType": "uint256",
          "name": "_amount",
          "type": "uint256"
        }
      ],
      "name": "addLiquidity",
      "outputs": [],
      "stateMutability": "nonpayable",
      "type": "function"
    },
    {
      "inputs": [
        {
          "internalType": "uint256",
          "name": "_amount",
          "type": "uint256"
        }
      ],
      "name": "removeLiquidity",
      "outputs": [],
      "stateMutability": "nonpayable",
      "type": "function"
    }
  ],
  "bytecode": "0x60806040523480156200001157600080fd5b506040516200583f3803806200583f8339818101604052810190620000379190620002c1565b6040518060400160405280600481526020017f46524545000000000000000000000000000000000000000000000000000000008152506200007e816200019460201b60201c565b5080600360006101000a81548173ffffffffffffffffffffffffffffffffffffffff021916908373ffffffffffffffffffffffffffffffffffffffff16021790555033600460006101000a81548173ffffffffffffffffffffffffffffffffffffffff021916908373ffffffffffffffffffffffffffffffffffffffff160217905550600460009054906101000a900473ffffffffffffffffffffffffffffffffffffffff1660026040516020016200013992919062000365565b604051602081830303815290604052805190602001206005819055506040518060400160405280600160ff168152602001600160ff16815250600990600262000184929190620001b0565b506002600b8190555050620004a9565b8060029080519060200190620001ac929190620001fa565b5050565b8260028101928215620001e7579160200282015b82811115620001e6578251829060ff16905591602001919060010190620001c4565b5b509050620001f691906200028b565b5090565b8280546200020890620003eb565b90600052602060002090601f0160209004810192826200022c576000855562000278565b82601f106200024757805160ff191683800117855562000278565b8280016001018555821562000278579182015b82811115620002775782518255916020019190600101906200025a565b5b5090506200028791906200028b565b5090565b5b80821115620002a65760008160009055506001016200028c565b5090565b600081519050620002bb816200048f565b92915050565b600060208284031215620002d457600080fd5b6000620002e484828501620002aa565b91505092915050565b62000302620002fc82620003ad565b62000421565b82525050565b600062000317600e83620003a2565b91507f4865616473206f72205461696c730000000000000000000000000000000000006000830152600e82019050919050565b6200035f6200035982620003e1565b62000449565b82525050565b6000620003738285620002ed565b601482019150620003848262000308565b91506200039282846200034a565b6020820191508190509392505050565b600081905092915050565b6000620003ba82620003c1565b9050919050565b600073ffffffffffffffffffffffffffffffffffffffff82169050919050565b6000819050919050565b600060028204905060018216806200040457607f821691505b602082108114156200041b576200041a62000453565b5b50919050565b60006200042e8262000435565b9050919050565b6000620004428262000482565b9050919050565b6000819050919050565b7f4e487b7100000000000000000000000000000000000000000000000000000000600052602260045260246000fd5b60008160601b9050919050565b6200049a81620003ad565b8114620004a657600080fd5b50565b61538680620004b96000396000f3fe608060405234801561001057600080fd5b506004361061012b5760003560e01c806351c6590a116100ad578063d3db815f11610071578063d3db815f14610341578063dfc7379d1461035d578063e96b67f31461037b578063e985e9c514610397578063f242432a146103c75761012b565b806351c6590a146102b15780637998a1c4146102cd5780637dc0d1d0146102eb5780639c8f9f2314610309578063a22cb465146103255761012b565b806311df9995116100f457806311df9995146101f85780632eb2c2d61461021657806344c9af28146102325780634df7e3d0146102635780634e1273f4146102815761012b565b8062fdd58e1461013057806301ffc9a7146101605780630376042b146101905780630db680f6146101ac5780630e89341c146101c8575b600080fd5b61014a60048036038101906101459190613ccb565b6103e3565b6040516101579190614da6565b60405180910390f35b61017a60048036038101906101759190613d9c565b6104ac565b6040516101879190614a2e565b60405180910390f35b6101aa60048036038101906101a59190613dee565b61058e565b005b6101c660048036038101906101c19190613e17565b610860565b005b6101e260048036038101906101dd9190613dee565b61086e565b6040516101ef9190614a64565b60405180910390f35b610200610902565b60405161020d9190614898565b60405180910390f35b610230600480360381019061022b9190613b41565b610928565b005b61024c60048036038101906102479190613dee565b610d1e565b60405161025a929190614dc1565b60405180910390f35b61026b610dc6565b6040516102789190614da6565b60405180910390f35b61029b60048036038101906102969190613d07565b610dcc565b6040516102a891906149d5565b60405180910390f35b6102cb60048036038101906102c69190613dee565b610f7d565b005b6102d5611548565b6040516102e29190614a49565b60405180910390f35b6102f361154e565b6040516103009190614898565b60405180910390f35b610323600480360381019061031e9190613dee565b611574565b005b61033f600480360381019061033a9190613c8f565b611907565b005b61035b60048036038101906103569190613e17565b611a88565b005b610365611a96565b6040516103729190614da6565b60405180910390f35b61039560048036038101906103909190613dee565b611a9c565b005b6103b160048036038101906103ac9190613b05565b611d80565b6040516103be9190614a2e565b60405180910390f35b6103e160048036038101906103dc9190613c00565b611e14565b005b60008073ffffffffffffffffffffffffffffffffffffffff168373ffffffffffffffffffffffffffffffffffffffff161415610454576040517f08c379a000000000000000000000000000000000000000000000000000000000815260040161044b90614b46565b60405180910390fd5b60008083815260200190815260200160002060008473ffffffffffffffffffffffffffffffffffffffff1673ffffffffffffffffffffffffffffffffffffffff16815260200190815260200160002054905092915050565b60007fd9b67a26000000000000000000000000000000000000000000000000000000007bffffffffffffffffffffffffffffffffffffffffffffffffffffffff1916827bffffffffffffffffffffffffffffffffffffffffffffffffffffffff1916148061057757507f0e89341c000000000000000000000000000000000000000000000000000000007bffffffffffffffffffffffffffffffffffffffffffffffffffffffff1916827bffffffffffffffffffffffffffffffffffffffffffffffffffffffff1916145b8061058757506105868261212c565b5b9050919050565b6000600267ffffffffffffffff8111156105d1577f4e487b7100000000000000000000000000000000000000000000000000000000600052604160045260246000fd5b6040519080825280602002602001820160405280156105ff5781602001602082028036833780820191505090505b5090506000600267ffffffffffffffff811115610645577f4e487b7100000000000000000000000000000000000000000000000000000000600052604160045260246000fd5b6040519080825280602002602001820160405280156106735781602001602082028036833780820191505090505b50905060005b600281101561072b5760018161068f9190614f14565b8382815181106106c8577f4e487b7100000000000000000000000000000000000000000000000000000000600052603260045260246000fd5b6020026020010181815250508382828151811061070e577f4e487b7100000000000000000000000000000000000000000000000000000000600052603260045260246000fd5b602002602001018181525050806107249061511b565b9050610679565b50610737338383612196565b600360009054906101000a900473ffffffffffffffffffffffffffffffffffffffff1673ffffffffffffffffffffffffffffffffffffffff1663a9059cbb33856040518363ffffffff1660e01b81526004016107949291906149ac565b602060405180830381600087803b1580156107ae57600080fd5b505af11580156107c2573d6000803e3d6000fd5b505050506040513d601f19601f820116820180604052508101906107e69190613d73565b610825576040517f08c379a000000000000000000000000000000000000000000000000000000000815260040161081c90614b06565b60405180910390fd5b61083a8360075461249c90919063ffffffff16565b6007819055506108558360085461249c90919063ffffffff16565b600881905550505050565b61086a82826124f5565b5050565b60606002805461087d906150e9565b80601f01602080910402602001604051908101604052809291908181526020018280546108a9906150e9565b80156108f65780601f106108cb576101008083540402835291602001916108f6565b820191906000526020600020905b8154815290600101906020018083116108d957829003601f168201915b50505050509050919050565b600360009054906101000a900473ffffffffffffffffffffffffffffffffffffffff1681565b815183511461096c576040517f08c379a000000000000000000000000000000000000000000000000000000000815260040161096390614d46565b60405180910390fd5b600073ffffffffffffffffffffffffffffffffffffffff168473ffffffffffffffffffffffffffffffffffffffff1614156109dc576040517f08c379a00000000000000000000000000000000000000000000000000000000081526004016109d390614c26565b60405180910390fd5b6109e4612861565b73ffffffffffffffffffffffffffffffffffffffff168573ffffffffffffffffffffffffffffffffffffffff161480610a2a5750610a2985610a24612861565b611d80565b5b610a69576040517f08c379a0000000000000000000000000000000000000000000000000000000008152600401610a6090614c46565b60405180910390fd5b6000610a73612861565b9050610a83818787878787612869565b60005b8451811015610c89576000858281518110610aca577f4e487b7100000000000000000000000000000000000000000000000000000000600052603260045260246000fd5b602002602001015190506000858381518110610b0f577f4e487b7100000000000000000000000000000000000000000000000000000000600052603260045260246000fd5b60200260200101519050600080600084815260200190815260200160002060008b73ffffffffffffffffffffffffffffffffffffffff1673ffffffffffffffffffffffffffffffffffffffff16815260200190815260200160002054905081811015610bb0576040517f08c379a0000000000000000000000000000000000000000000000000000000008152600401610ba790614cc6565b60405180910390fd5b8181610bbc9190614ff5565b60008085815260200190815260200160002060008c73ffffffffffffffffffffffffffffffffffffffff1673ffffffffffffffffffffffffffffffffffffffff168152602001908152602001600020819055508160008085815260200190815260200160002060008b73ffffffffffffffffffffffffffffffffffffffff1673ffffffffffffffffffffffffffffffffffffffff1681526020019081526020016000206000828254610c6e9190614f14565b9250508190555050505080610c829061511b565b9050610a86565b508473ffffffffffffffffffffffffffffffffffffffff168673ffffffffffffffffffffffffffffffffffffffff168273ffffffffffffffffffffffffffffffffffffffff167f4a39dc06d4c0dbc64b70af90fd698a233a518aa5d07e595d983b8c0526c8f7fb8787604051610d009291906149f7565b60405180910390a4610d16818787878787612871565b505050505050565b60008060066000848152602001908152602001600020600060028110610d6d577f4e487b7100000000000000000000000000000000000000000000000000000000600052603260045260246000fd5b015460066000858152602001908152602001600020600160028110610dbb577f4e487b7100000000000000000000000000000000000000000000000000000000600052603260045260246000fd5b015491509150915091565b60075481565b60608151835114610e12576040517f08c379a0000000000000000000000000000000000000000000000000000000008152600401610e0990614d06565b60405180910390fd5b6000835167ffffffffffffffff811115610e55577f4e487b7100000000000000000000000000000000000000000000000000000000600052604160045260246000fd5b604051908082528060200260200182016040528015610e835781602001602082028036833780820191505090505b50905060005b8451811015610f7257610f1c858281518110610ece577f4e487b7100000000000000000000000000000000000000000000000000000000600052603260045260246000fd5b6020026020010151858381518110610f0f577f4e487b7100000000000000000000000000000000000000000000000000000000600052603260045260246000fd5b60200260200101516103e3565b828281518110610f55577f4e487b7100000000000000000000000000000000000000000000000000000000600052603260045260246000fd5b60200260200101818152505080610f6b9061511b565b9050610e89565b508091505092915050565b600360009054906101000a900473ffffffffffffffffffffffffffffffffffffffff1673ffffffffffffffffffffffffffffffffffffffff166323b872dd3330846040518463ffffffff1660e01b8152600401610fdc9392919061491b565b602060405180830381600087803b158015610ff657600080fd5b505af115801561100a573d6000803e3d6000fd5b505050506040513d601f19601f8201168201806040525081019061102e9190613d73565b61106d576040517f08c379a000000000000000000000000000000000000000000000000000000000815260040161106490614b26565b60405180910390fd5b6000600b541461128e5760005b600281101561128057611149600b546110d7600984600281106110c6577f4e487b7100000000000000000000000000000000000000000000000000000000600052603260045260246000fd5b015485612a4190919063ffffffff16565b6110e19190614f6a565b600660006001856110f29190614f14565b8152602001908152602001600020600160028110611139577f4e487b7100000000000000000000000000000000000000000000000000000000600052603260045260246000fd5b0154612aae90919063ffffffff16565b6006600060018461115a9190614f14565b81526020019081526020016000206001600281106111a1577f4e487b7100000000000000000000000000000000000000000000000000000000600052603260045260246000fd5b018190555061121282600660006001856111bb9190614f14565b8152602001908152602001600020600060028110611202577f4e487b7100000000000000000000000000000000000000000000000000000000600052603260045260246000fd5b0154612aae90919063ffffffff16565b600660006001846112239190614f14565b815260200190815260200160002060006002811061126a577f4e487b7100000000000000000000000000000000000000000000000000000000600052603260045260246000fd5b0181905550806112799061511b565b905061107a565b506000600b8190555061150e565b60005b600281101561150c576113d561136d600660006001856112b19190614f14565b81526020019081526020016000206000600281106112f8577f4e487b7100000000000000000000000000000000000000000000000000000000600052603260045260246000fd5b01546006600060018661130b9190614f14565b8152602001908152602001600020600160028110611352577f4e487b7100000000000000000000000000000000000000000000000000000000600052603260045260246000fd5b015461135e9190614f6a565b84612a4190919063ffffffff16565b6006600060018561137e9190614f14565b81526020019081526020016000206001600281106113c5577f4e487b7100000000000000000000000000000000000000000000000000000000600052603260045260246000fd5b0154612aae90919063ffffffff16565b600660006001846113e69190614f14565b815260200190815260200160002060016002811061142d577f4e487b7100000000000000000000000000000000000000000000000000000000600052603260045260246000fd5b018190555061149e82600660006001856114479190614f14565b815260200190815260200160002060006002811061148e577f4e487b7100000000000000000000000000000000000000000000000000000000600052603260045260246000fd5b0154612aae90919063ffffffff16565b600660006001846114af9190614f14565b81526020019081526020016000206000600281106114f6577f4e487b7100000000000000000000000000000000000000000000000000000000600052603260045260246000fd5b0181905550806115059061511b565b9050611291565b505b61152a3360008360405180602001604052806000815250612b07565b61153f81600854612aae90919063ffffffff16565b60088190555050565b60055481565b600460009054906101000a900473ffffffffffffffffffffffffffffffffffffffff1681565b60006115813360006103e3565b116115c1576040517f08c379a00000000000000000000000000000000000000000000000000000000081526004016115b890614ae6565b60405180910390fd5b60005b60028110156117b2576008546116506115e88460085461249c90919063ffffffff16565b600660006001866115f99190614f14565b8152602001908152602001600020600060028110611640577f4e487b7100000000000000000000000000000000000000000000000000000000600052603260045260246000fd5b0154612a4190919063ffffffff16565b61165a9190614f6a565b6006600060018461166b9190614f14565b81526020019081526020016000206000600281106116b2577f4e487b7100000000000000000000000000000000000000000000000000000000600052603260045260246000fd5b018190555060085461173a6116d28460085461249c90919063ffffffff16565b600660006001866116e39190614f14565b815260200190815260200160002060016002811061172a577f4e487b7100000000000000000000000000000000000000000000000000000000600052603260045260246000fd5b0154612a4190919063ffffffff16565b6117449190614f6a565b600660006001846117559190614f14565b815260200190815260200160002060016002811061179c577f4e487b7100000000000000000000000000000000000000000000000000000000600052603260045260246000fd5b0181905550806117ab9061511b565b90506115c4565b506008546117df6117ce8360085461249c90919063ffffffff16565b600754612a4190919063ffffffff16565b6117e99190614f6a565b600781905550600360009054906101000a900473ffffffffffffffffffffffffffffffffffffffff1673ffffffffffffffffffffffffffffffffffffffff1663a9059cbb33836040518363ffffffff1660e01b815260040161184c9291906149ac565b602060405180830381600087803b15801561186657600080fd5b505af115801561187a573d6000803e3d6000fd5b505050506040513d601f19601f8201168201806040525081019061189e9190613d73565b6118dd576040517f08c379a00000000000000000000000000000000000000000000000000000000081526004016118d490614b06565b60405180910390fd5b6118e933600083612c9d565b6118fe8160085461249c90919063ffffffff16565b60088190555050565b8173ffffffffffffffffffffffffffffffffffffffff16611926612861565b73ffffffffffffffffffffffffffffffffffffffff16141561197d576040517f08c379a000000000000000000000000000000000000000000000000000000000815260040161197490614ce6565b60405180910390fd5b806001600061198a612861565b73ffffffffffffffffffffffffffffffffffffffff1673ffffffffffffffffffffffffffffffffffffffff16815260200190815260200160002060008473ffffffffffffffffffffffffffffffffffffffff1673ffffffffffffffffffffffffffffffffffffffff16815260200190815260200160002060006101000a81548160ff0219169083151502179055508173ffffffffffffffffffffffffffffffffffffffff16611a37612861565b73ffffffffffffffffffffffffffffffffffffffff167f17307eab39ab6107e8899845ad3d59bd9653f200f220920489ca2b5937696c3183604051611a7c9190614a2e565b60405180910390a35050565b611a928282612ec3565b5050565b60085481565b6000600267ffffffffffffffff811115611adf577f4e487b7100000000000000000000000000000000000000000000000000000000600052604160045260246000fd5b604051908082528060200260200182016040528015611b0d5781602001602082028036833780820191505090505b5090506000600267ffffffffffffffff811115611b53577f4e487b7100000000000000000000000000000000000000000000000000000000600052604160045260246000fd5b604051908082528060200260200182016040528015611b815781602001602082028036833780820191505090505b50905060005b6002811015611c3957600181611b9d9190614f14565b838281518110611bd6577f4e487b7100000000000000000000000000000000000000000000000000000000600052603260045260246000fd5b60200260200101818152505083828281518110611c1c577f4e487b7100000000000000000000000000000000000000000000000000000000600052603260045260246000fd5b60200260200101818152505080611c329061511b565b9050611b87565b50600360009054906101000a900473ffffffffffffffffffffffffffffffffffffffff1673ffffffffffffffffffffffffffffffffffffffff166323b872dd3330866040518463ffffffff1660e01b8152600401611c999392919061491b565b602060405180830381600087803b158015611cb357600080fd5b505af1158015611cc7573d6000803e3d6000fd5b505050506040513d601f19601f82011682018060405250810190611ceb9190613d73565b611d2a576040517f08c379a0000000000000000000000000000000000000000000000000000000008152600401611d2190614c66565b60405180910390fd5b611d453383836040518060200160405280600081525061321d565b611d5a83600754612aae90919063ffffffff16565b600781905550611d7583600854612aae90919063ffffffff16565b600881905550505050565b6000600160008473ffffffffffffffffffffffffffffffffffffffff1673ffffffffffffffffffffffffffffffffffffffff16815260200190815260200160002060008373ffffffffffffffffffffffffffffffffffffffff1673ffffffffffffffffffffffffffffffffffffffff16815260200190815260200160002060009054906101000a900460ff16905092915050565b600073ffffffffffffffffffffffffffffffffffffffff168473ffffffffffffffffffffffffffffffffffffffff161415611e84576040517f08c379a0000000000000000000000000000000000000000000000000000000008152600401611e7b90614c26565b60405180910390fd5b611e8c612861565b73ffffffffffffffffffffffffffffffffffffffff168573ffffffffffffffffffffffffffffffffffffffff161480611ed25750611ed185611ecc612861565b611d80565b5b611f11576040517f08c379a0000000000000000000000000000000000000000000000000000000008152600401611f0890614be6565b60405180910390fd5b6000611f1b612861565b9050611f3b818787611f2c88613487565b611f3588613487565b87612869565b600080600086815260200190815260200160002060008873ffffffffffffffffffffffffffffffffffffffff1673ffffffffffffffffffffffffffffffffffffffff16815260200190815260200160002054905083811015611fd2576040517f08c379a0000000000000000000000000000000000000000000000000000000008152600401611fc990614cc6565b60405180910390fd5b8381611fde9190614ff5565b60008087815260200190815260200160002060008973ffffffffffffffffffffffffffffffffffffffff1673ffffffffffffffffffffffffffffffffffffffff168152602001908152602001600020819055508360008087815260200190815260200160002060008873ffffffffffffffffffffffffffffffffffffffff1673ffffffffffffffffffffffffffffffffffffffff16815260200190815260200160002060008282546120909190614f14565b925050819055508573ffffffffffffffffffffffffffffffffffffffff168773ffffffffffffffffffffffffffffffffffffffff168373ffffffffffffffffffffffffffffffffffffffff167fc3d58168c5ae7397731d063d5bbf3d657854427343f4c083240f7aacaa2d0f62888860405161210d929190614dc1565b60405180910390a461212382888888888861354d565b50505050505050565b60007f01ffc9a7000000000000000000000000000000000000000000000000000000007bffffffffffffffffffffffffffffffffffffffffffffffffffffffff1916827bffffffffffffffffffffffffffffffffffffffffffffffffffffffff1916149050919050565b600073ffffffffffffffffffffffffffffffffffffffff168373ffffffffffffffffffffffffffffffffffffffff161415612206576040517f08c379a00000000000000000000000000000000000000000000000000000000081526004016121fd90614ca6565b60405180910390fd5b805182511461224a576040517f08c379a000000000000000000000000000000000000000000000000000000000815260040161224190614d46565b60405180910390fd5b6000612254612861565b905061227481856000868660405180602001604052806000815250612869565b60005b83518110156124165760008482815181106122bb577f4e487b7100000000000000000000000000000000000000000000000000000000600052603260045260246000fd5b602002602001015190506000848381518110612300577f4e487b7100000000000000000000000000000000000000000000000000000000600052603260045260246000fd5b60200260200101519050600080600084815260200190815260200160002060008973ffffffffffffffffffffffffffffffffffffffff1673ffffffffffffffffffffffffffffffffffffffff168152602001908152602001600020549050818110156123a1576040517f08c379a000000000000000000000000000000000000000000000000000000000815260040161239890614b86565b60405180910390fd5b81816123ad9190614ff5565b60008085815260200190815260200160002060008a73ffffffffffffffffffffffffffffffffffffffff1673ffffffffffffffffffffffffffffffffffffffff16815260200190815260200160002081905550505050808061240e9061511b565b915050612277565b50600073ffffffffffffffffffffffffffffffffffffffff168473ffffffffffffffffffffffffffffffffffffffff168273ffffffffffffffffffffffffffffffffffffffff167f4a39dc06d4c0dbc64b70af90fd698a233a518aa5d07e595d983b8c0526c8f7fb868660405161248e9291906149f7565b60405180910390a450505050565b60008282846124ab9190614ff5565b91508111156124ef576040517f08c379a00000000000000000000000000000000000000000000000000000000081526004016124e690614aa6565b60405180910390fd5b92915050565b6dffffffffffffffffffffffffffff821115612546576040517f08c379a000000000000000000000000000000000000000000000000000000000815260040161253d90614d26565b60405180910390fd5b60006125ed8360066000858152602001908152602001600020600060028110612598577f4e487b7100000000000000000000000000000000000000000000000000000000600052603260045260246000fd5b0154600660008681526020019081526020016000206001600281106125e6577f4e487b7100000000000000000000000000000000000000000000000000000000600052603260045260246000fd5b015461371d565b9050600360009054906101000a900473ffffffffffffffffffffffffffffffffffffffff1673ffffffffffffffffffffffffffffffffffffffff166323b872dd3330846040518463ffffffff1660e01b815260040161264e9392919061491b565b602060405180830381600087803b15801561266857600080fd5b505af115801561267c573d6000803e3d6000fd5b505050506040513d601f19601f820116820180604052508101906126a09190613d73565b6126df576040517f08c379a00000000000000000000000000000000000000000000000000000000081526004016126d690614b26565b60405180910390fd5b6126fa33838560405180602001604052806000815250612b07565b61275a836006600085815260200190815260200160002060006002811061274a577f4e487b7100000000000000000000000000000000000000000000000000000000600052603260045260246000fd5b015461249c90919063ffffffff16565b600660008481526020019081526020016000206000600281106127a6577f4e487b7100000000000000000000000000000000000000000000000000000000600052603260045260246000fd5b018190555061280b81600660008581526020019081526020016000206001600281106127fb577f4e487b7100000000000000000000000000000000000000000000000000000000600052603260045260246000fd5b0154612aae90919063ffffffff16565b60066000848152602001908152602001600020600160028110612857577f4e487b7100000000000000000000000000000000000000000000000000000000600052603260045260246000fd5b0181905550505050565b600033905090565b505050505050565b6128908473ffffffffffffffffffffffffffffffffffffffff16613808565b15612a39578373ffffffffffffffffffffffffffffffffffffffff1663bc197c8187878686866040518663ffffffff1660e01b81526004016128d69594939291906148b3565b602060405180830381600087803b1580156128f057600080fd5b505af192505050801561292157506040513d601f19601f8201168201806040525081019061291e9190613dc5565b60015b6129b05761292d61523e565b806129385750612975565b806040517f08c379a000000000000000000000000000000000000000000000000000000000815260040161296c9190614a64565b60405180910390fd5b6040517f08c379a00000000000000000000000000000000000000000000000000000000081526004016129a790614a86565b60405180910390fd5b63bc197c8160e01b7bffffffffffffffffffffffffffffffffffffffffffffffffffffffff1916817bffffffffffffffffffffffffffffffffffffffffffffffffffffffff191614612a37576040517f08c379a0000000000000000000000000000000000000000000000000000000008152600401612a2e90614ac6565b60405180910390fd5b505b505050505050565b600080821480612a69575082828385612a5a9190614f9b565b925082612a679190614f6a565b145b612aa8576040517f08c379a0000000000000000000000000000000000000000000000000000000008152600401612a9f90614b66565b60405180910390fd5b92915050565b6000828284612abd9190614f14565b9150811015612b01576040517f08c379a0000000000000000000000000000000000000000000000000000000008152600401612af890614bc6565b60405180910390fd5b92915050565b600073ffffffffffffffffffffffffffffffffffffffff168473ffffffffffffffffffffffffffffffffffffffff161415612b77576040517f08c379a0000000000000000000000000000000000000000000000000000000008152600401612b6e90614d66565b60405180910390fd5b6000612b81612861565b9050612ba281600087612b9388613487565b612b9c88613487565b87612869565b8260008086815260200190815260200160002060008773ffffffffffffffffffffffffffffffffffffffff1673ffffffffffffffffffffffffffffffffffffffff1681526020019081526020016000206000828254612c019190614f14565b925050819055508473ffffffffffffffffffffffffffffffffffffffff16600073ffffffffffffffffffffffffffffffffffffffff168273ffffffffffffffffffffffffffffffffffffffff167fc3d58168c5ae7397731d063d5bbf3d657854427343f4c083240f7aacaa2d0f628787604051612c7f929190614dc1565b60405180910390a4612c968160008787878761354d565b5050505050565b600073ffffffffffffffffffffffffffffffffffffffff168373ffffffffffffffffffffffffffffffffffffffff161415612d0d576040517f08c379a0000000000000000000000000000000000000000000000000000000008152600401612d0490614ca6565b60405180910390fd5b6000612d17612861565b9050612d4781856000612d2987613487565b612d3287613487565b60405180602001604052806000815250612869565b600080600085815260200190815260200160002060008673ffffffffffffffffffffffffffffffffffffffff1673ffffffffffffffffffffffffffffffffffffffff16815260200190815260200160002054905082811015612dde576040517f08c379a0000000000000000000000000000000000000000000000000000000008152600401612dd590614b86565b60405180910390fd5b8281612dea9190614ff5565b60008086815260200190815260200160002060008773ffffffffffffffffffffffffffffffffffffffff1673ffffffffffffffffffffffffffffffffffffffff16815260200190815260200160002081905550600073ffffffffffffffffffffffffffffffffffffffff168573ffffffffffffffffffffffffffffffffffffffff168373ffffffffffffffffffffffffffffffffffffffff167fc3d58168c5ae7397731d063d5bbf3d657854427343f4c083240f7aacaa2d0f628787604051612eb4929190614dc1565b60405180910390a45050505050565b6dffffffffffffffffffffffffffff821115612f14576040517f08c379a0000000000000000000000000000000000000000000000000000000008152600401612f0b90614d26565b60405180910390fd5b6000612fbb8360066000858152602001908152602001600020600060028110612f66577f4e487b7100000000000000000000000000000000000000000000000000000000600052603260045260246000fd5b015460066000868152602001908152602001600020600160028110612fb4577f4e487b7100000000000000000000000000000000000000000000000000000000600052603260045260246000fd5b015461381b565b9050612fc8338385612c9d565b600360009054906101000a900473ffffffffffffffffffffffffffffffffffffffff1673ffffffffffffffffffffffffffffffffffffffff1663a9059cbb33836040518363ffffffff1660e01b81526004016130259291906149ac565b602060405180830381600087803b15801561303f57600080fd5b505af1158015613053573d6000803e3d6000fd5b505050506040513d601f19601f820116820180604052508101906130779190613d73565b6130b6576040517f08c379a00000000000000000000000000000000000000000000000000000000081526004016130ad90614c06565b60405180910390fd5b6131168360066000858152602001908152602001600020600060028110613106577f4e487b7100000000000000000000000000000000000000000000000000000000600052603260045260246000fd5b0154612aae90919063ffffffff16565b60066000848152602001908152602001600020600060028110613162577f4e487b7100000000000000000000000000000000000000000000000000000000600052603260045260246000fd5b01819055506131c781600660008581526020019081526020016000206001600281106131b7577f4e487b7100000000000000000000000000000000000000000000000000000000600052603260045260246000fd5b015461249c90919063ffffffff16565b60066000848152602001908152602001600020600160028110613213577f4e487b7100000000000000000000000000000000000000000000000000000000600052603260045260246000fd5b0181905550505050565b600073ffffffffffffffffffffffffffffffffffffffff168473ffffffffffffffffffffffffffffffffffffffff16141561328d576040517f08c379a000000000000000000000000000000000000000000000000000000000815260040161328490614d66565b60405180910390fd5b81518351146132d1576040517f08c379a00000000000000000000000000000000000000000000000000000000081526004016132c890614d46565b60405180910390fd5b60006132db612861565b90506132ec81600087878787612869565b60005b84518110156133f157838181518110613331577f4e487b7100000000000000000000000000000000000000000000000000000000600052603260045260246000fd5b6020026020010151600080878481518110613375577f4e487b7100000000000000000000000000000000000000000000000000000000600052603260045260246000fd5b6020026020010151815260200190815260200160002060008873ffffffffffffffffffffffffffffffffffffffff1673ffffffffffffffffffffffffffffffffffffffff16815260200190815260200160002060008282546133d79190614f14565b9250508190555080806133e99061511b565b9150506132ef565b508473ffffffffffffffffffffffffffffffffffffffff16600073ffffffffffffffffffffffffffffffffffffffff168273ffffffffffffffffffffffffffffffffffffffff167f4a39dc06d4c0dbc64b70af90fd698a233a518aa5d07e595d983b8c0526c8f7fb87876040516134699291906149f7565b60405180910390a461348081600087878787612871565b5050505050565b60606000600167ffffffffffffffff8111156134cc577f4e487b7100000000000000000000000000000000000000000000000000000000600052604160045260246000fd5b6040519080825280602002602001820160405280156134fa5781602001602082028036833780820191505090505b5090508281600081518110613538577f4e487b7100000000000000000000000000000000000000000000000000000000600052603260045260246000fd5b60200260200101818152505080915050919050565b61356c8473ffffffffffffffffffffffffffffffffffffffff16613808565b15613715578373ffffffffffffffffffffffffffffffffffffffff1663f23a6e6187878686866040518663ffffffff1660e01b81526004016135b2959493929190614952565b602060405180830381600087803b1580156135cc57600080fd5b505af19250505080156135fd57506040513d601f19601f820116820180604052508101906135fa9190613dc5565b60015b61368c5761360961523e565b806136145750613651565b806040517f08c379a00000000000000000000000000000000000000000000000000000000081526004016136489190614a64565b60405180910390fd5b6040517f08c379a000000000000000000000000000000000000000000000000000000000815260040161368390614a86565b60405180910390fd5b63f23a6e6160e01b7bffffffffffffffffffffffffffffffffffffffffffffffffffffffff1916817bffffffffffffffffffffffffffffffffffffffffffffffffffffffff191614613713576040517f08c379a000000000000000000000000000000000000000000000000000000000815260040161370a90614ac6565b60405180910390fd5b505b505050505050565b6000808411613761576040517f08c379a000000000000000000000000000000000000000000000000000000000815260040161375890614ba6565b60405180910390fd5b6000821180156137715750600083115b6137b0576040517f08c379a00000000000000000000000000000000000000000000000000000000081526004016137a790614c86565b60405180910390fd5b60006137c58584612a4190919063ffffffff16565b905060006137dc868661249c90919063ffffffff16565b90506137fd600182846137ef9190614f6a565b612aae90919063ffffffff16565b925050509392505050565b600080823b905060008111915050919050565b600080841161385f576040517f08c379a000000000000000000000000000000000000000000000000000000000815260040161385690614d86565b60405180910390fd5b60008211801561386f5750600083115b6138ae576040517f08c379a00000000000000000000000000000000000000000000000000000000081526004016138a590614c86565b60405180910390fd5b60006138c38386612a4190919063ffffffff16565b905060006138da8686612aae90919063ffffffff16565b905080826138e89190614f6a565b925050509392505050565b600061390661390184614e1b565b614dea565b9050808382526020820190508285602086028201111561392557600080fd5b60005b85811015613955578161393b8882613a09565b845260208401935060208301925050600181019050613928565b5050509392505050565b600061397261396d84614e47565b614dea565b9050808382526020820190508285602086028201111561399157600080fd5b60005b858110156139c157816139a78882613af0565b845260208401935060208301925050600181019050613994565b5050509392505050565b60006139de6139d984614e73565b614dea565b9050828152602081018484840111156139f657600080fd5b613a018482856150a7565b509392505050565b600081359050613a18816152f4565b92915050565b600082601f830112613a2f57600080fd5b8135613a3f8482602086016138f3565b91505092915050565b600082601f830112613a5957600080fd5b8135613a6984826020860161395f565b91505092915050565b600081359050613a818161530b565b92915050565b600081519050613a968161530b565b92915050565b600081359050613aab81615322565b92915050565b600081519050613ac081615322565b92915050565b600082601f830112613ad757600080fd5b8135613ae78482602086016139cb565b91505092915050565b600081359050613aff81615339565b92915050565b60008060408385031215613b1857600080fd5b6000613b2685828601613a09565b9250506020613b3785828601613a09565b9150509250929050565b600080600080600060a08688031215613b5957600080fd5b6000613b6788828901613a09565b9550506020613b7888828901613a09565b945050604086013567ffffffffffffffff811115613b9557600080fd5b613ba188828901613a48565b935050606086013567ffffffffffffffff811115613bbe57600080fd5b613bca88828901613a48565b925050608086013567ffffffffffffffff811115613be757600080fd5b613bf388828901613ac6565b9150509295509295909350565b600080600080600060a08688031215613c1857600080fd5b6000613c2688828901613a09565b9550506020613c3788828901613a09565b9450506040613c4888828901613af0565b9350506060613c5988828901613af0565b925050608086013567ffffffffffffffff811115613c7657600080fd5b613c8288828901613ac6565b9150509295509295909350565b60008060408385031215613ca257600080fd5b6000613cb085828601613a09565b9250506020613cc185828601613a72565b9150509250929050565b60008060408385031215613cde57600080fd5b6000613cec85828601613a09565b9250506020613cfd85828601613af0565b9150509250929050565b60008060408385031215613d1a57600080fd5b600083013567ffffffffffffffff811115613d3457600080fd5b613d4085828601613a1e565b925050602083013567ffffffffffffffff811115613d5d57600080fd5b613d6985828601613a48565b9150509250929050565b600060208284031215613d8557600080fd5b6000613d9384828501613a87565b91505092915050565b600060208284031215613dae57600080fd5b6000613dbc84828501613a9c565b91505092915050565b600060208284031215613dd757600080fd5b6000613de584828501613ab1565b91505092915050565b600060208284031215613e0057600080fd5b6000613e0e84828501613af0565b91505092915050565b60008060408385031215613e2a57600080fd5b6000613e3885828601613af0565b9250506020613e4985828601613af0565b9150509250929050565b6000613e5f838361487a565b60208301905092915050565b613e7481615029565b82525050565b6000613e8582614eb3565b613e8f8185614ee1565b9350613e9a83614ea3565b8060005b83811015613ecb578151613eb28882613e53565b9750613ebd83614ed4565b925050600181019050613e9e565b5085935050505092915050565b613ee18161503b565b82525050565b613ef081615047565b82525050565b6000613f0182614ebe565b613f0b8185614ef2565b9350613f1b8185602086016150b6565b613f2481615220565b840191505092915050565b6000613f3a82614ec9565b613f448185614f03565b9350613f548185602086016150b6565b613f5d81615220565b840191505092915050565b6000613f75603483614f03565b91507f455243313135353a207472616e7366657220746f206e6f6e204552433131353560008301527f526563656976657220696d706c656d656e7465720000000000000000000000006020830152604082019050919050565b6000613fdb601583614f03565b91507f64732d6d6174682d7375622d756e646572666c6f7700000000000000000000006000830152602082019050919050565b600061401b602883614f03565b91507f455243313135353a204552433131353552656365697665722072656a6563746560008301527f6420746f6b656e730000000000000000000000000000000000000000000000006020830152604082019050919050565b6000614081602583614f03565b91507f6e6f7420656e6f756768206c697175696469747920746f6b656e7320746f207260008301527f656465656d0000000000000000000000000000000000000000000000000000006020830152604082019050919050565b60006140e7602483614f03565b91507f636f756c64206e6f74207472616e7366657220636f6c6c61746572616c20746f60008301527f6b656e73000000000000000000000000000000000000000000000000000000006020830152604082019050919050565b600061414d601983614f03565b91507f756e61626c6520746f20726563656976652072657365727665000000000000006000830152602082019050919050565b600061418d602b83614f03565b91507f455243313135353a2062616c616e636520717565727920666f7220746865207a60008301527f65726f20616464726573730000000000000000000000000000000000000000006020830152604082019050919050565b60006141f3601483614f03565b91507f64732d6d6174682d6d756c2d6f766572666c6f770000000000000000000000006000830152602082019050919050565b6000614233602483614f03565b91507f455243313135353a206275726e20616d6f756e7420657863656564732062616c60008301527f616e6365000000000000000000000000000000000000000000000000000000006020830152604082019050919050565b6000614299602c83614f03565b91507f556e697377617056324c6962726172793a20494e53554646494349454e545f4f60008301527f55545055545f414d4f554e5400000000000000000000000000000000000000006020830152604082019050919050565b60006142ff601483614f03565b91507f64732d6d6174682d6164642d6f766572666c6f770000000000000000000000006000830152602082019050919050565b600061433f602983614f03565b91507f455243313135353a2063616c6c6572206973206e6f74206f776e6572206e6f7260008301527f20617070726f76656400000000000000000000000000000000000000000000006020830152604082019050919050565b60006143a5601a83614f03565b91507f636f756c64206e6f74207472616e7366657220726573657276650000000000006000830152602082019050919050565b60006143e5602583614f03565b91507f455243313135353a207472616e7366657220746f20746865207a65726f20616460008301527f64726573730000000000000000000000000000000000000000000000000000006020830152604082019050919050565b600061444b603283614f03565b91507f455243313135353a207472616e736665722063616c6c6572206973206e6f742060008301527f6f776e6572206e6f7220617070726f76656400000000000000000000000000006020830152604082019050919050565b60006144b1602383614f03565b91507f636f756c64206e6f74207265636569766520636f6c6c61746572616c20746f6b60008301527f656e7300000000000000000000000000000000000000000000000000000000006020830152604082019050919050565b6000614517602883614f03565b91507f556e697377617056324c6962726172793a20494e53554646494349454e545f4c60008301527f49515549444954590000000000000000000000000000000000000000000000006020830152604082019050919050565b600061457d602383614f03565b91507f455243313135353a206275726e2066726f6d20746865207a65726f206164647260008301527f65737300000000000000000000000000000000000000000000000000000000006020830152604082019050919050565b60006145e3602a83614f03565b91507f455243313135353a20696e73756666696369656e742062616c616e636520666f60008301527f72207472616e73666572000000000000000000000000000000000000000000006020830152604082019050919050565b6000614649602983614f03565b91507f455243313135353a2073657474696e6720617070726f76616c2073746174757360008301527f20666f722073656c6600000000000000000000000000000000000000000000006020830152604082019050919050565b60006146af602983614f03565b91507f455243313135353a206163636f756e747320616e6420696473206c656e67746860008301527f206d69736d6174636800000000000000000000000000000000000000000000006020830152604082019050919050565b6000614715600883614f03565b91507f6f766572666c6f770000000000000000000000000000000000000000000000006000830152602082019050919050565b6000614755602883614f03565b91507f455243313135353a2069647320616e6420616d6f756e7473206c656e6774682060008301527f6d69736d617463680000000000000000000000000000000000000000000000006020830152604082019050919050565b60006147bb602183614f03565b91507f455243313135353a206d696e7420746f20746865207a65726f2061646472657360008301527f73000000000000000000000000000000000000000000000000000000000000006020830152604082019050919050565b6000614821602b83614f03565b91507f556e697377617056324c6962726172793a20494e53554646494349454e545f4960008301527f4e5055545f414d4f554e540000000000000000000000000000000000000000006020830152604082019050919050565b6148838161509d565b82525050565b6148928161509d565b82525050565b60006020820190506148ad6000830184613e6b565b92915050565b600060a0820190506148c86000830188613e6b565b6148d56020830187613e6b565b81810360408301526148e78186613e7a565b905081810360608301526148fb8185613e7a565b9050818103608083015261490f8184613ef6565b90509695505050505050565b60006060820190506149306000830186613e6b565b61493d6020830185613e6b565b61494a6040830184614889565b949350505050565b600060a0820190506149676000830188613e6b565b6149746020830187613e6b565b6149816040830186614889565b61498e6060830185614889565b81810360808301526149a08184613ef6565b90509695505050505050565b60006040820190506149c16000830185613e6b565b6149ce6020830184614889565b9392505050565b600060208201905081810360008301526149ef8184613e7a565b905092915050565b60006040820190508181036000830152614a118185613e7a565b90508181036020830152614a258184613e7a565b90509392505050565b6000602082019050614a436000830184613ed8565b92915050565b6000602082019050614a5e6000830184613ee7565b92915050565b60006020820190508181036000830152614a7e8184613f2f565b905092915050565b60006020820190508181036000830152614a9f81613f68565b9050919050565b60006020820190508181036000830152614abf81613fce565b9050919050565b60006020820190508181036000830152614adf8161400e565b9050919050565b60006020820190508181036000830152614aff81614074565b9050919050565b60006020820190508181036000830152614b1f816140da565b9050919050565b60006020820190508181036000830152614b3f81614140565b9050919050565b60006020820190508181036000830152614b5f81614180565b9050919050565b60006020820190508181036000830152614b7f816141e6565b9050919050565b60006020820190508181036000830152614b9f81614226565b9050919050565b60006020820190508181036000830152614bbf8161428c565b9050919050565b60006020820190508181036000830152614bdf816142f2565b9050919050565b60006020820190508181036000830152614bff81614332565b9050919050565b60006020820190508181036000830152614c1f81614398565b9050919050565b60006020820190508181036000830152614c3f816143d8565b9050919050565b60006020820190508181036000830152614c5f8161443e565b9050919050565b60006020820190508181036000830152614c7f816144a4565b9050919050565b60006020820190508181036000830152614c9f8161450a565b9050919050565b60006020820190508181036000830152614cbf81614570565b9050919050565b60006020820190508181036000830152614cdf816145d6565b9050919050565b60006020820190508181036000830152614cff8161463c565b9050919050565b60006020820190508181036000830152614d1f816146a2565b9050919050565b60006020820190508181036000830152614d3f81614708565b9050919050565b60006020820190508181036000830152614d5f81614748565b9050919050565b60006020820190508181036000830152614d7f816147ae565b9050919050565b60006020820190508181036000830152614d9f81614814565b9050919050565b6000602082019050614dbb6000830184614889565b92915050565b6000604082019050614dd66000830185614889565b614de36020830184614889565b9392505050565b6000604051905081810181811067ffffffffffffffff82111715614e1157614e106151f1565b5b8060405250919050565b600067ffffffffffffffff821115614e3657614e356151f1565b5b602082029050602081019050919050565b600067ffffffffffffffff821115614e6257614e616151f1565b5b602082029050602081019050919050565b600067ffffffffffffffff821115614e8e57614e8d6151f1565b5b601f19601f8301169050602081019050919050565b6000819050602082019050919050565b600081519050919050565b600081519050919050565b600081519050919050565b6000602082019050919050565b600082825260208201905092915050565b600082825260208201905092915050565b600082825260208201905092915050565b6000614f1f8261509d565b9150614f2a8361509d565b9250827fffffffffffffffffffffffffffffffffffffffffffffffffffffffffffffffff03821115614f5f57614f5e615164565b5b828201905092915050565b6000614f758261509d565b9150614f808361509d565b925082614f9057614f8f615193565b5b828204905092915050565b6000614fa68261509d565b9150614fb18361509d565b9250817fffffffffffffffffffffffffffffffffffffffffffffffffffffffffffffffff0483118215151615614fea57614fe9615164565b5b828202905092915050565b60006150008261509d565b915061500b8361509d565b92508282101561501e5761501d615164565b5b828203905092915050565b60006150348261507d565b9050919050565b60008115159050919050565b6000819050919050565b60007fffffffff0000000000000000000000000000000000000000000000000000000082169050919050565b600073ffffffffffffffffffffffffffffffffffffffff82169050919050565b6000819050919050565b82818337600083830152505050565b60005b838110156150d45780820151818401526020810190506150b9565b838111156150e3576000848401525b50505050565b6000600282049050600182168061510157607f821691505b60208210811415615115576151146151c2565b5b50919050565b60006151268261509d565b91507fffffffffffffffffffffffffffffffffffffffffffffffffffffffffffffffff82141561515957615158615164565b5b600182019050919050565b7f4e487b7100000000000000000000000000000000000000000000000000000000600052601160045260246000fd5b7f4e487b7100000000000000000000000000000000000000000000000000000000600052601260045260246000fd5b7f4e487b7100000000000000000000000000000000000000000000000000000000600052602260045260246000fd5b7f4e487b7100000000000000000000000000000000000000000000000000000000600052604160045260246000fd5b6000601f19601f8301169050919050565b60008160e01c9050919050565b600060443d101561524e576152f1565b60046000803e61525f600051615231565b6308c379a0811461527057506152f1565b60405160043d036004823e80513d602482011167ffffffffffffffff8211171561529c575050506152f1565b808201805167ffffffffffffffff8111156152bb5750505050506152f1565b8060208301013d85018111156152d6575050505050506152f1565b6152df82615220565b60208401016040528296505050505050505b90565b6152fd81615029565b811461530857600080fd5b50565b6153148161503b565b811461531f57600080fd5b50565b61532b81615051565b811461533657600080fd5b50565b6153428161509d565b811461534d57600080fd5b5056fea2646970667358221220a5253d2332b6d1553a3987f09bd76163b487728d060642ce2c63c8b893c773cc64736f6c63430008000033",
  "immutableReferences": {},
  "source": "// SPDX-License-Identifier: MIT\npragma solidity ^0.8.0;\n\nimport \"@openzeppelin/contracts/token/ERC1155/ERC1155.sol\";\nimport \"@openzeppelin/contracts/token/ERC20/IERC20.sol\";\nimport \"./libraries/SafeMath.sol\";\nimport \"./libraries/SafeMath112.sol\";\nimport \"./libraries/UQ112x112.sol\";\nimport \"./libraries/PredictionLibrary.sol\"; \n\ncontract Prediction is ERC1155(\"FREE\") {\n\n    using SafeMath for uint; \n\n    address public coin;\n    address public oracle; \n\n    bytes32 public identifier;\n\n    //maps from pool to items in pool C, R, k\n    mapping(uint => uint[2]) contents;\n\n    uint public b;\n    uint public mints; \n\n    uint[2] initialRatioNumerator;\n    uint initialRatioDenominator;\n\n    uint winner;\n\n    constructor (address _coin) {\n        coin = _coin;\n        oracle = msg.sender;  \n        identifier = keccak256(abi.encodePacked(oracle, \"Heads or Tails\", uint(2)));\n        initialRatioNumerator = [1, 1];\n        initialRatioDenominator = 2; \n    }\n\n    function buySet(uint _amount) public {\n        uint[] memory positionIds = new uint[](uint(2));\n        uint[] memory amounts = new uint[](uint(2));\n\n        for (uint i = 0; i < uint(2); ++i) {\n            positionIds[i] = i+1; \n            amounts[i] = _amount;\n        }\n\n        require(IERC20(coin).transferFrom(msg.sender, address(this), _amount), \"could not receive collateral tokens\");\n        _mintBatch(\n            msg.sender,\n            positionIds,\n            amounts,\n            \"\"\n        );\n        b = b.add(_amount); \n        mints = mints.add(_amount); \n    }\n\n    function sellSet(uint _amount) public {\n        uint[] memory positionIds = new uint[](uint(2));\n        uint[] memory amounts = new uint[](uint(2));\n\n        for (uint i = 0; i < uint(2); ++i) {\n            positionIds[i] = i+1; \n            amounts[i] = _amount;\n        }\n\n        _burnBatch(\n            msg.sender,\n            positionIds,\n            amounts\n        );\n        require(IERC20(coin).transfer(msg.sender, _amount), \"could not transfer collateral tokens\");\n        b = b.sub(_amount); \n        mints = mints.sub(_amount);  \n    }\n\n    function getState(uint _id) public view returns (uint _contractAmount, uint _reserveAmount) {\n        return (contents[_id][0], contents[_id][1]);\n    }\n\n    function _buyRaw(uint _amount, uint _id) private {\n        require(_amount <= 2**112-1, \"overflow\"); \n        uint reserveIn = PredictionLibrary.getReserveIn(_amount, contents[_id][0], contents[_id][1]);\n        require(IERC20(coin).transferFrom(msg.sender, address(this), reserveIn), \"unable to receive reserve\");\n        _mint(msg.sender, _id, _amount, \"\");\n        contents[_id][0] = contents[_id][0].sub(_amount); \n        contents[_id][1] = contents[_id][1].add(reserveIn); \n    }\n\n    function _sellRaw(uint _amount, uint _id) private {\n        require(_amount <= 2**112-1, \"overflow\"); \n        uint reserveOut = PredictionLibrary.getReserveOut(_amount, contents[_id][0], contents[_id][1]);\n        _burn(msg.sender, _id, _amount); \n        require(IERC20(coin).transfer(msg.sender, reserveOut), \"could not transfer reserve\");\n        contents[_id][0] = contents[_id][0].add(_amount); \n        contents[_id][1] = contents[_id][1].sub(reserveOut); \n    }\n\n    function buyContract(uint _amount, uint _id) public {\n        _buyRaw(_amount, _id);\n    }\n\n    function sellContract(uint _amount, uint _id) public {\n        _sellRaw(_amount, _id); \n    }\n\n    function addLiquidity(uint _amount) public {\n        // require(_amount <= 2**112-1, \"overflow\"); \n        require(IERC20(coin).transferFrom(msg.sender, address(this), uint(_amount)), \"unable to receive reserve\");\n        if (initialRatioDenominator != 0) {\n            for (uint i = 0; i < uint(2); ++i) {\n                //TODO: adjust for fixed point decimals\n                contents[i+1][1] = contents[i+1][1].add(_amount.mul(initialRatioNumerator[i]) / initialRatioDenominator);\n                contents[i+1][0] = contents[i+1][0].add(_amount);\n            }\n            initialRatioDenominator = 0; \n        } else {\n            for (uint i = 0; i < uint(2); ++i) {\n                //TODO: adjust for fixed point decimals\n                contents[i+1][1] = contents[i+1][1].add(_amount.mul(contents[i+1][1] / contents[i+1][0]));\n                contents[i+1][0] = contents[i+1][0].add(_amount);\n            }\n        }\n        _mint(msg.sender, 0, _amount, \"\");\n        mints = mints.add(_amount); \n    }\n\n    function removeLiquidity(uint _amount) public {\n        require(balanceOf(msg.sender, 0) > 0, \"not enough liquidity tokens to redeem\");\n        for (uint i = 0; i < uint(2); ++i) {\n            //TODO: adjust for fixed point decimals\n            contents[i+1][0] = contents[i+1][0].mul(mints.sub(_amount)) / mints;\n            contents[i+1][1] = contents[i+1][1].mul(mints.sub(_amount)) / mints;\n        }\n        b = b.mul(mints.sub(_amount)) / mints; \n        require(IERC20(coin).transfer(msg.sender, _amount), \"could not transfer collateral tokens\");\n        _burn(msg.sender, 0, _amount); \n        mints = mints.sub(_amount); \n    }\n\n    // function validate(uint _id) public {\n    //     require(msg.sender == oracle, \"Non-oracle called validate\");\n    //     winner = _id; \n    // }\n\n    // // function redeem(uint _amount, uint _id) public {\n    // //     require(_id == winner)\n    // // }\n}",
  "sourcePath": "/Users/kylescott/src/simple_prediction/contracts/Prediction.sol",
  "compiler": {
    "name": "solc",
    "version": "0.8.0+commit.c7dfd78e.Emscripten.clang"
  },
  "schemaVersion": "3.2.4",
  "updatedAt": "2021-04-27T21:58:37.637Z",
  "devdoc": {
    "kind": "dev",
    "methods": {
      "balanceOf(address,uint256)": {
        "details": "See {IERC1155-balanceOf}. Requirements: - `account` cannot be the zero address."
      },
      "balanceOfBatch(address[],uint256[])": {
        "details": "See {IERC1155-balanceOfBatch}. Requirements: - `accounts` and `ids` must have the same length."
      },
      "isApprovedForAll(address,address)": {
        "details": "See {IERC1155-isApprovedForAll}."
      },
      "safeBatchTransferFrom(address,address,uint256[],uint256[],bytes)": {
        "details": "See {IERC1155-safeBatchTransferFrom}."
      },
      "safeTransferFrom(address,address,uint256,uint256,bytes)": {
        "details": "See {IERC1155-safeTransferFrom}."
      },
      "setApprovalForAll(address,bool)": {
        "details": "See {IERC1155-setApprovalForAll}."
      },
      "supportsInterface(bytes4)": {
        "details": "See {IERC165-supportsInterface}."
      },
      "uri(uint256)": {
        "details": "See {IERC1155MetadataURI-uri}. This implementation returns the same URI for *all* token types. It relies on the token type ID substitution mechanism https://eips.ethereum.org/EIPS/eip-1155#metadata[defined in the EIP]. Clients calling this function must replace the `\\{id\\}` substring with the actual token type ID."
      }
    },
    "version": 1
  },
  "userdoc": {
    "kind": "user",
    "methods": {},
    "version": 1
  }
}