{
  "contractName": "Prediction",
  "abi": [
    {
      "inputs": [
        {
          "internalType": "address",
          "name": "_coin",
          "type": "address"
        }
      ],
      "stateMutability": "nonpayable",
      "type": "constructor"
    },
    {
      "anonymous": false,
      "inputs": [
        {
          "indexed": true,
          "internalType": "address",
          "name": "account",
          "type": "address"
        },
        {
          "indexed": true,
          "internalType": "address",
          "name": "operator",
          "type": "address"
        },
        {
          "indexed": false,
          "internalType": "bool",
          "name": "approved",
          "type": "bool"
        }
      ],
      "name": "ApprovalForAll",
      "type": "event"
    },
    {
      "anonymous": false,
      "inputs": [
        {
          "indexed": true,
          "internalType": "address",
          "name": "operator",
          "type": "address"
        },
        {
          "indexed": true,
          "internalType": "address",
          "name": "from",
          "type": "address"
        },
        {
          "indexed": true,
          "internalType": "address",
          "name": "to",
          "type": "address"
        },
        {
          "indexed": false,
          "internalType": "uint256[]",
          "name": "ids",
          "type": "uint256[]"
        },
        {
          "indexed": false,
          "internalType": "uint256[]",
          "name": "values",
          "type": "uint256[]"
        }
      ],
      "name": "TransferBatch",
      "type": "event"
    },
    {
      "anonymous": false,
      "inputs": [
        {
          "indexed": true,
          "internalType": "address",
          "name": "operator",
          "type": "address"
        },
        {
          "indexed": true,
          "internalType": "address",
          "name": "from",
          "type": "address"
        },
        {
          "indexed": true,
          "internalType": "address",
          "name": "to",
          "type": "address"
        },
        {
          "indexed": false,
          "internalType": "uint256",
          "name": "id",
          "type": "uint256"
        },
        {
          "indexed": false,
          "internalType": "uint256",
          "name": "value",
          "type": "uint256"
        }
      ],
      "name": "TransferSingle",
      "type": "event"
    },
    {
      "anonymous": false,
      "inputs": [
        {
          "indexed": false,
          "internalType": "string",
          "name": "value",
          "type": "string"
        },
        {
          "indexed": true,
          "internalType": "uint256",
          "name": "id",
          "type": "uint256"
        }
      ],
      "name": "URI",
      "type": "event"
    },
    {
      "inputs": [],
      "name": "b",
      "outputs": [
        {
          "internalType": "uint256",
          "name": "",
          "type": "uint256"
        }
      ],
      "stateMutability": "view",
      "type": "function"
    },
    {
      "inputs": [
        {
          "internalType": "address",
          "name": "account",
          "type": "address"
        },
        {
          "internalType": "uint256",
          "name": "id",
          "type": "uint256"
        }
      ],
      "name": "balanceOf",
      "outputs": [
        {
          "internalType": "uint256",
          "name": "",
          "type": "uint256"
        }
      ],
      "stateMutability": "view",
      "type": "function"
    },
    {
      "inputs": [
        {
          "internalType": "address[]",
          "name": "accounts",
          "type": "address[]"
        },
        {
          "internalType": "uint256[]",
          "name": "ids",
          "type": "uint256[]"
        }
      ],
      "name": "balanceOfBatch",
      "outputs": [
        {
          "internalType": "uint256[]",
          "name": "",
          "type": "uint256[]"
        }
      ],
      "stateMutability": "view",
      "type": "function"
    },
    {
      "inputs": [],
      "name": "coin",
      "outputs": [
        {
          "internalType": "address",
          "name": "",
          "type": "address"
        }
      ],
      "stateMutability": "view",
      "type": "function"
    },
    {
      "inputs": [],
      "name": "identifier",
      "outputs": [
        {
          "internalType": "bytes32",
          "name": "",
          "type": "bytes32"
        }
      ],
      "stateMutability": "view",
      "type": "function"
    },
    {
      "inputs": [
        {
          "internalType": "address",
          "name": "account",
          "type": "address"
        },
        {
          "internalType": "address",
          "name": "operator",
          "type": "address"
        }
      ],
      "name": "isApprovedForAll",
      "outputs": [
        {
          "internalType": "bool",
          "name": "",
          "type": "bool"
        }
      ],
      "stateMutability": "view",
      "type": "function"
    },
    {
      "inputs": [],
      "name": "mints",
      "outputs": [
        {
          "internalType": "uint256",
          "name": "",
          "type": "uint256"
        }
      ],
      "stateMutability": "view",
      "type": "function"
    },
    {
      "inputs": [],
      "name": "oracle",
      "outputs": [
        {
          "internalType": "address",
          "name": "",
          "type": "address"
        }
      ],
      "stateMutability": "view",
      "type": "function"
    },
    {
      "inputs": [
        {
          "internalType": "address",
          "name": "from",
          "type": "address"
        },
        {
          "internalType": "address",
          "name": "to",
          "type": "address"
        },
        {
          "internalType": "uint256[]",
          "name": "ids",
          "type": "uint256[]"
        },
        {
          "internalType": "uint256[]",
          "name": "amounts",
          "type": "uint256[]"
        },
        {
          "internalType": "bytes",
          "name": "data",
          "type": "bytes"
        }
      ],
      "name": "safeBatchTransferFrom",
      "outputs": [],
      "stateMutability": "nonpayable",
      "type": "function"
    },
    {
      "inputs": [
        {
          "internalType": "address",
          "name": "from",
          "type": "address"
        },
        {
          "internalType": "address",
          "name": "to",
          "type": "address"
        },
        {
          "internalType": "uint256",
          "name": "id",
          "type": "uint256"
        },
        {
          "internalType": "uint256",
          "name": "amount",
          "type": "uint256"
        },
        {
          "internalType": "bytes",
          "name": "data",
          "type": "bytes"
        }
      ],
      "name": "safeTransferFrom",
      "outputs": [],
      "stateMutability": "nonpayable",
      "type": "function"
    },
    {
      "inputs": [
        {
          "internalType": "address",
          "name": "operator",
          "type": "address"
        },
        {
          "internalType": "bool",
          "name": "approved",
          "type": "bool"
        }
      ],
      "name": "setApprovalForAll",
      "outputs": [],
      "stateMutability": "nonpayable",
      "type": "function"
    },
    {
      "inputs": [
        {
          "internalType": "bytes4",
          "name": "interfaceId",
          "type": "bytes4"
        }
      ],
      "name": "supportsInterface",
      "outputs": [
        {
          "internalType": "bool",
          "name": "",
          "type": "bool"
        }
      ],
      "stateMutability": "view",
      "type": "function"
    },
    {
      "inputs": [
        {
          "internalType": "uint256",
          "name": "",
          "type": "uint256"
        }
      ],
      "name": "uri",
      "outputs": [
        {
          "internalType": "string",
          "name": "",
          "type": "string"
        }
      ],
      "stateMutability": "view",
      "type": "function"
    },
    {
      "inputs": [
        {
          "internalType": "uint256",
          "name": "_amount",
          "type": "uint256"
        }
      ],
      "name": "buySet",
      "outputs": [],
      "stateMutability": "nonpayable",
      "type": "function"
    },
    {
      "inputs": [
        {
          "internalType": "uint256",
          "name": "_amount",
          "type": "uint256"
        }
      ],
      "name": "sellSet",
      "outputs": [],
      "stateMutability": "nonpayable",
      "type": "function"
    },
    {
      "inputs": [
        {
          "internalType": "uint256",
          "name": "_id",
          "type": "uint256"
        }
      ],
      "name": "getState",
      "outputs": [
        {
          "internalType": "uint256",
          "name": "_contractAmount",
          "type": "uint256"
        },
        {
          "internalType": "uint256",
          "name": "_reserveAmount",
          "type": "uint256"
        }
      ],
      "stateMutability": "view",
      "type": "function"
    },
    {
      "inputs": [
        {
          "internalType": "uint256",
          "name": "_amount",
          "type": "uint256"
        },
        {
          "internalType": "uint256",
          "name": "_id",
          "type": "uint256"
        }
      ],
      "name": "buyContract",
      "outputs": [],
      "stateMutability": "nonpayable",
      "type": "function"
    },
    {
      "inputs": [
        {
          "internalType": "uint256",
          "name": "_amount",
          "type": "uint256"
        },
        {
          "internalType": "uint256",
          "name": "_id",
          "type": "uint256"
        }
      ],
      "name": "sellContract",
      "outputs": [],
      "stateMutability": "nonpayable",
      "type": "function"
    },
    {
      "inputs": [
        {
          "internalType": "uint256",
          "name": "_amount",
          "type": "uint256"
        }
      ],
      "name": "addLiquidity",
      "outputs": [],
      "stateMutability": "nonpayable",
      "type": "function"
    },
    {
      "inputs": [
        {
          "internalType": "uint256",
          "name": "_amount",
          "type": "uint256"
        }
      ],
      "name": "removeLiquidity",
      "outputs": [],
      "stateMutability": "nonpayable",
      "type": "function"
    },
    {
      "inputs": [
        {
          "internalType": "uint256",
          "name": "_id",
          "type": "uint256"
        }
      ],
      "name": "validate",
      "outputs": [],
      "stateMutability": "nonpayable",
      "type": "function"
    }
  ],
  "bytecode": "0x60806040523480156200001157600080fd5b506040516200639b3803806200639b833981810160405281019062000037919062000360565b6040518060400160405280600481526020017f46524545000000000000000000000000000000000000000000000000000000008152506200007e81620001c260201b60201c565b5080600360006101000a81548173ffffffffffffffffffffffffffffffffffffffff021916908373ffffffffffffffffffffffffffffffffffffffff16021790555033600460006101000a81548173ffffffffffffffffffffffffffffffffffffffff021916908373ffffffffffffffffffffffffffffffffffffffff160217905550600460009054906101000a900473ffffffffffffffffffffffffffffffffffffffff1660026040516020016200013992919062000404565b604051602081830303815290604052805190602001206005819055506040518060400160405280600160ff168152602001600160ff16815250600990600262000184929190620001de565b506002600a60006101000a8154816dffffffffffffffffffffffffffff02191690836dffffffffffffffffffffffffffff1602179055505062000548565b8060029080519060200190620001da92919062000299565b5050565b826002600101600290048101928215620002865791602002820160005b838211156200024857835183826101000a8154816dffffffffffffffffffffffffffff021916908360ff1602179055509260200192600e01602081600d01049283019260010302620001fb565b8015620002845782816101000a8154906dffffffffffffffffffffffffffff0219169055600e01602081600d0104928301926001030262000248565b505b5090506200029591906200032a565b5090565b828054620002a7906200048a565b90600052602060002090601f016020900481019282620002cb576000855562000317565b82601f10620002e657805160ff191683800117855562000317565b8280016001018555821562000317579182015b8281111562000316578251825591602001919060010190620002f9565b5b5090506200032691906200032a565b5090565b5b80821115620003455760008160009055506001016200032b565b5090565b6000815190506200035a816200052e565b92915050565b6000602082840312156200037357600080fd5b6000620003838482850162000349565b91505092915050565b620003a16200039b826200044c565b620004c0565b82525050565b6000620003b6600e8362000441565b91507f4865616473206f72205461696c730000000000000000000000000000000000006000830152600e82019050919050565b620003fe620003f88262000480565b620004e8565b82525050565b60006200041282856200038c565b6014820191506200042382620003a7565b9150620004318284620003e9565b6020820191508190509392505050565b600081905092915050565b6000620004598262000460565b9050919050565b600073ffffffffffffffffffffffffffffffffffffffff82169050919050565b6000819050919050565b60006002820490506001821680620004a357607f821691505b60208210811415620004ba57620004b9620004f2565b5b50919050565b6000620004cd82620004d4565b9050919050565b6000620004e18262000521565b9050919050565b6000819050919050565b7f4e487b7100000000000000000000000000000000000000000000000000000000600052602260045260246000fd5b60008160601b9050919050565b62000539816200044c565b81146200054557600080fd5b50565b615e4380620005586000396000f3fe608060405234801561001057600080fd5b50600436106101365760003560e01c806351c6590a116100b8578063ce4d01a31161007c578063ce4d01a31461034c578063d3db815f14610368578063dfc7379d14610384578063e96b67f3146103a2578063e985e9c5146103be578063f242432a146103ee57610136565b806351c6590a146102bc5780637998a1c4146102d85780637dc0d1d0146102f65780639c8f9f2314610314578063a22cb4651461033057610136565b806311df9995116100ff57806311df9995146102035780632eb2c2d61461022157806344c9af281461023d5780634df7e3d01461026e5780634e1273f41461028c57610136565b8062fdd58e1461013b57806301ffc9a71461016b5780630376042b1461019b5780630db680f6146101b75780630e89341c146101d3575b600080fd5b6101556004803603810190610150919061461d565b61040a565b6040516101629190615758565b60405180910390f35b610185600480360381019061018091906146ee565b6104d3565b60405161019291906153c0565b60405180910390f35b6101b560048036038101906101b09190614740565b6105b5565b005b6101d160048036038101906101cc9190614769565b610887565b005b6101ed60048036038101906101e89190614740565b610895565b6040516101fa91906153f6565b60405180910390f35b61020b610929565b604051610218919061522a565b60405180910390f35b61023b60048036038101906102369190614493565b61094f565b005b61025760048036038101906102529190614740565b610d45565b604051610265929190615773565b60405180910390f35b610276610e5b565b6040516102839190615758565b60405180910390f35b6102a660048036038101906102a19190614659565b610e61565b6040516102b39190615367565b60405180910390f35b6102d660048036038101906102d19190614740565b611012565b005b6102e06118fb565b6040516102ed91906153db565b60405180910390f35b6102fe611901565b60405161030b919061522a565b60405180910390f35b61032e60048036038101906103299190614740565b611927565b005b61034a600480360381019061034591906145e1565b611d92565b005b61036660048036038101906103619190614740565b611f13565b005b610382600480360381019061037d9190614769565b611fad565b005b61038c611fbb565b6040516103999190615758565b60405180910390f35b6103bc60048036038101906103b79190614740565b611fc1565b005b6103d860048036038101906103d39190614457565b6122a5565b6040516103e591906153c0565b60405180910390f35b61040860048036038101906104039190614552565b612339565b005b60008073ffffffffffffffffffffffffffffffffffffffff168373ffffffffffffffffffffffffffffffffffffffff16141561047b576040517f08c379a0000000000000000000000000000000000000000000000000000000008152600401610472906154d8565b60405180910390fd5b60008083815260200190815260200160002060008473ffffffffffffffffffffffffffffffffffffffff1673ffffffffffffffffffffffffffffffffffffffff16815260200190815260200160002054905092915050565b60007fd9b67a26000000000000000000000000000000000000000000000000000000007bffffffffffffffffffffffffffffffffffffffffffffffffffffffff1916827bffffffffffffffffffffffffffffffffffffffffffffffffffffffff1916148061059e57507f0e89341c000000000000000000000000000000000000000000000000000000007bffffffffffffffffffffffffffffffffffffffffffffffffffffffff1916827bffffffffffffffffffffffffffffffffffffffffffffffffffffffff1916145b806105ae57506105ad82612651565b5b9050919050565b6000600267ffffffffffffffff8111156105f8577f4e487b7100000000000000000000000000000000000000000000000000000000600052604160045260246000fd5b6040519080825280602002602001820160405280156106265781602001602082028036833780820191505090505b5090506000600267ffffffffffffffff81111561066c577f4e487b7100000000000000000000000000000000000000000000000000000000600052604160045260246000fd5b60405190808252806020026020018201604052801561069a5781602001602082028036833780820191505090505b50905060005b6002811015610752576001816106b6919061590a565b8382815181106106ef577f4e487b7100000000000000000000000000000000000000000000000000000000600052603260045260246000fd5b60200260200101818152505083828281518110610735577f4e487b7100000000000000000000000000000000000000000000000000000000600052603260045260246000fd5b6020026020010181815250508061074b90615bd8565b90506106a0565b5061075e3383836126bb565b600360009054906101000a900473ffffffffffffffffffffffffffffffffffffffff1673ffffffffffffffffffffffffffffffffffffffff1663a9059cbb33856040518363ffffffff1660e01b81526004016107bb92919061533e565b602060405180830381600087803b1580156107d557600080fd5b505af11580156107e9573d6000803e3d6000fd5b505050506040513d601f19601f8201168201806040525081019061080d91906146c5565b61084c576040517f08c379a000000000000000000000000000000000000000000000000000000000815260040161084390615498565b60405180910390fd5b610861836007546129c190919063ffffffff16565b60078190555061087c836008546129c190919063ffffffff16565b600881905550505050565b6108918282612a1a565b5050565b6060600280546108a490615ba6565b80601f01602080910402602001604051908101604052809291908181526020018280546108d090615ba6565b801561091d5780601f106108f25761010080835404028352916020019161091d565b820191906000526020600020905b81548152906001019060200180831161090057829003601f168201915b50505050509050919050565b600360009054906101000a900473ffffffffffffffffffffffffffffffffffffffff1681565b8151835114610993576040517f08c379a000000000000000000000000000000000000000000000000000000000815260040161098a906156d8565b60405180910390fd5b600073ffffffffffffffffffffffffffffffffffffffff168473ffffffffffffffffffffffffffffffffffffffff161415610a03576040517f08c379a00000000000000000000000000000000000000000000000000000000081526004016109fa906155b8565b60405180910390fd5b610a0b612ed5565b73ffffffffffffffffffffffffffffffffffffffff168573ffffffffffffffffffffffffffffffffffffffff161480610a515750610a5085610a4b612ed5565b6122a5565b5b610a90576040517f08c379a0000000000000000000000000000000000000000000000000000000008152600401610a87906155d8565b60405180910390fd5b6000610a9a612ed5565b9050610aaa818787878787612edd565b60005b8451811015610cb0576000858281518110610af1577f4e487b7100000000000000000000000000000000000000000000000000000000600052603260045260246000fd5b602002602001015190506000858381518110610b36577f4e487b7100000000000000000000000000000000000000000000000000000000600052603260045260246000fd5b60200260200101519050600080600084815260200190815260200160002060008b73ffffffffffffffffffffffffffffffffffffffff1673ffffffffffffffffffffffffffffffffffffffff16815260200190815260200160002054905081811015610bd7576040517f08c379a0000000000000000000000000000000000000000000000000000000008152600401610bce90615658565b60405180910390fd5b8181610be39190615a98565b60008085815260200190815260200160002060008c73ffffffffffffffffffffffffffffffffffffffff1673ffffffffffffffffffffffffffffffffffffffff168152602001908152602001600020819055508160008085815260200190815260200160002060008b73ffffffffffffffffffffffffffffffffffffffff1673ffffffffffffffffffffffffffffffffffffffff1681526020019081526020016000206000828254610c95919061590a565b9250508190555050505080610ca990615bd8565b9050610aad565b508473ffffffffffffffffffffffffffffffffffffffff168673ffffffffffffffffffffffffffffffffffffffff168273ffffffffffffffffffffffffffffffffffffffff167f4a39dc06d4c0dbc64b70af90fd698a233a518aa5d07e595d983b8c0526c8f7fb8787604051610d27929190615389565b60405180910390a4610d3d818787878787612ee5565b505050505050565b60008060066000848152602001908152602001600020600060028110610d94577f4e487b7100000000000000000000000000000000000000000000000000000000600052603260045260246000fd5b60029182820401919006600e029054906101000a90046dffffffffffffffffffffffffffff1660066000858152602001908152602001600020600160028110610e06577f4e487b7100000000000000000000000000000000000000000000000000000000600052603260045260246000fd5b60029182820401919006600e029054906101000a90046dffffffffffffffffffffffffffff16816dffffffffffffffffffffffffffff169150806dffffffffffffffffffffffffffff16905091509150915091565b60075481565b60608151835114610ea7576040517f08c379a0000000000000000000000000000000000000000000000000000000008152600401610e9e90615698565b60405180910390fd5b6000835167ffffffffffffffff811115610eea577f4e487b7100000000000000000000000000000000000000000000000000000000600052604160045260246000fd5b604051908082528060200260200182016040528015610f185781602001602082028036833780820191505090505b50905060005b845181101561100757610fb1858281518110610f63577f4e487b7100000000000000000000000000000000000000000000000000000000600052603260045260246000fd5b6020026020010151858381518110610fa4577f4e487b7100000000000000000000000000000000000000000000000000000000600052603260045260246000fd5b602002602001015161040a565b828281518110610fea577f4e487b7100000000000000000000000000000000000000000000000000000000600052603260045260246000fd5b6020026020010181815250508061100090615bd8565b9050610f1e565b508091505092915050565b600160006110209190615a64565b6dffffffffffffffffffffffffffff16811115611072576040517f08c379a0000000000000000000000000000000000000000000000000000000008152600401611069906156b8565b60405180910390fd5b600360009054906101000a900473ffffffffffffffffffffffffffffffffffffffff1673ffffffffffffffffffffffffffffffffffffffff166323b872dd3330846040518463ffffffff1660e01b81526004016110d1939291906152ad565b602060405180830381600087803b1580156110eb57600080fd5b505af11580156110ff573d6000803e3d6000fd5b505050506040513d601f19601f8201168201806040525081019061112391906146c5565b611162576040517f08c379a0000000000000000000000000000000000000000000000000000000008152600401611159906154b8565b60405180910390fd5b6000600a60009054906101000a90046dffffffffffffffffffffffffffff166dffffffffffffffffffffffffffff16146115115760005b60028110156114d55761124282600660006001856111b7919061590a565b81526020019081526020016000206000600281106111fe577f4e487b7100000000000000000000000000000000000000000000000000000000600052603260045260246000fd5b60029182820401919006600e029054906101000a90046dffffffffffffffffffffffffffff166dffffffffffffffffffffffffffff166130b590919063ffffffff16565b60066000600184611253919061590a565b815260200190815260200160002060006002811061129a577f4e487b7100000000000000000000000000000000000000000000000000000000600052603260045260246000fd5b60029182820401919006600e026101000a8154816dffffffffffffffffffffffffffff02191690836dffffffffffffffffffffffffffff16021790555061142f600a60009054906101000a90046dffffffffffffffffffffffffffff166dffffffffffffffffffffffffffff1661138960098460028110611344577f4e487b7100000000000000000000000000000000000000000000000000000000600052603260045260246000fd5b60029182820401919006600e029054906101000a90046dffffffffffffffffffffffffffff166dffffffffffffffffffffffffffff168561312e90919063ffffffff16565b6113939190615991565b600660006001856113a4919061590a565b81526020019081526020016000206001600281106113eb577f4e487b7100000000000000000000000000000000000000000000000000000000600052603260045260246000fd5b60029182820401919006600e029054906101000a90046dffffffffffffffffffffffffffff166dffffffffffffffffffffffffffff166130b590919063ffffffff16565b60066000600184611440919061590a565b8152602001908152602001600020600160028110611487577f4e487b7100000000000000000000000000000000000000000000000000000000600052603260045260246000fd5b60029182820401919006600e026101000a8154816dffffffffffffffffffffffffffff02191690836dffffffffffffffffffffffffffff160217905550806114ce90615bd8565b9050611199565b506000600a60006101000a8154816dffffffffffffffffffffffffffff02191690836dffffffffffffffffffffffffffff1602179055506118c1565b60005b60028110156118bf576116e461164860066000600185611534919061590a565b815260200190815260200160002060006002811061157b577f4e487b7100000000000000000000000000000000000000000000000000000000600052603260045260246000fd5b60029182820401919006600e029054906101000a90046dffffffffffffffffffffffffffff16600660006001866115b2919061590a565b81526020019081526020016000206001600281106115f9577f4e487b7100000000000000000000000000000000000000000000000000000000600052603260045260246000fd5b60029182820401919006600e029054906101000a90046dffffffffffffffffffffffffffff166116299190615960565b6dffffffffffffffffffffffffffff168461312e90919063ffffffff16565b60066000600185611659919061590a565b81526020019081526020016000206001600281106116a0577f4e487b7100000000000000000000000000000000000000000000000000000000600052603260045260246000fd5b60029182820401919006600e029054906101000a90046dffffffffffffffffffffffffffff166dffffffffffffffffffffffffffff166130b590919063ffffffff16565b600660006001846116f5919061590a565b815260200190815260200160002060016002811061173c577f4e487b7100000000000000000000000000000000000000000000000000000000600052603260045260246000fd5b60029182820401919006600e026101000a8154816dffffffffffffffffffffffffffff02191690836dffffffffffffffffffffffffffff160217905550611819826006600060018561178e919061590a565b81526020019081526020016000206000600281106117d5577f4e487b7100000000000000000000000000000000000000000000000000000000600052603260045260246000fd5b60029182820401919006600e029054906101000a90046dffffffffffffffffffffffffffff166dffffffffffffffffffffffffffff166130b590919063ffffffff16565b6006600060018461182a919061590a565b8152602001908152602001600020600060028110611871577f4e487b7100000000000000000000000000000000000000000000000000000000600052603260045260246000fd5b60029182820401919006600e026101000a8154816dffffffffffffffffffffffffffff02191690836dffffffffffffffffffffffffffff160217905550806118b890615bd8565b9050611514565b505b6118dd336000836040518060200160405280600081525061319b565b6118f28160085461333190919063ffffffff16565b60088190555050565b60055481565b600460009054906101000a900473ffffffffffffffffffffffffffffffffffffffff1681565b600061193433600061040a565b11611974576040517f08c379a000000000000000000000000000000000000000000000000000000000815260040161196b90615478565b60405180910390fd5b60005b6002811015611c3d57611a4160085461199b846008546129c190919063ffffffff16565b6119a59190615991565b600660006001856119b6919061590a565b81526020019081526020016000206000600281106119fd577f4e487b7100000000000000000000000000000000000000000000000000000000600052603260045260246000fd5b60029182820401919006600e029054906101000a90046dffffffffffffffffffffffffffff166dffffffffffffffffffffffffffff1661338a90919063ffffffff16565b60066000600184611a52919061590a565b8152602001908152602001600020600060028110611a99577f4e487b7100000000000000000000000000000000000000000000000000000000600052603260045260246000fd5b60029182820401919006600e026101000a8154816dffffffffffffffffffffffffffff02191690836dffffffffffffffffffffffffffff160217905550611b97600854611af1846008546129c190919063ffffffff16565b611afb9190615991565b60066000600185611b0c919061590a565b8152602001908152602001600020600160028110611b53577f4e487b7100000000000000000000000000000000000000000000000000000000600052603260045260246000fd5b60029182820401919006600e029054906101000a90046dffffffffffffffffffffffffffff166dffffffffffffffffffffffffffff1661338a90919063ffffffff16565b60066000600184611ba8919061590a565b8152602001908152602001600020600160028110611bef577f4e487b7100000000000000000000000000000000000000000000000000000000600052603260045260246000fd5b60029182820401919006600e026101000a8154816dffffffffffffffffffffffffffff02191690836dffffffffffffffffffffffffffff16021790555080611c3690615bd8565b9050611977565b50611c74600854611c59836008546129c190919063ffffffff16565b611c639190615991565b60075461312e90919063ffffffff16565b600781905550600360009054906101000a900473ffffffffffffffffffffffffffffffffffffffff1673ffffffffffffffffffffffffffffffffffffffff1663a9059cbb33836040518363ffffffff1660e01b8152600401611cd792919061533e565b602060405180830381600087803b158015611cf157600080fd5b505af1158015611d05573d6000803e3d6000fd5b505050506040513d601f19601f82011682018060405250810190611d2991906146c5565b611d68576040517f08c379a0000000000000000000000000000000000000000000000000000000008152600401611d5f90615498565b60405180910390fd5b611d7433600083613427565b611d89816008546129c190919063ffffffff16565b60088190555050565b8173ffffffffffffffffffffffffffffffffffffffff16611db1612ed5565b73ffffffffffffffffffffffffffffffffffffffff161415611e08576040517f08c379a0000000000000000000000000000000000000000000000000000000008152600401611dff90615678565b60405180910390fd5b8060016000611e15612ed5565b73ffffffffffffffffffffffffffffffffffffffff1673ffffffffffffffffffffffffffffffffffffffff16815260200190815260200160002060008473ffffffffffffffffffffffffffffffffffffffff1673ffffffffffffffffffffffffffffffffffffffff16815260200190815260200160002060006101000a81548160ff0219169083151502179055508173ffffffffffffffffffffffffffffffffffffffff16611ec2612ed5565b73ffffffffffffffffffffffffffffffffffffffff167f17307eab39ab6107e8899845ad3d59bd9653f200f220920489ca2b5937696c3183604051611f0791906153c0565b60405180910390a35050565b600460009054906101000a900473ffffffffffffffffffffffffffffffffffffffff1673ffffffffffffffffffffffffffffffffffffffff163373ffffffffffffffffffffffffffffffffffffffff1614611fa3576040517f08c379a0000000000000000000000000000000000000000000000000000000008152600401611f9a90615738565b60405180910390fd5b80600b8190555050565b611fb7828261364d565b5050565b60085481565b6000600267ffffffffffffffff811115612004577f4e487b7100000000000000000000000000000000000000000000000000000000600052604160045260246000fd5b6040519080825280602002602001820160405280156120325781602001602082028036833780820191505090505b5090506000600267ffffffffffffffff811115612078577f4e487b7100000000000000000000000000000000000000000000000000000000600052604160045260246000fd5b6040519080825280602002602001820160405280156120a65781602001602082028036833780820191505090505b50905060005b600281101561215e576001816120c2919061590a565b8382815181106120fb577f4e487b7100000000000000000000000000000000000000000000000000000000600052603260045260246000fd5b60200260200101818152505083828281518110612141577f4e487b7100000000000000000000000000000000000000000000000000000000600052603260045260246000fd5b6020026020010181815250508061215790615bd8565b90506120ac565b50600360009054906101000a900473ffffffffffffffffffffffffffffffffffffffff1673ffffffffffffffffffffffffffffffffffffffff166323b872dd3330866040518463ffffffff1660e01b81526004016121be939291906152ad565b602060405180830381600087803b1580156121d857600080fd5b505af11580156121ec573d6000803e3d6000fd5b505050506040513d601f19601f8201168201806040525081019061221091906146c5565b61224f576040517f08c379a0000000000000000000000000000000000000000000000000000000008152600401612246906155f8565b60405180910390fd5b61226a33838360405180602001604052806000815250613af6565b61227f8360075461333190919063ffffffff16565b60078190555061229a8360085461333190919063ffffffff16565b600881905550505050565b6000600160008473ffffffffffffffffffffffffffffffffffffffff1673ffffffffffffffffffffffffffffffffffffffff16815260200190815260200160002060008373ffffffffffffffffffffffffffffffffffffffff1673ffffffffffffffffffffffffffffffffffffffff16815260200190815260200160002060009054906101000a900460ff16905092915050565b600073ffffffffffffffffffffffffffffffffffffffff168473ffffffffffffffffffffffffffffffffffffffff1614156123a9576040517f08c379a00000000000000000000000000000000000000000000000000000000081526004016123a0906155b8565b60405180910390fd5b6123b1612ed5565b73ffffffffffffffffffffffffffffffffffffffff168573ffffffffffffffffffffffffffffffffffffffff1614806123f757506123f6856123f1612ed5565b6122a5565b5b612436576040517f08c379a000000000000000000000000000000000000000000000000000000000815260040161242d90615578565b60405180910390fd5b6000612440612ed5565b905061246081878761245188613d60565b61245a88613d60565b87612edd565b600080600086815260200190815260200160002060008873ffffffffffffffffffffffffffffffffffffffff1673ffffffffffffffffffffffffffffffffffffffff168152602001908152602001600020549050838110156124f7576040517f08c379a00000000000000000000000000000000000000000000000000000000081526004016124ee90615658565b60405180910390fd5b83816125039190615a98565b60008087815260200190815260200160002060008973ffffffffffffffffffffffffffffffffffffffff1673ffffffffffffffffffffffffffffffffffffffff168152602001908152602001600020819055508360008087815260200190815260200160002060008873ffffffffffffffffffffffffffffffffffffffff1673ffffffffffffffffffffffffffffffffffffffff16815260200190815260200160002060008282546125b5919061590a565b925050819055508573ffffffffffffffffffffffffffffffffffffffff168773ffffffffffffffffffffffffffffffffffffffff168373ffffffffffffffffffffffffffffffffffffffff167fc3d58168c5ae7397731d063d5bbf3d657854427343f4c083240f7aacaa2d0f628888604051612632929190615773565b60405180910390a4612648828888888888613e26565b50505050505050565b60007f01ffc9a7000000000000000000000000000000000000000000000000000000007bffffffffffffffffffffffffffffffffffffffffffffffffffffffff1916827bffffffffffffffffffffffffffffffffffffffffffffffffffffffff1916149050919050565b600073ffffffffffffffffffffffffffffffffffffffff168373ffffffffffffffffffffffffffffffffffffffff16141561272b576040517f08c379a000000000000000000000000000000000000000000000000000000000815260040161272290615638565b60405180910390fd5b805182511461276f576040517f08c379a0000000000000000000000000000000000000000000000000000000008152600401612766906156d8565b60405180910390fd5b6000612779612ed5565b905061279981856000868660405180602001604052806000815250612edd565b60005b835181101561293b5760008482815181106127e0577f4e487b7100000000000000000000000000000000000000000000000000000000600052603260045260246000fd5b602002602001015190506000848381518110612825577f4e487b7100000000000000000000000000000000000000000000000000000000600052603260045260246000fd5b60200260200101519050600080600084815260200190815260200160002060008973ffffffffffffffffffffffffffffffffffffffff1673ffffffffffffffffffffffffffffffffffffffff168152602001908152602001600020549050818110156128c6576040517f08c379a00000000000000000000000000000000000000000000000000000000081526004016128bd90615518565b60405180910390fd5b81816128d29190615a98565b60008085815260200190815260200160002060008a73ffffffffffffffffffffffffffffffffffffffff1673ffffffffffffffffffffffffffffffffffffffff16815260200190815260200160002081905550505050808061293390615bd8565b91505061279c565b50600073ffffffffffffffffffffffffffffffffffffffff168473ffffffffffffffffffffffffffffffffffffffff168273ffffffffffffffffffffffffffffffffffffffff167f4a39dc06d4c0dbc64b70af90fd698a233a518aa5d07e595d983b8c0526c8f7fb86866040516129b3929190615389565b60405180910390a450505050565b60008282846129d09190615a98565b9150811115612a14576040517f08c379a0000000000000000000000000000000000000000000000000000000008152600401612a0b90615438565b60405180910390fd5b92915050565b60016000612a289190615a64565b6dffffffffffffffffffffffffffff16821115612a7a576040517f08c379a0000000000000000000000000000000000000000000000000000000008152600401612a71906156b8565b60405180910390fd5b6000612b898360066000858152602001908152602001600020600060028110612acc577f4e487b7100000000000000000000000000000000000000000000000000000000600052603260045260246000fd5b60029182820401919006600e029054906101000a90046dffffffffffffffffffffffffffff166dffffffffffffffffffffffffffff1660066000868152602001908152602001600020600160028110612b4e577f4e487b7100000000000000000000000000000000000000000000000000000000600052603260045260246000fd5b60029182820401919006600e029054906101000a90046dffffffffffffffffffffffffffff166dffffffffffffffffffffffffffff16613ff6565b9050600360009054906101000a900473ffffffffffffffffffffffffffffffffffffffff1673ffffffffffffffffffffffffffffffffffffffff166323b872dd3330846040518463ffffffff1660e01b8152600401612bea939291906152ad565b602060405180830381600087803b158015612c0457600080fd5b505af1158015612c18573d6000803e3d6000fd5b505050506040513d601f19601f82011682018060405250810190612c3c91906146c5565b612c7b576040517f08c379a0000000000000000000000000000000000000000000000000000000008152600401612c72906154b8565b60405180910390fd5b612c963383856040518060200160405280600081525061319b565b612d2a8360066000858152602001908152602001600020600060028110612ce6577f4e487b7100000000000000000000000000000000000000000000000000000000600052603260045260246000fd5b60029182820401919006600e029054906101000a90046dffffffffffffffffffffffffffff166dffffffffffffffffffffffffffff166140e190919063ffffffff16565b60066000848152602001908152602001600020600060028110612d76577f4e487b7100000000000000000000000000000000000000000000000000000000600052603260045260246000fd5b60029182820401919006600e026101000a8154816dffffffffffffffffffffffffffff02191690836dffffffffffffffffffffffffffff160217905550612e478160066000858152602001908152602001600020600160028110612e03577f4e487b7100000000000000000000000000000000000000000000000000000000600052603260045260246000fd5b60029182820401919006600e029054906101000a90046dffffffffffffffffffffffffffff166dffffffffffffffffffffffffffff166130b590919063ffffffff16565b60066000848152602001908152602001600020600160028110612e93577f4e487b7100000000000000000000000000000000000000000000000000000000600052603260045260246000fd5b60029182820401919006600e026101000a8154816dffffffffffffffffffffffffffff02191690836dffffffffffffffffffffffffffff160217905550505050565b600033905090565b505050505050565b612f048473ffffffffffffffffffffffffffffffffffffffff1661415a565b156130ad578373ffffffffffffffffffffffffffffffffffffffff1663bc197c8187878686866040518663ffffffff1660e01b8152600401612f4a959493929190615245565b602060405180830381600087803b158015612f6457600080fd5b505af1925050508015612f9557506040513d601f19601f82011682018060405250810190612f929190614717565b60015b61302457612fa1615cfb565b80612fac5750612fe9565b806040517f08c379a0000000000000000000000000000000000000000000000000000000008152600401612fe091906153f6565b60405180910390fd5b6040517f08c379a000000000000000000000000000000000000000000000000000000000815260040161301b90615418565b60405180910390fd5b63bc197c8160e01b7bffffffffffffffffffffffffffffffffffffffffffffffffffffffff1916817bffffffffffffffffffffffffffffffffffffffffffffffffffffffff1916146130ab576040517f08c379a00000000000000000000000000000000000000000000000000000000081526004016130a290615458565b60405180910390fd5b505b505050505050565b6000826dffffffffffffffffffffffffffff1682846130d491906158c6565b9150816dffffffffffffffffffffffffffff161015613128576040517f08c379a000000000000000000000000000000000000000000000000000000000815260040161311f90615558565b60405180910390fd5b92915050565b6000808214806131565750828283856131479190615a0a565b9250826131549190615991565b145b613195576040517f08c379a000000000000000000000000000000000000000000000000000000000815260040161318c906154f8565b60405180910390fd5b92915050565b600073ffffffffffffffffffffffffffffffffffffffff168473ffffffffffffffffffffffffffffffffffffffff16141561320b576040517f08c379a0000000000000000000000000000000000000000000000000000000008152600401613202906156f8565b60405180910390fd5b6000613215612ed5565b90506132368160008761322788613d60565b61323088613d60565b87612edd565b8260008086815260200190815260200160002060008773ffffffffffffffffffffffffffffffffffffffff1673ffffffffffffffffffffffffffffffffffffffff1681526020019081526020016000206000828254613295919061590a565b925050819055508473ffffffffffffffffffffffffffffffffffffffff16600073ffffffffffffffffffffffffffffffffffffffff168273ffffffffffffffffffffffffffffffffffffffff167fc3d58168c5ae7397731d063d5bbf3d657854427343f4c083240f7aacaa2d0f628787604051613313929190615773565b60405180910390a461332a81600087878787613e26565b5050505050565b6000828284613340919061590a565b9150811015613384576040517f08c379a000000000000000000000000000000000000000000000000000000000815260040161337b90615558565b60405180910390fd5b92915050565b600080826dffffffffffffffffffffffffffff1614806133e25750826dffffffffffffffffffffffffffff168283856133c391906159c2565b9250826133d09190615960565b6dffffffffffffffffffffffffffff16145b613421576040517f08c379a0000000000000000000000000000000000000000000000000000000008152600401613418906154f8565b60405180910390fd5b92915050565b600073ffffffffffffffffffffffffffffffffffffffff168373ffffffffffffffffffffffffffffffffffffffff161415613497576040517f08c379a000000000000000000000000000000000000000000000000000000000815260040161348e90615638565b60405180910390fd5b60006134a1612ed5565b90506134d1818560006134b387613d60565b6134bc87613d60565b60405180602001604052806000815250612edd565b600080600085815260200190815260200160002060008673ffffffffffffffffffffffffffffffffffffffff1673ffffffffffffffffffffffffffffffffffffffff16815260200190815260200160002054905082811015613568576040517f08c379a000000000000000000000000000000000000000000000000000000000815260040161355f90615518565b60405180910390fd5b82816135749190615a98565b60008086815260200190815260200160002060008773ffffffffffffffffffffffffffffffffffffffff1673ffffffffffffffffffffffffffffffffffffffff16815260200190815260200160002081905550600073ffffffffffffffffffffffffffffffffffffffff168573ffffffffffffffffffffffffffffffffffffffff168373ffffffffffffffffffffffffffffffffffffffff167fc3d58168c5ae7397731d063d5bbf3d657854427343f4c083240f7aacaa2d0f62878760405161363e929190615773565b60405180910390a45050505050565b6001600061365b9190615a64565b6dffffffffffffffffffffffffffff168211156136ad576040517f08c379a00000000000000000000000000000000000000000000000000000000081526004016136a4906156b8565b60405180910390fd5b60006137bc83600660008581526020019081526020016000206000600281106136ff577f4e487b7100000000000000000000000000000000000000000000000000000000600052603260045260246000fd5b60029182820401919006600e029054906101000a90046dffffffffffffffffffffffffffff166dffffffffffffffffffffffffffff1660066000868152602001908152602001600020600160028110613781577f4e487b7100000000000000000000000000000000000000000000000000000000600052603260045260246000fd5b60029182820401919006600e029054906101000a90046dffffffffffffffffffffffffffff166dffffffffffffffffffffffffffff1661416d565b90506137c9338385613427565b600360009054906101000a900473ffffffffffffffffffffffffffffffffffffffff1673ffffffffffffffffffffffffffffffffffffffff1663a9059cbb33836040518363ffffffff1660e01b815260040161382692919061533e565b602060405180830381600087803b15801561384057600080fd5b505af1158015613854573d6000803e3d6000fd5b505050506040513d601f19601f8201168201806040525081019061387891906146c5565b6138b7576040517f08c379a00000000000000000000000000000000000000000000000000000000081526004016138ae90615598565b60405180910390fd5b61394b8360066000858152602001908152602001600020600060028110613907577f4e487b7100000000000000000000000000000000000000000000000000000000600052603260045260246000fd5b60029182820401919006600e029054906101000a90046dffffffffffffffffffffffffffff166dffffffffffffffffffffffffffff166130b590919063ffffffff16565b60066000848152602001908152602001600020600060028110613997577f4e487b7100000000000000000000000000000000000000000000000000000000600052603260045260246000fd5b60029182820401919006600e026101000a8154816dffffffffffffffffffffffffffff02191690836dffffffffffffffffffffffffffff160217905550613a688160066000858152602001908152602001600020600160028110613a24577f4e487b7100000000000000000000000000000000000000000000000000000000600052603260045260246000fd5b60029182820401919006600e029054906101000a90046dffffffffffffffffffffffffffff166dffffffffffffffffffffffffffff166140e190919063ffffffff16565b60066000848152602001908152602001600020600160028110613ab4577f4e487b7100000000000000000000000000000000000000000000000000000000600052603260045260246000fd5b60029182820401919006600e026101000a8154816dffffffffffffffffffffffffffff02191690836dffffffffffffffffffffffffffff160217905550505050565b600073ffffffffffffffffffffffffffffffffffffffff168473ffffffffffffffffffffffffffffffffffffffff161415613b66576040517f08c379a0000000000000000000000000000000000000000000000000000000008152600401613b5d906156f8565b60405180910390fd5b8151835114613baa576040517f08c379a0000000000000000000000000000000000000000000000000000000008152600401613ba1906156d8565b60405180910390fd5b6000613bb4612ed5565b9050613bc581600087878787612edd565b60005b8451811015613cca57838181518110613c0a577f4e487b7100000000000000000000000000000000000000000000000000000000600052603260045260246000fd5b6020026020010151600080878481518110613c4e577f4e487b7100000000000000000000000000000000000000000000000000000000600052603260045260246000fd5b6020026020010151815260200190815260200160002060008873ffffffffffffffffffffffffffffffffffffffff1673ffffffffffffffffffffffffffffffffffffffff1681526020019081526020016000206000828254613cb0919061590a565b925050819055508080613cc290615bd8565b915050613bc8565b508473ffffffffffffffffffffffffffffffffffffffff16600073ffffffffffffffffffffffffffffffffffffffff168273ffffffffffffffffffffffffffffffffffffffff167f4a39dc06d4c0dbc64b70af90fd698a233a518aa5d07e595d983b8c0526c8f7fb8787604051613d42929190615389565b60405180910390a4613d5981600087878787612ee5565b5050505050565b60606000600167ffffffffffffffff811115613da5577f4e487b7100000000000000000000000000000000000000000000000000000000600052604160045260246000fd5b604051908082528060200260200182016040528015613dd35781602001602082028036833780820191505090505b5090508281600081518110613e11577f4e487b7100000000000000000000000000000000000000000000000000000000600052603260045260246000fd5b60200260200101818152505080915050919050565b613e458473ffffffffffffffffffffffffffffffffffffffff1661415a565b15613fee578373ffffffffffffffffffffffffffffffffffffffff1663f23a6e6187878686866040518663ffffffff1660e01b8152600401613e8b9594939291906152e4565b602060405180830381600087803b158015613ea557600080fd5b505af1925050508015613ed657506040513d601f19601f82011682018060405250810190613ed39190614717565b60015b613f6557613ee2615cfb565b80613eed5750613f2a565b806040517f08c379a0000000000000000000000000000000000000000000000000000000008152600401613f2191906153f6565b60405180910390fd5b6040517f08c379a0000000000000000000000000000000000000000000000000000000008152600401613f5c90615418565b60405180910390fd5b63f23a6e6160e01b7bffffffffffffffffffffffffffffffffffffffffffffffffffffffff1916817bffffffffffffffffffffffffffffffffffffffffffffffffffffffff191614613fec576040517f08c379a0000000000000000000000000000000000000000000000000000000008152600401613fe390615458565b60405180910390fd5b505b505050505050565b600080841161403a576040517f08c379a000000000000000000000000000000000000000000000000000000000815260040161403190615538565b60405180910390fd5b60008211801561404a5750600083115b614089576040517f08c379a000000000000000000000000000000000000000000000000000000000815260040161408090615618565b60405180910390fd5b600061409e858461312e90919063ffffffff16565b905060006140b586866129c190919063ffffffff16565b90506140d6600182846140c89190615991565b61333190919063ffffffff16565b925050509392505050565b6000826dffffffffffffffffffffffffffff1682846141009190615a64565b9150816dffffffffffffffffffffffffffff161115614154576040517f08c379a000000000000000000000000000000000000000000000000000000000815260040161414b90615438565b60405180910390fd5b92915050565b600080823b905060008111915050919050565b60008084116141b1576040517f08c379a00000000000000000000000000000000000000000000000000000000081526004016141a890615718565b60405180910390fd5b6000821180156141c15750600083115b614200576040517f08c379a00000000000000000000000000000000000000000000000000000000081526004016141f790615618565b60405180910390fd5b6000614215838661312e90919063ffffffff16565b9050600061422c868661333190919063ffffffff16565b9050808261423a9190615991565b925050509392505050565b6000614258614253846157cd565b61579c565b9050808382526020820190508285602086028201111561427757600080fd5b60005b858110156142a7578161428d888261435b565b84526020840193506020830192505060018101905061427a565b5050509392505050565b60006142c46142bf846157f9565b61579c565b905080838252602082019050828560208602820111156142e357600080fd5b60005b8581101561431357816142f98882614442565b8452602084019350602083019250506001810190506142e6565b5050509392505050565b600061433061432b84615825565b61579c565b90508281526020810184848401111561434857600080fd5b614353848285615b64565b509392505050565b60008135905061436a81615db1565b92915050565b600082601f83011261438157600080fd5b8135614391848260208601614245565b91505092915050565b600082601f8301126143ab57600080fd5b81356143bb8482602086016142b1565b91505092915050565b6000813590506143d381615dc8565b92915050565b6000815190506143e881615dc8565b92915050565b6000813590506143fd81615ddf565b92915050565b60008151905061441281615ddf565b92915050565b600082601f83011261442957600080fd5b813561443984826020860161431d565b91505092915050565b60008135905061445181615df6565b92915050565b6000806040838503121561446a57600080fd5b60006144788582860161435b565b92505060206144898582860161435b565b9150509250929050565b600080600080600060a086880312156144ab57600080fd5b60006144b98882890161435b565b95505060206144ca8882890161435b565b945050604086013567ffffffffffffffff8111156144e757600080fd5b6144f38882890161439a565b935050606086013567ffffffffffffffff81111561451057600080fd5b61451c8882890161439a565b925050608086013567ffffffffffffffff81111561453957600080fd5b61454588828901614418565b9150509295509295909350565b600080600080600060a0868803121561456a57600080fd5b60006145788882890161435b565b95505060206145898882890161435b565b945050604061459a88828901614442565b93505060606145ab88828901614442565b925050608086013567ffffffffffffffff8111156145c857600080fd5b6145d488828901614418565b9150509295509295909350565b600080604083850312156145f457600080fd5b60006146028582860161435b565b9250506020614613858286016143c4565b9150509250929050565b6000806040838503121561463057600080fd5b600061463e8582860161435b565b925050602061464f85828601614442565b9150509250929050565b6000806040838503121561466c57600080fd5b600083013567ffffffffffffffff81111561468657600080fd5b61469285828601614370565b925050602083013567ffffffffffffffff8111156146af57600080fd5b6146bb8582860161439a565b9150509250929050565b6000602082840312156146d757600080fd5b60006146e5848285016143d9565b91505092915050565b60006020828403121561470057600080fd5b600061470e848285016143ee565b91505092915050565b60006020828403121561472957600080fd5b600061473784828501614403565b91505092915050565b60006020828403121561475257600080fd5b600061476084828501614442565b91505092915050565b6000806040838503121561477c57600080fd5b600061478a85828601614442565b925050602061479b85828601614442565b9150509250929050565b60006147b1838361520c565b60208301905092915050565b6147c681615acc565b82525050565b60006147d782615865565b6147e18185615893565b93506147ec83615855565b8060005b8381101561481d57815161480488826147a5565b975061480f83615886565b9250506001810190506147f0565b5085935050505092915050565b61483381615ade565b82525050565b61484281615aea565b82525050565b600061485382615870565b61485d81856158a4565b935061486d818560208601615b73565b61487681615cdd565b840191505092915050565b600061488c8261587b565b61489681856158b5565b93506148a6818560208601615b73565b6148af81615cdd565b840191505092915050565b60006148c76034836158b5565b91507f455243313135353a207472616e7366657220746f206e6f6e204552433131353560008301527f526563656976657220696d706c656d656e7465720000000000000000000000006020830152604082019050919050565b600061492d6015836158b5565b91507f64732d6d6174682d7375622d756e646572666c6f7700000000000000000000006000830152602082019050919050565b600061496d6028836158b5565b91507f455243313135353a204552433131353552656365697665722072656a6563746560008301527f6420746f6b656e730000000000000000000000000000000000000000000000006020830152604082019050919050565b60006149d36025836158b5565b91507f6e6f7420656e6f756768206c697175696469747920746f6b656e7320746f207260008301527f656465656d0000000000000000000000000000000000000000000000000000006020830152604082019050919050565b6000614a396024836158b5565b91507f636f756c64206e6f74207472616e7366657220636f6c6c61746572616c20746f60008301527f6b656e73000000000000000000000000000000000000000000000000000000006020830152604082019050919050565b6000614a9f6019836158b5565b91507f756e61626c6520746f20726563656976652072657365727665000000000000006000830152602082019050919050565b6000614adf602b836158b5565b91507f455243313135353a2062616c616e636520717565727920666f7220746865207a60008301527f65726f20616464726573730000000000000000000000000000000000000000006020830152604082019050919050565b6000614b456014836158b5565b91507f64732d6d6174682d6d756c2d6f766572666c6f770000000000000000000000006000830152602082019050919050565b6000614b856024836158b5565b91507f455243313135353a206275726e20616d6f756e7420657863656564732062616c60008301527f616e6365000000000000000000000000000000000000000000000000000000006020830152604082019050919050565b6000614beb602c836158b5565b91507f556e697377617056324c6962726172793a20494e53554646494349454e545f4f60008301527f55545055545f414d4f554e5400000000000000000000000000000000000000006020830152604082019050919050565b6000614c516014836158b5565b91507f64732d6d6174682d6164642d6f766572666c6f770000000000000000000000006000830152602082019050919050565b6000614c916029836158b5565b91507f455243313135353a2063616c6c6572206973206e6f74206f776e6572206e6f7260008301527f20617070726f76656400000000000000000000000000000000000000000000006020830152604082019050919050565b6000614cf7601a836158b5565b91507f636f756c64206e6f74207472616e7366657220726573657276650000000000006000830152602082019050919050565b6000614d376025836158b5565b91507f455243313135353a207472616e7366657220746f20746865207a65726f20616460008301527f64726573730000000000000000000000000000000000000000000000000000006020830152604082019050919050565b6000614d9d6032836158b5565b91507f455243313135353a207472616e736665722063616c6c6572206973206e6f742060008301527f6f776e6572206e6f7220617070726f76656400000000000000000000000000006020830152604082019050919050565b6000614e036023836158b5565b91507f636f756c64206e6f74207265636569766520636f6c6c61746572616c20746f6b60008301527f656e7300000000000000000000000000000000000000000000000000000000006020830152604082019050919050565b6000614e696028836158b5565b91507f556e697377617056324c6962726172793a20494e53554646494349454e545f4c60008301527f49515549444954590000000000000000000000000000000000000000000000006020830152604082019050919050565b6000614ecf6023836158b5565b91507f455243313135353a206275726e2066726f6d20746865207a65726f206164647260008301527f65737300000000000000000000000000000000000000000000000000000000006020830152604082019050919050565b6000614f35602a836158b5565b91507f455243313135353a20696e73756666696369656e742062616c616e636520666f60008301527f72207472616e73666572000000000000000000000000000000000000000000006020830152604082019050919050565b6000614f9b6029836158b5565b91507f455243313135353a2073657474696e6720617070726f76616c2073746174757360008301527f20666f722073656c6600000000000000000000000000000000000000000000006020830152604082019050919050565b60006150016029836158b5565b91507f455243313135353a206163636f756e747320616e6420696473206c656e67746860008301527f206d69736d6174636800000000000000000000000000000000000000000000006020830152604082019050919050565b60006150676008836158b5565b91507f6f766572666c6f770000000000000000000000000000000000000000000000006000830152602082019050919050565b60006150a76028836158b5565b91507f455243313135353a2069647320616e6420616d6f756e7473206c656e6774682060008301527f6d69736d617463680000000000000000000000000000000000000000000000006020830152604082019050919050565b600061510d6021836158b5565b91507f455243313135353a206d696e7420746f20746865207a65726f2061646472657360008301527f73000000000000000000000000000000000000000000000000000000000000006020830152604082019050919050565b6000615173602b836158b5565b91507f556e697377617056324c6962726172793a20494e53554646494349454e545f4960008301527f4e5055545f414d4f554e540000000000000000000000000000000000000000006020830152604082019050919050565b60006151d9601a836158b5565b91507f4e6f6e2d6f7261636c652063616c6c65642076616c69646174650000000000006000830152602082019050919050565b61521581615b5a565b82525050565b61522481615b5a565b82525050565b600060208201905061523f60008301846147bd565b92915050565b600060a08201905061525a60008301886147bd565b61526760208301876147bd565b818103604083015261527981866147cc565b9050818103606083015261528d81856147cc565b905081810360808301526152a18184614848565b90509695505050505050565b60006060820190506152c260008301866147bd565b6152cf60208301856147bd565b6152dc604083018461521b565b949350505050565b600060a0820190506152f960008301886147bd565b61530660208301876147bd565b615313604083018661521b565b615320606083018561521b565b81810360808301526153328184614848565b90509695505050505050565b600060408201905061535360008301856147bd565b615360602083018461521b565b9392505050565b6000602082019050818103600083015261538181846147cc565b905092915050565b600060408201905081810360008301526153a381856147cc565b905081810360208301526153b781846147cc565b90509392505050565b60006020820190506153d5600083018461482a565b92915050565b60006020820190506153f06000830184614839565b92915050565b600060208201905081810360008301526154108184614881565b905092915050565b60006020820190508181036000830152615431816148ba565b9050919050565b6000602082019050818103600083015261545181614920565b9050919050565b6000602082019050818103600083015261547181614960565b9050919050565b60006020820190508181036000830152615491816149c6565b9050919050565b600060208201905081810360008301526154b181614a2c565b9050919050565b600060208201905081810360008301526154d181614a92565b9050919050565b600060208201905081810360008301526154f181614ad2565b9050919050565b6000602082019050818103600083015261551181614b38565b9050919050565b6000602082019050818103600083015261553181614b78565b9050919050565b6000602082019050818103600083015261555181614bde565b9050919050565b6000602082019050818103600083015261557181614c44565b9050919050565b6000602082019050818103600083015261559181614c84565b9050919050565b600060208201905081810360008301526155b181614cea565b9050919050565b600060208201905081810360008301526155d181614d2a565b9050919050565b600060208201905081810360008301526155f181614d90565b9050919050565b6000602082019050818103600083015261561181614df6565b9050919050565b6000602082019050818103600083015261563181614e5c565b9050919050565b6000602082019050818103600083015261565181614ec2565b9050919050565b6000602082019050818103600083015261567181614f28565b9050919050565b6000602082019050818103600083015261569181614f8e565b9050919050565b600060208201905081810360008301526156b181614ff4565b9050919050565b600060208201905081810360008301526156d18161505a565b9050919050565b600060208201905081810360008301526156f18161509a565b9050919050565b6000602082019050818103600083015261571181615100565b9050919050565b6000602082019050818103600083015261573181615166565b9050919050565b60006020820190508181036000830152615751816151cc565b9050919050565b600060208201905061576d600083018461521b565b92915050565b6000604082019050615788600083018561521b565b615795602083018461521b565b9392505050565b6000604051905081810181811067ffffffffffffffff821117156157c3576157c2615cae565b5b8060405250919050565b600067ffffffffffffffff8211156157e8576157e7615cae565b5b602082029050602081019050919050565b600067ffffffffffffffff82111561581457615813615cae565b5b602082029050602081019050919050565b600067ffffffffffffffff8211156158405761583f615cae565b5b601f19601f8301169050602081019050919050565b6000819050602082019050919050565b600081519050919050565b600081519050919050565b600081519050919050565b6000602082019050919050565b600082825260208201905092915050565b600082825260208201905092915050565b600082825260208201905092915050565b60006158d182615b20565b91506158dc83615b20565b9250826dffffffffffffffffffffffffffff038211156158ff576158fe615c21565b5b828201905092915050565b600061591582615b5a565b915061592083615b5a565b9250827fffffffffffffffffffffffffffffffffffffffffffffffffffffffffffffffff0382111561595557615954615c21565b5b828201905092915050565b600061596b82615b20565b915061597683615b20565b92508261598657615985615c50565b5b828204905092915050565b600061599c82615b5a565b91506159a783615b5a565b9250826159b7576159b6615c50565b5b828204905092915050565b60006159cd82615b20565b91506159d883615b20565b9250816dffffffffffffffffffffffffffff04831182151516156159ff576159fe615c21565b5b828202905092915050565b6000615a1582615b5a565b9150615a2083615b5a565b9250817fffffffffffffffffffffffffffffffffffffffffffffffffffffffffffffffff0483118215151615615a5957615a58615c21565b5b828202905092915050565b6000615a6f82615b20565b9150615a7a83615b20565b925082821015615a8d57615a8c615c21565b5b828203905092915050565b6000615aa382615b5a565b9150615aae83615b5a565b925082821015615ac157615ac0615c21565b5b828203905092915050565b6000615ad782615b3a565b9050919050565b60008115159050919050565b6000819050919050565b60007fffffffff0000000000000000000000000000000000000000000000000000000082169050919050565b60006dffffffffffffffffffffffffffff82169050919050565b600073ffffffffffffffffffffffffffffffffffffffff82169050919050565b6000819050919050565b82818337600083830152505050565b60005b83811015615b91578082015181840152602081019050615b76565b83811115615ba0576000848401525b50505050565b60006002820490506001821680615bbe57607f821691505b60208210811415615bd257615bd1615c7f565b5b50919050565b6000615be382615b5a565b91507fffffffffffffffffffffffffffffffffffffffffffffffffffffffffffffffff821415615c1657615c15615c21565b5b600182019050919050565b7f4e487b7100000000000000000000000000000000000000000000000000000000600052601160045260246000fd5b7f4e487b7100000000000000000000000000000000000000000000000000000000600052601260045260246000fd5b7f4e487b7100000000000000000000000000000000000000000000000000000000600052602260045260246000fd5b7f4e487b7100000000000000000000000000000000000000000000000000000000600052604160045260246000fd5b6000601f19601f8301169050919050565b60008160e01c9050919050565b600060443d1015615d0b57615dae565b60046000803e615d1c600051615cee565b6308c379a08114615d2d5750615dae565b60405160043d036004823e80513d602482011167ffffffffffffffff82111715615d5957505050615dae565b808201805167ffffffffffffffff811115615d78575050505050615dae565b8060208301013d8501811115615d9357505050505050615dae565b615d9c82615cdd565b60208401016040528296505050505050505b90565b615dba81615acc565b8114615dc557600080fd5b50565b615dd181615ade565b8114615ddc57600080fd5b50565b615de881615af4565b8114615df357600080fd5b50565b615dff81615b5a565b8114615e0a57600080fd5b5056fea2646970667358221220bf4cbf904554aec9e94fdc3bfad423767e4f948dfdd0c9e9b1a6635177fb163b64736f6c63430008000033",
  "immutableReferences": {},
  "source": "// SPDX-License-Identifier: MIT\npragma solidity ^0.8.0;\n\nimport \"@openzeppelin/contracts/token/ERC1155/ERC1155.sol\";\nimport \"@openzeppelin/contracts/token/ERC20/IERC20.sol\";\nimport \"./libraries/SafeMath.sol\";\nimport \"./libraries/SafeMath112.sol\";\n\ncontract Prediction is ERC1155(\"FREE\") {\n\n    using SafeMath for uint; \n    using SafeMath112 for uint112; \n\n    address public coin;\n    address public oracle; \n\n    bytes32 public identifier;\n\n    //maps from pool to items in pool C, R, k\n    mapping(uint => uint112[2]) contents;\n\n    uint public b;\n    uint public mints; \n\n    uint112[2] initialRatioNumerator;\n    uint112 initialRatioDenominator;\n\n    uint winner;\n\n    constructor (address _coin) {\n        coin = _coin;\n        oracle = msg.sender;  \n        identifier = keccak256(abi.encodePacked(oracle, \"Heads or Tails\", uint(2)));\n        initialRatioNumerator = [1, 1];\n        initialRatioDenominator = 2; \n    }\n\n    function buySet(uint _amount) public {\n        uint[] memory positionIds = new uint[](uint(2));\n        uint[] memory amounts = new uint[](uint(2));\n\n        for (uint i = 0; i < uint(2); ++i) {\n            positionIds[i] = i+1; \n            amounts[i] = _amount;\n        }\n\n        require(IERC20(coin).transferFrom(msg.sender, address(this), _amount), \"could not receive collateral tokens\");\n        _mintBatch(\n            msg.sender,\n            positionIds,\n            amounts,\n            \"\"\n        );\n        b = b.add(_amount); \n        mints = mints.add(_amount); \n    }\n\n    function sellSet(uint _amount) public {\n        uint[] memory positionIds = new uint[](uint(2));\n        uint[] memory amounts = new uint[](uint(2));\n\n        for (uint i = 0; i < uint(2); ++i) {\n            positionIds[i] = i+1; \n            amounts[i] = _amount;\n        }\n\n        _burnBatch(\n            msg.sender,\n            positionIds,\n            amounts\n        );\n        require(IERC20(coin).transfer(msg.sender, _amount), \"could not transfer collateral tokens\");\n        b = b.sub(_amount); \n        mints = mints.sub(_amount);  \n    }\n\n    function getState(uint _id) public view returns (uint _contractAmount, uint _reserveAmount) {\n        return (contents[_id][0], contents[_id][1]);\n    }\n\n    //taken from uniswap\n    function getReserveIn(uint _contractOut, uint _contractAmount, uint _reserveAmount) private pure returns (uint _reserveIn) {\n        require(_contractOut > 0, 'UniswapV2Library: INSUFFICIENT_OUTPUT_AMOUNT');\n        require(_reserveAmount > 0 && _contractAmount > 0, 'UniswapV2Library: INSUFFICIENT_LIQUIDITY');\n        uint numerator = _reserveAmount.mul(_contractOut);\n        uint denominator = _contractAmount.sub(_contractOut);\n        _reserveIn = (numerator / denominator).add(1);\n    }\n\n    //taken from uniswap\n    function getReserveOut(uint _contractIn, uint _contractAmount, uint _reserveAmount) private pure returns (uint _reserveOut) {\n        require(_contractIn > 0, 'UniswapV2Library: INSUFFICIENT_INPUT_AMOUNT');\n        require(_reserveAmount > 0 && _contractAmount > 0, 'UniswapV2Library: INSUFFICIENT_LIQUIDITY');\n        uint numerator = _contractIn.mul(_reserveAmount);\n        uint denominator = _contractAmount.add(_contractIn);\n        _reserveOut = numerator / denominator;\n    }\n\n    function _buyRaw(uint _amount, uint _id) private {\n        require(_amount <= uint112(0) - 1, \"overflow\"); \n        uint reserveIn = getReserveIn(_amount, contents[_id][0], contents[_id][1]);\n        require(IERC20(coin).transferFrom(msg.sender, address(this), reserveIn), \"unable to receive reserve\");\n        _mint(msg.sender, _id, _amount, \"\");\n        contents[_id][0] = contents[_id][0].sub(uint112(_amount)); \n        contents[_id][1] = contents[_id][1].add(uint112(reserveIn)); \n    }\n\n    function _sellRaw(uint _amount, uint _id) private {\n        require(_amount <= uint112(0) - 1, \"overflow\"); \n        uint reserveOut = getReserveOut(_amount, contents[_id][0], contents[_id][1]);\n        _burn(msg.sender, _id, _amount); \n        require(IERC20(coin).transfer(msg.sender, reserveOut), \"could not transfer reserve\");\n        contents[_id][0] = contents[_id][0].add(uint112(_amount)); \n        contents[_id][1] = contents[_id][1].sub(uint112(reserveOut)); \n    }\n\n    function buyContract(uint _amount, uint _id) public {\n        _buyRaw(_amount, _id);\n    }\n\n    function sellContract(uint _amount, uint _id) public {\n        _sellRaw(_amount, _id); \n    }\n\n    function addLiquidity(uint _amount) public {\n        require(_amount <= uint112(0) - 1, \"overflow\"); \n        require(IERC20(coin).transferFrom(msg.sender, address(this), _amount), \"unable to receive reserve\");\n        if (initialRatioDenominator != 0) {\n            for (uint i = 0; i < uint(2); ++i) {\n                contents[i+1][0] = contents[i+1][0].add(uint112(_amount));\n                contents[i+1][1] = contents[i+1][1].add(uint112(_amount.mul(initialRatioNumerator[i]) / initialRatioDenominator));\n            }\n            initialRatioDenominator = 0; \n        } else {\n            for (uint i = 0; i < uint(2); ++i) {\n                contents[i+1][1] = contents[i+1][1].add(uint112(_amount.mul(contents[i+1][1] / contents[i+1][0])));\n                contents[i+1][0] = contents[i+1][0].add(uint112(_amount));\n            }\n        }\n        _mint(msg.sender, 0, _amount, \"\");\n        mints = mints.add(_amount); \n    }\n\n    function removeLiquidity(uint _amount) public {\n        require(balanceOf(msg.sender, 0) > 0, \"not enough liquidity tokens to redeem\");\n        for (uint i = 0; i < uint(2); ++i) {\n            contents[i+1][0] = contents[i+1][0].mul(uint112(mints.sub(_amount) / mints));\n            contents[i+1][1] = contents[i+1][1].mul(uint112(mints.sub(_amount) / mints));\n        }\n        b = b.mul(mints.sub(_amount) / mints); \n        require(IERC20(coin).transfer(msg.sender, _amount), \"could not transfer collateral tokens\");\n        _burn(msg.sender, 0, _amount); \n        mints = mints.sub(_amount); \n    }\n\n    function validate(uint _id) public {\n        require(msg.sender == oracle, \"Non-oracle called validate\");\n        winner = _id; \n    }\n\n    // function redeem(uint _amount, uint _id) public {\n    //     require(_id == winner)\n    // }\n}",
  "sourcePath": "/Users/kylescott/src/simple_prediction/contracts/Prediction.sol",
  "compiler": {
    "name": "solc",
    "version": "0.8.0+commit.c7dfd78e.Emscripten.clang"
  },
  "schemaVersion": "3.2.4",
  "updatedAt": "2021-04-26T20:31:25.935Z",
  "devdoc": {
    "kind": "dev",
    "methods": {
      "balanceOf(address,uint256)": {
        "details": "See {IERC1155-balanceOf}. Requirements: - `account` cannot be the zero address."
      },
      "balanceOfBatch(address[],uint256[])": {
        "details": "See {IERC1155-balanceOfBatch}. Requirements: - `accounts` and `ids` must have the same length."
      },
      "isApprovedForAll(address,address)": {
        "details": "See {IERC1155-isApprovedForAll}."
      },
      "safeBatchTransferFrom(address,address,uint256[],uint256[],bytes)": {
        "details": "See {IERC1155-safeBatchTransferFrom}."
      },
      "safeTransferFrom(address,address,uint256,uint256,bytes)": {
        "details": "See {IERC1155-safeTransferFrom}."
      },
      "setApprovalForAll(address,bool)": {
        "details": "See {IERC1155-setApprovalForAll}."
      },
      "supportsInterface(bytes4)": {
        "details": "See {IERC165-supportsInterface}."
      },
      "uri(uint256)": {
        "details": "See {IERC1155MetadataURI-uri}. This implementation returns the same URI for *all* token types. It relies on the token type ID substitution mechanism https://eips.ethereum.org/EIPS/eip-1155#metadata[defined in the EIP]. Clients calling this function must replace the `\\{id\\}` substring with the actual token type ID."
      }
    },
    "version": 1
  },
  "userdoc": {
    "kind": "user",
    "methods": {},
    "version": 1
  }
}