{
  "contractName": "Prediction",
  "abi": [
    {
      "inputs": [
        {
          "internalType": "address",
          "name": "_coin",
          "type": "address"
        }
      ],
      "stateMutability": "nonpayable",
      "type": "constructor"
    },
    {
      "anonymous": false,
      "inputs": [
        {
          "indexed": true,
          "internalType": "address",
          "name": "account",
          "type": "address"
        },
        {
          "indexed": true,
          "internalType": "address",
          "name": "operator",
          "type": "address"
        },
        {
          "indexed": false,
          "internalType": "bool",
          "name": "approved",
          "type": "bool"
        }
      ],
      "name": "ApprovalForAll",
      "type": "event"
    },
    {
      "anonymous": false,
      "inputs": [
        {
          "indexed": true,
          "internalType": "address",
          "name": "operator",
          "type": "address"
        },
        {
          "indexed": true,
          "internalType": "address",
          "name": "from",
          "type": "address"
        },
        {
          "indexed": true,
          "internalType": "address",
          "name": "to",
          "type": "address"
        },
        {
          "indexed": false,
          "internalType": "uint256[]",
          "name": "ids",
          "type": "uint256[]"
        },
        {
          "indexed": false,
          "internalType": "uint256[]",
          "name": "values",
          "type": "uint256[]"
        }
      ],
      "name": "TransferBatch",
      "type": "event"
    },
    {
      "anonymous": false,
      "inputs": [
        {
          "indexed": true,
          "internalType": "address",
          "name": "operator",
          "type": "address"
        },
        {
          "indexed": true,
          "internalType": "address",
          "name": "from",
          "type": "address"
        },
        {
          "indexed": true,
          "internalType": "address",
          "name": "to",
          "type": "address"
        },
        {
          "indexed": false,
          "internalType": "uint256",
          "name": "id",
          "type": "uint256"
        },
        {
          "indexed": false,
          "internalType": "uint256",
          "name": "value",
          "type": "uint256"
        }
      ],
      "name": "TransferSingle",
      "type": "event"
    },
    {
      "anonymous": false,
      "inputs": [
        {
          "indexed": false,
          "internalType": "string",
          "name": "value",
          "type": "string"
        },
        {
          "indexed": true,
          "internalType": "uint256",
          "name": "id",
          "type": "uint256"
        }
      ],
      "name": "URI",
      "type": "event"
    },
    {
      "inputs": [],
      "name": "b",
      "outputs": [
        {
          "internalType": "uint112",
          "name": "",
          "type": "uint112"
        }
      ],
      "stateMutability": "view",
      "type": "function"
    },
    {
      "inputs": [
        {
          "internalType": "address",
          "name": "account",
          "type": "address"
        },
        {
          "internalType": "uint256",
          "name": "id",
          "type": "uint256"
        }
      ],
      "name": "balanceOf",
      "outputs": [
        {
          "internalType": "uint256",
          "name": "",
          "type": "uint256"
        }
      ],
      "stateMutability": "view",
      "type": "function"
    },
    {
      "inputs": [
        {
          "internalType": "address[]",
          "name": "accounts",
          "type": "address[]"
        },
        {
          "internalType": "uint256[]",
          "name": "ids",
          "type": "uint256[]"
        }
      ],
      "name": "balanceOfBatch",
      "outputs": [
        {
          "internalType": "uint256[]",
          "name": "",
          "type": "uint256[]"
        }
      ],
      "stateMutability": "view",
      "type": "function"
    },
    {
      "inputs": [],
      "name": "coin",
      "outputs": [
        {
          "internalType": "address",
          "name": "",
          "type": "address"
        }
      ],
      "stateMutability": "view",
      "type": "function"
    },
    {
      "inputs": [],
      "name": "identifier",
      "outputs": [
        {
          "internalType": "bytes32",
          "name": "",
          "type": "bytes32"
        }
      ],
      "stateMutability": "view",
      "type": "function"
    },
    {
      "inputs": [
        {
          "internalType": "address",
          "name": "account",
          "type": "address"
        },
        {
          "internalType": "address",
          "name": "operator",
          "type": "address"
        }
      ],
      "name": "isApprovedForAll",
      "outputs": [
        {
          "internalType": "bool",
          "name": "",
          "type": "bool"
        }
      ],
      "stateMutability": "view",
      "type": "function"
    },
    {
      "inputs": [],
      "name": "oracle",
      "outputs": [
        {
          "internalType": "address",
          "name": "",
          "type": "address"
        }
      ],
      "stateMutability": "view",
      "type": "function"
    },
    {
      "inputs": [
        {
          "internalType": "address",
          "name": "from",
          "type": "address"
        },
        {
          "internalType": "address",
          "name": "to",
          "type": "address"
        },
        {
          "internalType": "uint256[]",
          "name": "ids",
          "type": "uint256[]"
        },
        {
          "internalType": "uint256[]",
          "name": "amounts",
          "type": "uint256[]"
        },
        {
          "internalType": "bytes",
          "name": "data",
          "type": "bytes"
        }
      ],
      "name": "safeBatchTransferFrom",
      "outputs": [],
      "stateMutability": "nonpayable",
      "type": "function"
    },
    {
      "inputs": [
        {
          "internalType": "address",
          "name": "from",
          "type": "address"
        },
        {
          "internalType": "address",
          "name": "to",
          "type": "address"
        },
        {
          "internalType": "uint256",
          "name": "id",
          "type": "uint256"
        },
        {
          "internalType": "uint256",
          "name": "amount",
          "type": "uint256"
        },
        {
          "internalType": "bytes",
          "name": "data",
          "type": "bytes"
        }
      ],
      "name": "safeTransferFrom",
      "outputs": [],
      "stateMutability": "nonpayable",
      "type": "function"
    },
    {
      "inputs": [
        {
          "internalType": "address",
          "name": "operator",
          "type": "address"
        },
        {
          "internalType": "bool",
          "name": "approved",
          "type": "bool"
        }
      ],
      "name": "setApprovalForAll",
      "outputs": [],
      "stateMutability": "nonpayable",
      "type": "function"
    },
    {
      "inputs": [
        {
          "internalType": "bytes4",
          "name": "interfaceId",
          "type": "bytes4"
        }
      ],
      "name": "supportsInterface",
      "outputs": [
        {
          "internalType": "bool",
          "name": "",
          "type": "bool"
        }
      ],
      "stateMutability": "view",
      "type": "function"
    },
    {
      "inputs": [
        {
          "internalType": "uint256",
          "name": "",
          "type": "uint256"
        }
      ],
      "name": "uri",
      "outputs": [
        {
          "internalType": "string",
          "name": "",
          "type": "string"
        }
      ],
      "stateMutability": "view",
      "type": "function"
    },
    {
      "inputs": [
        {
          "internalType": "uint256",
          "name": "_amount",
          "type": "uint256"
        }
      ],
      "name": "buySet",
      "outputs": [],
      "stateMutability": "nonpayable",
      "type": "function"
    },
    {
      "inputs": [
        {
          "internalType": "uint256",
          "name": "_amount",
          "type": "uint256"
        }
      ],
      "name": "sellSet",
      "outputs": [],
      "stateMutability": "nonpayable",
      "type": "function"
    },
    {
      "inputs": [
        {
          "internalType": "uint256",
          "name": "_id",
          "type": "uint256"
        }
      ],
      "name": "getState",
      "outputs": [
        {
          "internalType": "uint256",
          "name": "_contractAmount",
          "type": "uint256"
        },
        {
          "internalType": "uint256",
          "name": "_reserveAmount",
          "type": "uint256"
        }
      ],
      "stateMutability": "view",
      "type": "function"
    },
    {
      "inputs": [
        {
          "internalType": "uint256",
          "name": "_amount",
          "type": "uint256"
        }
      ],
      "name": "addLiquidity",
      "outputs": [],
      "stateMutability": "nonpayable",
      "type": "function"
    },
    {
      "inputs": [
        {
          "internalType": "uint256",
          "name": "_id",
          "type": "uint256"
        }
      ],
      "name": "validate",
      "outputs": [],
      "stateMutability": "nonpayable",
      "type": "function"
    }
  ],
  "bytecode": "0x60806040523480156200001157600080fd5b506040516200459338038062004593833981810160405281019062000037919062000360565b6040518060400160405280600481526020017f46524545000000000000000000000000000000000000000000000000000000008152506200007e81620001c260201b60201c565b5080600360006101000a81548173ffffffffffffffffffffffffffffffffffffffff021916908373ffffffffffffffffffffffffffffffffffffffff16021790555033600460006101000a81548173ffffffffffffffffffffffffffffffffffffffff021916908373ffffffffffffffffffffffffffffffffffffffff160217905550600460009054906101000a900473ffffffffffffffffffffffffffffffffffffffff1660026040516020016200013992919062000404565b604051602081830303815290604052805190602001206005819055506040518060400160405280600160ff168152602001600160ff16815250600890600262000184929190620001de565b506002600960006101000a8154816dffffffffffffffffffffffffffff02191690836dffffffffffffffffffffffffffff1602179055505062000548565b8060029080519060200190620001da92919062000299565b5050565b826002600101600290048101928215620002865791602002820160005b838211156200024857835183826101000a8154816dffffffffffffffffffffffffffff021916908360ff1602179055509260200192600e01602081600d01049283019260010302620001fb565b8015620002845782816101000a8154906dffffffffffffffffffffffffffff0219169055600e01602081600d0104928301926001030262000248565b505b5090506200029591906200032a565b5090565b828054620002a7906200048a565b90600052602060002090601f016020900481019282620002cb576000855562000317565b82601f10620002e657805160ff191683800117855562000317565b8280016001018555821562000317579182015b8281111562000316578251825591602001919060010190620002f9565b5b5090506200032691906200032a565b5090565b5b80821115620003455760008160009055506001016200032b565b5090565b6000815190506200035a816200052e565b92915050565b6000602082840312156200037357600080fd5b6000620003838482850162000349565b91505092915050565b620003a16200039b826200044c565b620004c0565b82525050565b6000620003b6600e8362000441565b91507f4865616473206f72205461696c730000000000000000000000000000000000006000830152600e82019050919050565b620003fe620003f88262000480565b620004e8565b82525050565b60006200041282856200038c565b6014820191506200042382620003a7565b9150620004318284620003e9565b6020820191508190509392505050565b600081905092915050565b6000620004598262000460565b9050919050565b600073ffffffffffffffffffffffffffffffffffffffff82169050919050565b6000819050919050565b60006002820490506001821680620004a357607f821691505b60208210811415620004ba57620004b9620004f2565b5b50919050565b6000620004cd82620004d4565b9050919050565b6000620004e18262000521565b9050919050565b6000819050919050565b7f4e487b7100000000000000000000000000000000000000000000000000000000600052602260045260246000fd5b60008160601b9050919050565b62000539816200044c565b81146200054557600080fd5b50565b61403b80620005586000396000f3fe608060405234801561001057600080fd5b506004361061010a5760003560e01c80634e1273f4116100a2578063a22cb46511610071578063a22cb465146102cc578063ce4d01a3146102e8578063e96b67f314610304578063e985e9c514610320578063f242432a146103505761010a565b80634e1273f41461024457806351c6590a146102745780637998a1c4146102905780637dc0d1d0146102ae5761010a565b806311df9995116100de57806311df9995146101bb5780632eb2c2d6146101d957806344c9af28146101f55780634df7e3d0146102265761010a565b8062fdd58e1461010f57806301ffc9a71461013f5780630376042b1461016f5780630e89341c1461018b575b600080fd5b61012960048036038101906101249190612c38565b61036c565b60405161013691906139c9565b60405180910390f35b61015960048036038101906101549190612d09565b610435565b6040516101669190613716565b60405180910390f35b61018960048036038101906101849190612d5b565b610517565b005b6101a560048036038101906101a09190612d5b565b610810565b6040516101b2919061374c565b60405180910390f35b6101c36108a4565b6040516101d09190613580565b60405180910390f35b6101f360048036038101906101ee9190612aae565b6108ca565b005b61020f600480360381019061020a9190612d5b565b610cc0565b60405161021d9291906139e4565b60405180910390f35b61022e610d68565b60405161023b91906139ae565b60405180910390f35b61025e60048036038101906102599190612c74565b610d88565b60405161026b91906136bd565b60405180910390f35b61028e60048036038101906102899190612d5b565b610f39565b005b6102986112fc565b6040516102a59190613731565b60405180910390f35b6102b6611302565b6040516102c39190613580565b60405180910390f35b6102e660048036038101906102e19190612bfc565b611328565b005b61030260048036038101906102fd9190612d5b565b6114a9565b005b61031e60048036038101906103199190612d5b565b611543565b005b61033a60048036038101906103359190612a72565b61184e565b6040516103479190613716565b60405180910390f35b61036a60048036038101906103659190612b6d565b6118e2565b005b60008073ffffffffffffffffffffffffffffffffffffffff168373ffffffffffffffffffffffffffffffffffffffff1614156103dd576040517f08c379a00000000000000000000000000000000000000000000000000000000081526004016103d4906137ee565b60405180910390fd5b60008083815260200190815260200160002060008473ffffffffffffffffffffffffffffffffffffffff1673ffffffffffffffffffffffffffffffffffffffff16815260200190815260200160002054905092915050565b60007fd9b67a26000000000000000000000000000000000000000000000000000000007bffffffffffffffffffffffffffffffffffffffffffffffffffffffff1916827bffffffffffffffffffffffffffffffffffffffffffffffffffffffff1916148061050057507f0e89341c000000000000000000000000000000000000000000000000000000007bffffffffffffffffffffffffffffffffffffffffffffffffffffffff1916827bffffffffffffffffffffffffffffffffffffffffffffffffffffffff1916145b80610510575061050f82611bfa565b5b9050919050565b6000600267ffffffffffffffff81111561055a577f4e487b7100000000000000000000000000000000000000000000000000000000600052604160045260246000fd5b6040519080825280602002602001820160405280156105885781602001602082028036833780820191505090505b5090506000600267ffffffffffffffff8111156105ce577f4e487b7100000000000000000000000000000000000000000000000000000000600052604160045260246000fd5b6040519080825280602002602001820160405280156105fc5781602001602082028036833780820191505090505b50905060005b60028110156106b4576001816106189190613b7b565b838281518110610651577f4e487b7100000000000000000000000000000000000000000000000000000000600052603260045260246000fd5b60200260200101818152505083828281518110610697577f4e487b7100000000000000000000000000000000000000000000000000000000600052603260045260246000fd5b602002602001018181525050806106ad90613dd0565b9050610602565b506106c0338383611c64565b600360009054906101000a900473ffffffffffffffffffffffffffffffffffffffff1673ffffffffffffffffffffffffffffffffffffffff1663a9059cbb33856040518363ffffffff1660e01b815260040161071d929190613694565b602060405180830381600087803b15801561073757600080fd5b505af115801561074b573d6000803e3d6000fd5b505050506040513d601f19601f8201168201806040525081019061076f9190612ce0565b6107ae576040517f08c379a00000000000000000000000000000000000000000000000000000000081526004016107a5906137ae565b60405180910390fd5b82600760008282829054906101000a90046dffffffffffffffffffffffffffff166107d99190613c5c565b92506101000a8154816dffffffffffffffffffffffffffff02191690836dffffffffffffffffffffffffffff160217905550505050565b60606002805461081f90613d9e565b80601f016020809104026020016040519081016040528092919081815260200182805461084b90613d9e565b80156108985780601f1061086d57610100808354040283529160200191610898565b820191906000526020600020905b81548152906001019060200180831161087b57829003601f168201915b50505050509050919050565b600360009054906101000a900473ffffffffffffffffffffffffffffffffffffffff1681565b815183511461090e576040517f08c379a00000000000000000000000000000000000000000000000000000000081526004016109059061394e565b60405180910390fd5b600073ffffffffffffffffffffffffffffffffffffffff168473ffffffffffffffffffffffffffffffffffffffff16141561097e576040517f08c379a00000000000000000000000000000000000000000000000000000000081526004016109759061386e565b60405180910390fd5b610986611f6a565b73ffffffffffffffffffffffffffffffffffffffff168573ffffffffffffffffffffffffffffffffffffffff1614806109cc57506109cb856109c6611f6a565b61184e565b5b610a0b576040517f08c379a0000000000000000000000000000000000000000000000000000000008152600401610a029061388e565b60405180910390fd5b6000610a15611f6a565b9050610a25818787878787611f72565b60005b8451811015610c2b576000858281518110610a6c577f4e487b7100000000000000000000000000000000000000000000000000000000600052603260045260246000fd5b602002602001015190506000858381518110610ab1577f4e487b7100000000000000000000000000000000000000000000000000000000600052603260045260246000fd5b60200260200101519050600080600084815260200190815260200160002060008b73ffffffffffffffffffffffffffffffffffffffff1673ffffffffffffffffffffffffffffffffffffffff16815260200190815260200160002054905081811015610b52576040517f08c379a0000000000000000000000000000000000000000000000000000000008152600401610b49906138ee565b60405180910390fd5b8181610b5e9190613c90565b60008085815260200190815260200160002060008c73ffffffffffffffffffffffffffffffffffffffff1673ffffffffffffffffffffffffffffffffffffffff168152602001908152602001600020819055508160008085815260200190815260200160002060008b73ffffffffffffffffffffffffffffffffffffffff1673ffffffffffffffffffffffffffffffffffffffff1681526020019081526020016000206000828254610c109190613b7b565b9250508190555050505080610c2490613dd0565b9050610a28565b508473ffffffffffffffffffffffffffffffffffffffff168673ffffffffffffffffffffffffffffffffffffffff168273ffffffffffffffffffffffffffffffffffffffff167f4a39dc06d4c0dbc64b70af90fd698a233a518aa5d07e595d983b8c0526c8f7fb8787604051610ca29291906136df565b60405180910390a4610cb8818787878787611f7a565b505050505050565b60008060066000848152602001908152602001600020600060038110610d0f577f4e487b7100000000000000000000000000000000000000000000000000000000600052603260045260246000fd5b015460066000858152602001908152602001600020600160038110610d5d577f4e487b7100000000000000000000000000000000000000000000000000000000600052603260045260246000fd5b015491509150915091565b600760009054906101000a90046dffffffffffffffffffffffffffff1681565b60608151835114610dce576040517f08c379a0000000000000000000000000000000000000000000000000000000008152600401610dc59061392e565b60405180910390fd5b6000835167ffffffffffffffff811115610e11577f4e487b7100000000000000000000000000000000000000000000000000000000600052604160045260246000fd5b604051908082528060200260200182016040528015610e3f5781602001602082028036833780820191505090505b50905060005b8451811015610f2e57610ed8858281518110610e8a577f4e487b7100000000000000000000000000000000000000000000000000000000600052603260045260246000fd5b6020026020010151858381518110610ecb577f4e487b7100000000000000000000000000000000000000000000000000000000600052603260045260246000fd5b602002602001015161036c565b828281518110610f11577f4e487b7100000000000000000000000000000000000000000000000000000000600052603260045260246000fd5b60200260200101818152505080610f2790613dd0565b9050610e45565b508091505092915050565b600360009054906101000a900473ffffffffffffffffffffffffffffffffffffffff1673ffffffffffffffffffffffffffffffffffffffff166323b872dd3330846040518463ffffffff1660e01b8152600401610f9893929190613603565b602060405180830381600087803b158015610fb257600080fd5b505af1158015610fc6573d6000803e3d6000fd5b505050506040513d601f19601f82011682018060405250810190610fea9190612ce0565b611029576040517f08c379a0000000000000000000000000000000000000000000000000000000008152600401611020906137ce565b60405180910390fd5b6000600960009054906101000a90046dffffffffffffffffffffffffffff166dffffffffffffffffffffffffffff161461124e5760005b600281101561121257816006600060018461107b9190613b7b565b81526020019081526020016000206000600381106110c2577f4e487b7100000000000000000000000000000000000000000000000000000000600052603260045260246000fd5b0160008282546110d29190613b7b565b92505081905550600960009054906101000a90046dffffffffffffffffffffffffffff166dffffffffffffffffffffffffffff1661118860088360028110611143577f4e487b7100000000000000000000000000000000000000000000000000000000600052603260045260246000fd5b60029182820401919006600e029054906101000a90046dffffffffffffffffffffffffffff166dffffffffffffffffffffffffffff168461214a90919063ffffffff16565b6111929190613bd1565b600660006001846111a39190613b7b565b81526020019081526020016000206001600381106111ea577f4e487b7100000000000000000000000000000000000000000000000000000000600052603260045260246000fd5b0160008282546111fa9190613b7b565b925050819055508061120b90613dd0565b9050611060565b506000600960006101000a8154816dffffffffffffffffffffffffffff02191690836dffffffffffffffffffffffffffff1602179055506112dd565b60005b60028110156112db57816006600060018461126c9190613b7b565b81526020019081526020016000206000600381106112b3577f4e487b7100000000000000000000000000000000000000000000000000000000600052603260045260246000fd5b0160008282546112c39190613b7b565b92505081905550806112d490613dd0565b9050611251565b505b6112f933600083604051806020016040528060008152506121b7565b50565b60055481565b600460009054906101000a900473ffffffffffffffffffffffffffffffffffffffff1681565b8173ffffffffffffffffffffffffffffffffffffffff16611347611f6a565b73ffffffffffffffffffffffffffffffffffffffff16141561139e576040517f08c379a00000000000000000000000000000000000000000000000000000000081526004016113959061390e565b60405180910390fd5b80600160006113ab611f6a565b73ffffffffffffffffffffffffffffffffffffffff1673ffffffffffffffffffffffffffffffffffffffff16815260200190815260200160002060008473ffffffffffffffffffffffffffffffffffffffff1673ffffffffffffffffffffffffffffffffffffffff16815260200190815260200160002060006101000a81548160ff0219169083151502179055508173ffffffffffffffffffffffffffffffffffffffff16611458611f6a565b73ffffffffffffffffffffffffffffffffffffffff167f17307eab39ab6107e8899845ad3d59bd9653f200f220920489ca2b5937696c318360405161149d9190613716565b60405180910390a35050565b600460009054906101000a900473ffffffffffffffffffffffffffffffffffffffff1673ffffffffffffffffffffffffffffffffffffffff163373ffffffffffffffffffffffffffffffffffffffff1614611539576040517f08c379a00000000000000000000000000000000000000000000000000000000081526004016115309061398e565b60405180910390fd5b80600a8190555050565b6000600267ffffffffffffffff811115611586577f4e487b7100000000000000000000000000000000000000000000000000000000600052604160045260246000fd5b6040519080825280602002602001820160405280156115b45781602001602082028036833780820191505090505b5090506000600267ffffffffffffffff8111156115fa577f4e487b7100000000000000000000000000000000000000000000000000000000600052604160045260246000fd5b6040519080825280602002602001820160405280156116285781602001602082028036833780820191505090505b50905060005b60028110156116e0576001816116449190613b7b565b83828151811061167d577f4e487b7100000000000000000000000000000000000000000000000000000000600052603260045260246000fd5b602002602001018181525050838282815181106116c3577f4e487b7100000000000000000000000000000000000000000000000000000000600052603260045260246000fd5b602002602001018181525050806116d990613dd0565b905061162e565b50600360009054906101000a900473ffffffffffffffffffffffffffffffffffffffff1673ffffffffffffffffffffffffffffffffffffffff166323b872dd3330866040518463ffffffff1660e01b815260040161174093929190613603565b602060405180830381600087803b15801561175a57600080fd5b505af115801561176e573d6000803e3d6000fd5b505050506040513d601f19601f820116820180604052508101906117929190612ce0565b6117d1576040517f08c379a00000000000000000000000000000000000000000000000000000000081526004016117c8906138ae565b60405180910390fd5b6117ec3383836040518060200160405280600081525061234d565b82600760008282829054906101000a90046dffffffffffffffffffffffffffff166118179190613b37565b92506101000a8154816dffffffffffffffffffffffffffff02191690836dffffffffffffffffffffffffffff160217905550505050565b6000600160008473ffffffffffffffffffffffffffffffffffffffff1673ffffffffffffffffffffffffffffffffffffffff16815260200190815260200160002060008373ffffffffffffffffffffffffffffffffffffffff1673ffffffffffffffffffffffffffffffffffffffff16815260200190815260200160002060009054906101000a900460ff16905092915050565b600073ffffffffffffffffffffffffffffffffffffffff168473ffffffffffffffffffffffffffffffffffffffff161415611952576040517f08c379a00000000000000000000000000000000000000000000000000000000081526004016119499061386e565b60405180910390fd5b61195a611f6a565b73ffffffffffffffffffffffffffffffffffffffff168573ffffffffffffffffffffffffffffffffffffffff1614806119a0575061199f8561199a611f6a565b61184e565b5b6119df576040517f08c379a00000000000000000000000000000000000000000000000000000000081526004016119d69061384e565b60405180910390fd5b60006119e9611f6a565b9050611a098187876119fa886125b7565b611a03886125b7565b87611f72565b600080600086815260200190815260200160002060008873ffffffffffffffffffffffffffffffffffffffff1673ffffffffffffffffffffffffffffffffffffffff16815260200190815260200160002054905083811015611aa0576040517f08c379a0000000000000000000000000000000000000000000000000000000008152600401611a97906138ee565b60405180910390fd5b8381611aac9190613c90565b60008087815260200190815260200160002060008973ffffffffffffffffffffffffffffffffffffffff1673ffffffffffffffffffffffffffffffffffffffff168152602001908152602001600020819055508360008087815260200190815260200160002060008873ffffffffffffffffffffffffffffffffffffffff1673ffffffffffffffffffffffffffffffffffffffff1681526020019081526020016000206000828254611b5e9190613b7b565b925050819055508573ffffffffffffffffffffffffffffffffffffffff168773ffffffffffffffffffffffffffffffffffffffff168373ffffffffffffffffffffffffffffffffffffffff167fc3d58168c5ae7397731d063d5bbf3d657854427343f4c083240f7aacaa2d0f628888604051611bdb9291906139e4565b60405180910390a4611bf182888888888861267d565b50505050505050565b60007f01ffc9a7000000000000000000000000000000000000000000000000000000007bffffffffffffffffffffffffffffffffffffffffffffffffffffffff1916827bffffffffffffffffffffffffffffffffffffffffffffffffffffffff1916149050919050565b600073ffffffffffffffffffffffffffffffffffffffff168373ffffffffffffffffffffffffffffffffffffffff161415611cd4576040517f08c379a0000000000000000000000000000000000000000000000000000000008152600401611ccb906138ce565b60405180910390fd5b8051825114611d18576040517f08c379a0000000000000000000000000000000000000000000000000000000008152600401611d0f9061394e565b60405180910390fd5b6000611d22611f6a565b9050611d4281856000868660405180602001604052806000815250611f72565b60005b8351811015611ee4576000848281518110611d89577f4e487b7100000000000000000000000000000000000000000000000000000000600052603260045260246000fd5b602002602001015190506000848381518110611dce577f4e487b7100000000000000000000000000000000000000000000000000000000600052603260045260246000fd5b60200260200101519050600080600084815260200190815260200160002060008973ffffffffffffffffffffffffffffffffffffffff1673ffffffffffffffffffffffffffffffffffffffff16815260200190815260200160002054905081811015611e6f576040517f08c379a0000000000000000000000000000000000000000000000000000000008152600401611e669061382e565b60405180910390fd5b8181611e7b9190613c90565b60008085815260200190815260200160002060008a73ffffffffffffffffffffffffffffffffffffffff1673ffffffffffffffffffffffffffffffffffffffff168152602001908152602001600020819055505050508080611edc90613dd0565b915050611d45565b50600073ffffffffffffffffffffffffffffffffffffffff168473ffffffffffffffffffffffffffffffffffffffff168273ffffffffffffffffffffffffffffffffffffffff167f4a39dc06d4c0dbc64b70af90fd698a233a518aa5d07e595d983b8c0526c8f7fb8686604051611f5c9291906136df565b60405180910390a450505050565b600033905090565b505050505050565b611f998473ffffffffffffffffffffffffffffffffffffffff1661284d565b15612142578373ffffffffffffffffffffffffffffffffffffffff1663bc197c8187878686866040518663ffffffff1660e01b8152600401611fdf95949392919061359b565b602060405180830381600087803b158015611ff957600080fd5b505af192505050801561202a57506040513d601f19601f820116820180604052508101906120279190612d32565b60015b6120b957612036613ef3565b80612041575061207e565b806040517f08c379a0000000000000000000000000000000000000000000000000000000008152600401612075919061374c565b60405180910390fd5b6040517f08c379a00000000000000000000000000000000000000000000000000000000081526004016120b09061376e565b60405180910390fd5b63bc197c8160e01b7bffffffffffffffffffffffffffffffffffffffffffffffffffffffff1916817bffffffffffffffffffffffffffffffffffffffffffffffffffffffff191614612140576040517f08c379a00000000000000000000000000000000000000000000000000000000081526004016121379061378e565b60405180910390fd5b505b505050505050565b6000808214806121725750828283856121639190613c02565b9250826121709190613bd1565b145b6121b1576040517f08c379a00000000000000000000000000000000000000000000000000000000081526004016121a89061380e565b60405180910390fd5b92915050565b600073ffffffffffffffffffffffffffffffffffffffff168473ffffffffffffffffffffffffffffffffffffffff161415612227576040517f08c379a000000000000000000000000000000000000000000000000000000000815260040161221e9061396e565b60405180910390fd5b6000612231611f6a565b905061225281600087612243886125b7565b61224c886125b7565b87611f72565b8260008086815260200190815260200160002060008773ffffffffffffffffffffffffffffffffffffffff1673ffffffffffffffffffffffffffffffffffffffff16815260200190815260200160002060008282546122b19190613b7b565b925050819055508473ffffffffffffffffffffffffffffffffffffffff16600073ffffffffffffffffffffffffffffffffffffffff168273ffffffffffffffffffffffffffffffffffffffff167fc3d58168c5ae7397731d063d5bbf3d657854427343f4c083240f7aacaa2d0f62878760405161232f9291906139e4565b60405180910390a46123468160008787878761267d565b5050505050565b600073ffffffffffffffffffffffffffffffffffffffff168473ffffffffffffffffffffffffffffffffffffffff1614156123bd576040517f08c379a00000000000000000000000000000000000000000000000000000000081526004016123b49061396e565b60405180910390fd5b8151835114612401576040517f08c379a00000000000000000000000000000000000000000000000000000000081526004016123f89061394e565b60405180910390fd5b600061240b611f6a565b905061241c81600087878787611f72565b60005b845181101561252157838181518110612461577f4e487b7100000000000000000000000000000000000000000000000000000000600052603260045260246000fd5b60200260200101516000808784815181106124a5577f4e487b7100000000000000000000000000000000000000000000000000000000600052603260045260246000fd5b6020026020010151815260200190815260200160002060008873ffffffffffffffffffffffffffffffffffffffff1673ffffffffffffffffffffffffffffffffffffffff16815260200190815260200160002060008282546125079190613b7b565b92505081905550808061251990613dd0565b91505061241f565b508473ffffffffffffffffffffffffffffffffffffffff16600073ffffffffffffffffffffffffffffffffffffffff168273ffffffffffffffffffffffffffffffffffffffff167f4a39dc06d4c0dbc64b70af90fd698a233a518aa5d07e595d983b8c0526c8f7fb87876040516125999291906136df565b60405180910390a46125b081600087878787611f7a565b5050505050565b60606000600167ffffffffffffffff8111156125fc577f4e487b7100000000000000000000000000000000000000000000000000000000600052604160045260246000fd5b60405190808252806020026020018201604052801561262a5781602001602082028036833780820191505090505b5090508281600081518110612668577f4e487b7100000000000000000000000000000000000000000000000000000000600052603260045260246000fd5b60200260200101818152505080915050919050565b61269c8473ffffffffffffffffffffffffffffffffffffffff1661284d565b15612845578373ffffffffffffffffffffffffffffffffffffffff1663f23a6e6187878686866040518663ffffffff1660e01b81526004016126e295949392919061363a565b602060405180830381600087803b1580156126fc57600080fd5b505af192505050801561272d57506040513d601f19601f8201168201806040525081019061272a9190612d32565b60015b6127bc57612739613ef3565b806127445750612781565b806040517f08c379a0000000000000000000000000000000000000000000000000000000008152600401612778919061374c565b60405180910390fd5b6040517f08c379a00000000000000000000000000000000000000000000000000000000081526004016127b39061376e565b60405180910390fd5b63f23a6e6160e01b7bffffffffffffffffffffffffffffffffffffffffffffffffffffffff1916817bffffffffffffffffffffffffffffffffffffffffffffffffffffffff191614612843576040517f08c379a000000000000000000000000000000000000000000000000000000000815260040161283a9061378e565b60405180910390fd5b505b505050505050565b600080823b905060008111915050919050565b600061287361286e84613a3e565b613a0d565b9050808382526020820190508285602086028201111561289257600080fd5b60005b858110156128c257816128a88882612976565b845260208401935060208301925050600181019050612895565b5050509392505050565b60006128df6128da84613a6a565b613a0d565b905080838252602082019050828560208602820111156128fe57600080fd5b60005b8581101561292e57816129148882612a5d565b845260208401935060208301925050600181019050612901565b5050509392505050565b600061294b61294684613a96565b613a0d565b90508281526020810184848401111561296357600080fd5b61296e848285613d5c565b509392505050565b60008135905061298581613fa9565b92915050565b600082601f83011261299c57600080fd5b81356129ac848260208601612860565b91505092915050565b600082601f8301126129c657600080fd5b81356129d68482602086016128cc565b91505092915050565b6000813590506129ee81613fc0565b92915050565b600081519050612a0381613fc0565b92915050565b600081359050612a1881613fd7565b92915050565b600081519050612a2d81613fd7565b92915050565b600082601f830112612a4457600080fd5b8135612a54848260208601612938565b91505092915050565b600081359050612a6c81613fee565b92915050565b60008060408385031215612a8557600080fd5b6000612a9385828601612976565b9250506020612aa485828601612976565b9150509250929050565b600080600080600060a08688031215612ac657600080fd5b6000612ad488828901612976565b9550506020612ae588828901612976565b945050604086013567ffffffffffffffff811115612b0257600080fd5b612b0e888289016129b5565b935050606086013567ffffffffffffffff811115612b2b57600080fd5b612b37888289016129b5565b925050608086013567ffffffffffffffff811115612b5457600080fd5b612b6088828901612a33565b9150509295509295909350565b600080600080600060a08688031215612b8557600080fd5b6000612b9388828901612976565b9550506020612ba488828901612976565b9450506040612bb588828901612a5d565b9350506060612bc688828901612a5d565b925050608086013567ffffffffffffffff811115612be357600080fd5b612bef88828901612a33565b9150509295509295909350565b60008060408385031215612c0f57600080fd5b6000612c1d85828601612976565b9250506020612c2e858286016129df565b9150509250929050565b60008060408385031215612c4b57600080fd5b6000612c5985828601612976565b9250506020612c6a85828601612a5d565b9150509250929050565b60008060408385031215612c8757600080fd5b600083013567ffffffffffffffff811115612ca157600080fd5b612cad8582860161298b565b925050602083013567ffffffffffffffff811115612cca57600080fd5b612cd6858286016129b5565b9150509250929050565b600060208284031215612cf257600080fd5b6000612d00848285016129f4565b91505092915050565b600060208284031215612d1b57600080fd5b6000612d2984828501612a09565b91505092915050565b600060208284031215612d4457600080fd5b6000612d5284828501612a1e565b91505092915050565b600060208284031215612d6d57600080fd5b6000612d7b84828501612a5d565b91505092915050565b6000612d908383613562565b60208301905092915050565b612da581613cc4565b82525050565b6000612db682613ad6565b612dc08185613b04565b9350612dcb83613ac6565b8060005b83811015612dfc578151612de38882612d84565b9750612dee83613af7565b925050600181019050612dcf565b5085935050505092915050565b612e1281613cd6565b82525050565b612e2181613ce2565b82525050565b6000612e3282613ae1565b612e3c8185613b15565b9350612e4c818560208601613d6b565b612e5581613ed5565b840191505092915050565b6000612e6b82613aec565b612e758185613b26565b9350612e85818560208601613d6b565b612e8e81613ed5565b840191505092915050565b6000612ea6603483613b26565b91507f455243313135353a207472616e7366657220746f206e6f6e204552433131353560008301527f526563656976657220696d706c656d656e7465720000000000000000000000006020830152604082019050919050565b6000612f0c602883613b26565b91507f455243313135353a204552433131353552656365697665722072656a6563746560008301527f6420746f6b656e730000000000000000000000000000000000000000000000006020830152604082019050919050565b6000612f72602483613b26565b91507f636f756c64206e6f74207472616e7366657220636f6c6c61746572616c20746f60008301527f6b656e73000000000000000000000000000000000000000000000000000000006020830152604082019050919050565b6000612fd8601983613b26565b91507f756e61626c6520746f20726563656976652072657365727665000000000000006000830152602082019050919050565b6000613018602b83613b26565b91507f455243313135353a2062616c616e636520717565727920666f7220746865207a60008301527f65726f20616464726573730000000000000000000000000000000000000000006020830152604082019050919050565b600061307e601483613b26565b91507f64732d6d6174682d6d756c2d6f766572666c6f770000000000000000000000006000830152602082019050919050565b60006130be602483613b26565b91507f455243313135353a206275726e20616d6f756e7420657863656564732062616c60008301527f616e6365000000000000000000000000000000000000000000000000000000006020830152604082019050919050565b6000613124602983613b26565b91507f455243313135353a2063616c6c6572206973206e6f74206f776e6572206e6f7260008301527f20617070726f76656400000000000000000000000000000000000000000000006020830152604082019050919050565b600061318a602583613b26565b91507f455243313135353a207472616e7366657220746f20746865207a65726f20616460008301527f64726573730000000000000000000000000000000000000000000000000000006020830152604082019050919050565b60006131f0603283613b26565b91507f455243313135353a207472616e736665722063616c6c6572206973206e6f742060008301527f6f776e6572206e6f7220617070726f76656400000000000000000000000000006020830152604082019050919050565b6000613256602383613b26565b91507f636f756c64206e6f74207265636569766520636f6c6c61746572616c20746f6b60008301527f656e7300000000000000000000000000000000000000000000000000000000006020830152604082019050919050565b60006132bc602383613b26565b91507f455243313135353a206275726e2066726f6d20746865207a65726f206164647260008301527f65737300000000000000000000000000000000000000000000000000000000006020830152604082019050919050565b6000613322602a83613b26565b91507f455243313135353a20696e73756666696369656e742062616c616e636520666f60008301527f72207472616e73666572000000000000000000000000000000000000000000006020830152604082019050919050565b6000613388602983613b26565b91507f455243313135353a2073657474696e6720617070726f76616c2073746174757360008301527f20666f722073656c6600000000000000000000000000000000000000000000006020830152604082019050919050565b60006133ee602983613b26565b91507f455243313135353a206163636f756e747320616e6420696473206c656e67746860008301527f206d69736d6174636800000000000000000000000000000000000000000000006020830152604082019050919050565b6000613454602883613b26565b91507f455243313135353a2069647320616e6420616d6f756e7473206c656e6774682060008301527f6d69736d617463680000000000000000000000000000000000000000000000006020830152604082019050919050565b60006134ba602183613b26565b91507f455243313135353a206d696e7420746f20746865207a65726f2061646472657360008301527f73000000000000000000000000000000000000000000000000000000000000006020830152604082019050919050565b6000613520601a83613b26565b91507f4e6f6e2d6f7261636c652063616c6c65642076616c69646174650000000000006000830152602082019050919050565b61355c81613d18565b82525050565b61356b81613d52565b82525050565b61357a81613d52565b82525050565b60006020820190506135956000830184612d9c565b92915050565b600060a0820190506135b06000830188612d9c565b6135bd6020830187612d9c565b81810360408301526135cf8186612dab565b905081810360608301526135e38185612dab565b905081810360808301526135f78184612e27565b90509695505050505050565b60006060820190506136186000830186612d9c565b6136256020830185612d9c565b6136326040830184613571565b949350505050565b600060a08201905061364f6000830188612d9c565b61365c6020830187612d9c565b6136696040830186613571565b6136766060830185613571565b81810360808301526136888184612e27565b90509695505050505050565b60006040820190506136a96000830185612d9c565b6136b66020830184613571565b9392505050565b600060208201905081810360008301526136d78184612dab565b905092915050565b600060408201905081810360008301526136f98185612dab565b9050818103602083015261370d8184612dab565b90509392505050565b600060208201905061372b6000830184612e09565b92915050565b60006020820190506137466000830184612e18565b92915050565b600060208201905081810360008301526137668184612e60565b905092915050565b6000602082019050818103600083015261378781612e99565b9050919050565b600060208201905081810360008301526137a781612eff565b9050919050565b600060208201905081810360008301526137c781612f65565b9050919050565b600060208201905081810360008301526137e781612fcb565b9050919050565b600060208201905081810360008301526138078161300b565b9050919050565b6000602082019050818103600083015261382781613071565b9050919050565b60006020820190508181036000830152613847816130b1565b9050919050565b6000602082019050818103600083015261386781613117565b9050919050565b600060208201905081810360008301526138878161317d565b9050919050565b600060208201905081810360008301526138a7816131e3565b9050919050565b600060208201905081810360008301526138c781613249565b9050919050565b600060208201905081810360008301526138e7816132af565b9050919050565b6000602082019050818103600083015261390781613315565b9050919050565b600060208201905081810360008301526139278161337b565b9050919050565b60006020820190508181036000830152613947816133e1565b9050919050565b6000602082019050818103600083015261396781613447565b9050919050565b60006020820190508181036000830152613987816134ad565b9050919050565b600060208201905081810360008301526139a781613513565b9050919050565b60006020820190506139c36000830184613553565b92915050565b60006020820190506139de6000830184613571565b92915050565b60006040820190506139f96000830185613571565b613a066020830184613571565b9392505050565b6000604051905081810181811067ffffffffffffffff82111715613a3457613a33613ea6565b5b8060405250919050565b600067ffffffffffffffff821115613a5957613a58613ea6565b5b602082029050602081019050919050565b600067ffffffffffffffff821115613a8557613a84613ea6565b5b602082029050602081019050919050565b600067ffffffffffffffff821115613ab157613ab0613ea6565b5b601f19601f8301169050602081019050919050565b6000819050602082019050919050565b600081519050919050565b600081519050919050565b600081519050919050565b6000602082019050919050565b600082825260208201905092915050565b600082825260208201905092915050565b600082825260208201905092915050565b6000613b4282613d18565b9150613b4d83613d18565b9250826dffffffffffffffffffffffffffff03821115613b7057613b6f613e19565b5b828201905092915050565b6000613b8682613d52565b9150613b9183613d52565b9250827fffffffffffffffffffffffffffffffffffffffffffffffffffffffffffffffff03821115613bc657613bc5613e19565b5b828201905092915050565b6000613bdc82613d52565b9150613be783613d52565b925082613bf757613bf6613e48565b5b828204905092915050565b6000613c0d82613d52565b9150613c1883613d52565b9250817fffffffffffffffffffffffffffffffffffffffffffffffffffffffffffffffff0483118215151615613c5157613c50613e19565b5b828202905092915050565b6000613c6782613d18565b9150613c7283613d18565b925082821015613c8557613c84613e19565b5b828203905092915050565b6000613c9b82613d52565b9150613ca683613d52565b925082821015613cb957613cb8613e19565b5b828203905092915050565b6000613ccf82613d32565b9050919050565b60008115159050919050565b6000819050919050565b60007fffffffff0000000000000000000000000000000000000000000000000000000082169050919050565b60006dffffffffffffffffffffffffffff82169050919050565b600073ffffffffffffffffffffffffffffffffffffffff82169050919050565b6000819050919050565b82818337600083830152505050565b60005b83811015613d89578082015181840152602081019050613d6e565b83811115613d98576000848401525b50505050565b60006002820490506001821680613db657607f821691505b60208210811415613dca57613dc9613e77565b5b50919050565b6000613ddb82613d52565b91507fffffffffffffffffffffffffffffffffffffffffffffffffffffffffffffffff821415613e0e57613e0d613e19565b5b600182019050919050565b7f4e487b7100000000000000000000000000000000000000000000000000000000600052601160045260246000fd5b7f4e487b7100000000000000000000000000000000000000000000000000000000600052601260045260246000fd5b7f4e487b7100000000000000000000000000000000000000000000000000000000600052602260045260246000fd5b7f4e487b7100000000000000000000000000000000000000000000000000000000600052604160045260246000fd5b6000601f19601f8301169050919050565b60008160e01c9050919050565b600060443d1015613f0357613fa6565b60046000803e613f14600051613ee6565b6308c379a08114613f255750613fa6565b60405160043d036004823e80513d602482011167ffffffffffffffff82111715613f5157505050613fa6565b808201805167ffffffffffffffff811115613f70575050505050613fa6565b8060208301013d8501811115613f8b57505050505050613fa6565b613f9482613ed5565b60208401016040528296505050505050505b90565b613fb281613cc4565b8114613fbd57600080fd5b50565b613fc981613cd6565b8114613fd457600080fd5b50565b613fe081613cec565b8114613feb57600080fd5b50565b613ff781613d52565b811461400257600080fd5b5056fea26469706673582212207a6bb778905ae7f136249adc56d3c361293733eb3bda6208c4edc30f898ad57a64736f6c63430008000033",
  "immutableReferences": {},
  "source": "// SPDX-License-Identifier: MIT\npragma solidity ^0.8.0;\n\nimport \"@openzeppelin/contracts/token/ERC1155/ERC1155.sol\";\nimport \"@openzeppelin/contracts/token/ERC20/IERC20.sol\";\nimport \"./libraries/SafeMath.sol\";\n\ncontract Prediction is ERC1155(\"FREE\") {\n\n    using SafeMath for uint; \n\n    address public coin;\n    address public oracle; \n\n    bytes32 public identifier;\n\n    //maps from pool to items in pool C, R, k\n    mapping(uint => uint[3]) contents;\n\n    uint112 public b;\n\n    uint112[2] initialRatioNumerator;\n    uint112 initialRatioDenominator;\n\n    uint winner;\n\n    constructor (address _coin) {\n        coin = _coin;\n        oracle = msg.sender;  \n        identifier = keccak256(abi.encodePacked(oracle, \"Heads or Tails\", uint(2)));\n        initialRatioNumerator = [1, 1];\n        initialRatioDenominator = 2; \n    }\n\n    function buySet(uint _amount) public {\n        uint[] memory positionIds = new uint[](uint(2));\n        uint[] memory amounts = new uint[](uint(2));\n\n        for (uint i = 0; i < uint(2); ++i) {\n            positionIds[i] = i+1; \n            amounts[i] = _amount;\n        }\n\n        require(IERC20(coin).transferFrom(msg.sender, address(this), _amount), \"could not receive collateral tokens\");\n        _mintBatch(\n            msg.sender,\n            positionIds,\n            amounts,\n            \"\"\n        );\n        b += uint112(_amount); \n    }\n\n    function sellSet(uint _amount) public {\n        uint[] memory positionIds = new uint[](uint(2));\n        uint[] memory amounts = new uint[](uint(2));\n\n        for (uint i = 0; i < uint(2); ++i) {\n            positionIds[i] = i+1; \n            amounts[i] = _amount;\n        }\n\n        _burnBatch(\n            msg.sender,\n            positionIds,\n            amounts\n        );\n        require(IERC20(coin).transfer(msg.sender, _amount), \"could not transfer collateral tokens\");\n        b -= uint112(_amount); \n    }\n\n    function getState(uint _id) public view returns (uint _contractAmount, uint _reserveAmount) {\n        return (contents[_id][0], contents[_id][1]);\n    }\n\n    //taken from uniswap\n    function getReserveIn(uint _contractOut, uint _contractAmount, uint _reserveAmount) private pure returns (uint _reserveIn) {\n        require(_contractOut > 0, 'UniswapV2Library: INSUFFICIENT_OUTPUT_AMOUNT');\n        require(_reserveAmount > 0 && _contractAmount > 0, 'UniswapV2Library: INSUFFICIENT_LIQUIDITY');\n        uint numerator = _reserveAmount.mul(_contractOut);\n        uint denominator = _contractAmount.sub(_contractOut);\n        _reserveIn = (numerator / denominator).add(1);\n    }\n\n    //taken from uniswap\n    function getReserveOut(uint _contractIn, uint _contractAmount, uint _reserveAmount) private pure returns (uint _reserveOut) {\n        require(_contractIn > 0, 'UniswapV2Library: INSUFFICIENT_INPUT_AMOUNT');\n        require(_reserveAmount > 0 && _contractAmount > 0, 'UniswapV2Library: INSUFFICIENT_LIQUIDITY');\n        uint numerator = _contractIn.mul(_reserveAmount);\n        uint denominator = _contractAmount.add(_contractIn);\n        _reserveOut = numerator / denominator;\n    }\n\n    function _buyRaw(uint _amount, uint _id) private {\n        uint reserveIn = getReserveIn(_amount, contents[_id][0], contents[_id][1]);\n        require(IERC20(coin).transferFrom(msg.sender, address(this), reserveIn), \"unable to receive reserve\");\n        _mint(msg.sender, _id, _amount, \"\");\n    }\n\n    function _sellRaw(uint _amount, uint _id) private {\n        uint reserveOut = getReserveOut(_amount, contents[_id][0], contents[_id][1]);\n        _burn(msg.sender, _id, _amount); \n        require(IERC20(coin).transfer(msg.sender, reserveOut), \"could not transfer reserve\");\n    }\n\n    function addLiquidity(uint _amount) public {\n        require(IERC20(coin).transferFrom(msg.sender, address(this), _amount), \"unable to receive reserve\");\n        if (initialRatioDenominator != 0) {\n            for (uint i = 0; i < uint(2); ++i) {\n                contents[i+1][0] += _amount;\n                contents[i+1][1] += _amount.mul(initialRatioNumerator[i]) / initialRatioDenominator;\n            }\n            initialRatioDenominator = 0; \n        } else {\n            for (uint i = 0; i < uint(2); ++i) {\n                contents[i+1][0] += _amount;\n            }\n        }\n        _mint(msg.sender, 0, _amount, \"\");\n    }\n\n    // function removeLiquidity(uint _amount) public {\n\n    // }\n\n    function validate(uint _id) public {\n        require(msg.sender == oracle, \"Non-oracle called validate\");\n        winner = _id; \n    }\n\n    // function redeem(uint _amount, uint _id) public {\n\n    // }\n}",
  "sourcePath": "/Users/kylescott/src/simple_prediction/contracts/Prediction.sol",
  "compiler": {
    "name": "solc",
    "version": "0.8.0+commit.c7dfd78e.Emscripten.clang"
  },
  "schemaVersion": "3.2.4",
  "updatedAt": "2021-04-26T00:21:45.240Z",
  "devdoc": {
    "kind": "dev",
    "methods": {
      "balanceOf(address,uint256)": {
        "details": "See {IERC1155-balanceOf}. Requirements: - `account` cannot be the zero address."
      },
      "balanceOfBatch(address[],uint256[])": {
        "details": "See {IERC1155-balanceOfBatch}. Requirements: - `accounts` and `ids` must have the same length."
      },
      "isApprovedForAll(address,address)": {
        "details": "See {IERC1155-isApprovedForAll}."
      },
      "safeBatchTransferFrom(address,address,uint256[],uint256[],bytes)": {
        "details": "See {IERC1155-safeBatchTransferFrom}."
      },
      "safeTransferFrom(address,address,uint256,uint256,bytes)": {
        "details": "See {IERC1155-safeTransferFrom}."
      },
      "setApprovalForAll(address,bool)": {
        "details": "See {IERC1155-setApprovalForAll}."
      },
      "supportsInterface(bytes4)": {
        "details": "See {IERC165-supportsInterface}."
      },
      "uri(uint256)": {
        "details": "See {IERC1155MetadataURI-uri}. This implementation returns the same URI for *all* token types. It relies on the token type ID substitution mechanism https://eips.ethereum.org/EIPS/eip-1155#metadata[defined in the EIP]. Clients calling this function must replace the `\\{id\\}` substring with the actual token type ID."
      }
    },
    "version": 1
  },
  "userdoc": {
    "kind": "user",
    "methods": {},
    "version": 1
  }
}