{
  "contractName": "Prediction",
  "abi": [
    {
      "inputs": [
        {
          "internalType": "address",
          "name": "_coin",
          "type": "address"
        }
      ],
      "stateMutability": "nonpayable",
      "type": "constructor"
    },
    {
      "anonymous": false,
      "inputs": [
        {
          "indexed": true,
          "internalType": "address",
          "name": "account",
          "type": "address"
        },
        {
          "indexed": true,
          "internalType": "address",
          "name": "operator",
          "type": "address"
        },
        {
          "indexed": false,
          "internalType": "bool",
          "name": "approved",
          "type": "bool"
        }
      ],
      "name": "ApprovalForAll",
      "type": "event"
    },
    {
      "anonymous": false,
      "inputs": [
        {
          "indexed": true,
          "internalType": "address",
          "name": "operator",
          "type": "address"
        },
        {
          "indexed": true,
          "internalType": "address",
          "name": "from",
          "type": "address"
        },
        {
          "indexed": true,
          "internalType": "address",
          "name": "to",
          "type": "address"
        },
        {
          "indexed": false,
          "internalType": "uint256[]",
          "name": "ids",
          "type": "uint256[]"
        },
        {
          "indexed": false,
          "internalType": "uint256[]",
          "name": "values",
          "type": "uint256[]"
        }
      ],
      "name": "TransferBatch",
      "type": "event"
    },
    {
      "anonymous": false,
      "inputs": [
        {
          "indexed": true,
          "internalType": "address",
          "name": "operator",
          "type": "address"
        },
        {
          "indexed": true,
          "internalType": "address",
          "name": "from",
          "type": "address"
        },
        {
          "indexed": true,
          "internalType": "address",
          "name": "to",
          "type": "address"
        },
        {
          "indexed": false,
          "internalType": "uint256",
          "name": "id",
          "type": "uint256"
        },
        {
          "indexed": false,
          "internalType": "uint256",
          "name": "value",
          "type": "uint256"
        }
      ],
      "name": "TransferSingle",
      "type": "event"
    },
    {
      "anonymous": false,
      "inputs": [
        {
          "indexed": false,
          "internalType": "string",
          "name": "value",
          "type": "string"
        },
        {
          "indexed": true,
          "internalType": "uint256",
          "name": "id",
          "type": "uint256"
        }
      ],
      "name": "URI",
      "type": "event"
    },
    {
      "inputs": [],
      "name": "b",
      "outputs": [
        {
          "internalType": "uint256",
          "name": "",
          "type": "uint256"
        }
      ],
      "stateMutability": "view",
      "type": "function"
    },
    {
      "inputs": [
        {
          "internalType": "address",
          "name": "account",
          "type": "address"
        },
        {
          "internalType": "uint256",
          "name": "id",
          "type": "uint256"
        }
      ],
      "name": "balanceOf",
      "outputs": [
        {
          "internalType": "uint256",
          "name": "",
          "type": "uint256"
        }
      ],
      "stateMutability": "view",
      "type": "function"
    },
    {
      "inputs": [
        {
          "internalType": "address[]",
          "name": "accounts",
          "type": "address[]"
        },
        {
          "internalType": "uint256[]",
          "name": "ids",
          "type": "uint256[]"
        }
      ],
      "name": "balanceOfBatch",
      "outputs": [
        {
          "internalType": "uint256[]",
          "name": "",
          "type": "uint256[]"
        }
      ],
      "stateMutability": "view",
      "type": "function"
    },
    {
      "inputs": [],
      "name": "coin",
      "outputs": [
        {
          "internalType": "address",
          "name": "",
          "type": "address"
        }
      ],
      "stateMutability": "view",
      "type": "function"
    },
    {
      "inputs": [],
      "name": "identifier",
      "outputs": [
        {
          "internalType": "bytes32",
          "name": "",
          "type": "bytes32"
        }
      ],
      "stateMutability": "view",
      "type": "function"
    },
    {
      "inputs": [
        {
          "internalType": "address",
          "name": "account",
          "type": "address"
        },
        {
          "internalType": "address",
          "name": "operator",
          "type": "address"
        }
      ],
      "name": "isApprovedForAll",
      "outputs": [
        {
          "internalType": "bool",
          "name": "",
          "type": "bool"
        }
      ],
      "stateMutability": "view",
      "type": "function"
    },
    {
      "inputs": [],
      "name": "mints",
      "outputs": [
        {
          "internalType": "uint256",
          "name": "",
          "type": "uint256"
        }
      ],
      "stateMutability": "view",
      "type": "function"
    },
    {
      "inputs": [],
      "name": "oracle",
      "outputs": [
        {
          "internalType": "address",
          "name": "",
          "type": "address"
        }
      ],
      "stateMutability": "view",
      "type": "function"
    },
    {
      "inputs": [
        {
          "internalType": "address",
          "name": "from",
          "type": "address"
        },
        {
          "internalType": "address",
          "name": "to",
          "type": "address"
        },
        {
          "internalType": "uint256[]",
          "name": "ids",
          "type": "uint256[]"
        },
        {
          "internalType": "uint256[]",
          "name": "amounts",
          "type": "uint256[]"
        },
        {
          "internalType": "bytes",
          "name": "data",
          "type": "bytes"
        }
      ],
      "name": "safeBatchTransferFrom",
      "outputs": [],
      "stateMutability": "nonpayable",
      "type": "function"
    },
    {
      "inputs": [
        {
          "internalType": "address",
          "name": "from",
          "type": "address"
        },
        {
          "internalType": "address",
          "name": "to",
          "type": "address"
        },
        {
          "internalType": "uint256",
          "name": "id",
          "type": "uint256"
        },
        {
          "internalType": "uint256",
          "name": "amount",
          "type": "uint256"
        },
        {
          "internalType": "bytes",
          "name": "data",
          "type": "bytes"
        }
      ],
      "name": "safeTransferFrom",
      "outputs": [],
      "stateMutability": "nonpayable",
      "type": "function"
    },
    {
      "inputs": [
        {
          "internalType": "address",
          "name": "operator",
          "type": "address"
        },
        {
          "internalType": "bool",
          "name": "approved",
          "type": "bool"
        }
      ],
      "name": "setApprovalForAll",
      "outputs": [],
      "stateMutability": "nonpayable",
      "type": "function"
    },
    {
      "inputs": [
        {
          "internalType": "bytes4",
          "name": "interfaceId",
          "type": "bytes4"
        }
      ],
      "name": "supportsInterface",
      "outputs": [
        {
          "internalType": "bool",
          "name": "",
          "type": "bool"
        }
      ],
      "stateMutability": "view",
      "type": "function"
    },
    {
      "inputs": [
        {
          "internalType": "uint256",
          "name": "",
          "type": "uint256"
        }
      ],
      "name": "uri",
      "outputs": [
        {
          "internalType": "string",
          "name": "",
          "type": "string"
        }
      ],
      "stateMutability": "view",
      "type": "function"
    },
    {
      "inputs": [
        {
          "internalType": "uint256",
          "name": "_amount",
          "type": "uint256"
        }
      ],
      "name": "buySet",
      "outputs": [],
      "stateMutability": "nonpayable",
      "type": "function"
    },
    {
      "inputs": [
        {
          "internalType": "uint256",
          "name": "_amount",
          "type": "uint256"
        }
      ],
      "name": "sellSet",
      "outputs": [],
      "stateMutability": "nonpayable",
      "type": "function"
    },
    {
      "inputs": [
        {
          "internalType": "uint256",
          "name": "_id",
          "type": "uint256"
        }
      ],
      "name": "getState",
      "outputs": [
        {
          "internalType": "uint256",
          "name": "_contractAmount",
          "type": "uint256"
        },
        {
          "internalType": "uint256",
          "name": "_reserveAmount",
          "type": "uint256"
        }
      ],
      "stateMutability": "view",
      "type": "function"
    },
    {
      "inputs": [
        {
          "internalType": "uint256",
          "name": "_amount",
          "type": "uint256"
        },
        {
          "internalType": "uint256",
          "name": "_id",
          "type": "uint256"
        },
        {
          "internalType": "uint256",
          "name": "_y",
          "type": "uint256"
        }
      ],
      "name": "buyContract",
      "outputs": [],
      "stateMutability": "nonpayable",
      "type": "function"
    },
    {
      "inputs": [
        {
          "internalType": "uint256",
          "name": "_amount",
          "type": "uint256"
        },
        {
          "internalType": "uint256",
          "name": "_id",
          "type": "uint256"
        },
        {
          "internalType": "uint256",
          "name": "_y",
          "type": "uint256"
        }
      ],
      "name": "sellContract",
      "outputs": [],
      "stateMutability": "nonpayable",
      "type": "function"
    },
    {
      "inputs": [
        {
          "internalType": "uint256",
          "name": "_amount",
          "type": "uint256"
        }
      ],
      "name": "addLiquidity",
      "outputs": [],
      "stateMutability": "nonpayable",
      "type": "function"
    },
    {
      "inputs": [
        {
          "internalType": "uint256",
          "name": "_amount",
          "type": "uint256"
        }
      ],
      "name": "removeLiquidity",
      "outputs": [],
      "stateMutability": "nonpayable",
      "type": "function"
    }
  ],
  "bytecode": "0x60806040523480156200001157600080fd5b5060405162005a2a38038062005a2a8339818101604052810190620000379190620002c1565b6040518060400160405280600481526020017f46524545000000000000000000000000000000000000000000000000000000008152506200007e816200019460201b60201c565b5080600360006101000a81548173ffffffffffffffffffffffffffffffffffffffff021916908373ffffffffffffffffffffffffffffffffffffffff16021790555033600460006101000a81548173ffffffffffffffffffffffffffffffffffffffff021916908373ffffffffffffffffffffffffffffffffffffffff160217905550600460009054906101000a900473ffffffffffffffffffffffffffffffffffffffff1660026040516020016200013992919062000365565b604051602081830303815290604052805190602001206005819055506040518060400160405280600160ff168152602001600160ff16815250600990600262000184929190620001b0565b506002600b8190555050620004a9565b8060029080519060200190620001ac929190620001fa565b5050565b8260028101928215620001e7579160200282015b82811115620001e6578251829060ff16905591602001919060010190620001c4565b5b509050620001f691906200028b565b5090565b8280546200020890620003eb565b90600052602060002090601f0160209004810192826200022c576000855562000278565b82601f106200024757805160ff191683800117855562000278565b8280016001018555821562000278579182015b82811115620002775782518255916020019190600101906200025a565b5b5090506200028791906200028b565b5090565b5b80821115620002a65760008160009055506001016200028c565b5090565b600081519050620002bb816200048f565b92915050565b600060208284031215620002d457600080fd5b6000620002e484828501620002aa565b91505092915050565b62000302620002fc82620003ad565b62000421565b82525050565b600062000317600e83620003a2565b91507f4865616473206f72205461696c730000000000000000000000000000000000006000830152600e82019050919050565b6200035f6200035982620003e1565b62000449565b82525050565b6000620003738285620002ed565b601482019150620003848262000308565b91506200039282846200034a565b6020820191508190509392505050565b600081905092915050565b6000620003ba82620003c1565b9050919050565b600073ffffffffffffffffffffffffffffffffffffffff82169050919050565b6000819050919050565b600060028204905060018216806200040457607f821691505b602082108114156200041b576200041a62000453565b5b50919050565b60006200042e8262000435565b9050919050565b6000620004428262000482565b9050919050565b6000819050919050565b7f4e487b7100000000000000000000000000000000000000000000000000000000600052602260045260246000fd5b60008160601b9050919050565b6200049a81620003ad565b8114620004a657600080fd5b50565b61557180620004b96000396000f3fe608060405234801561001057600080fd5b506004361061012b5760003560e01c80637998a1c4116100ad578063bd1c902811610071578063bd1c902814610341578063dfc7379d1461035d578063e96b67f31461037b578063e985e9c514610397578063f242432a146103c75761012b565b80637998a1c4146102b15780637dc0d1d0146102cf5780639c8f9f23146102ed578063a22cb46514610309578063b8a55f91146103255761012b565b80632eb2c2d6116100f45780632eb2c2d6146101fa57806344c9af28146102165780634df7e3d0146102475780634e1273f41461026557806351c6590a146102955761012b565b8062fdd58e1461013057806301ffc9a7146101605780630376042b146101905780630e89341c146101ac57806311df9995146101dc575b600080fd5b61014a60048036038101906101459190613f03565b6103e3565b6040516101579190614f91565b60405180910390f35b61017a60048036038101906101759190613fd4565b6104ac565b6040516101879190614c39565b60405180910390f35b6101aa60048036038101906101a59190614026565b61058e565b005b6101c660048036038101906101c19190614026565b610860565b6040516101d39190614c6f565b60405180910390f35b6101e46108f4565b6040516101f19190614aa3565b60405180910390f35b610214600480360381019061020f9190613d79565b61091a565b005b610230600480360381019061022b9190614026565b610d10565b60405161023e929190614fac565b60405180910390f35b61024f610db8565b60405161025c9190614f91565b60405180910390f35b61027f600480360381019061027a9190613f3f565b610dbe565b60405161028c9190614be0565b60405180910390f35b6102af60048036038101906102aa9190614026565b610f6f565b005b6102b961153a565b6040516102c69190614c54565b60405180910390f35b6102d7611540565b6040516102e49190614aa3565b60405180910390f35b61030760048036038101906103029190614026565b611566565b005b610323600480360381019061031e9190613ec7565b6118f9565b005b61033f600480360381019061033a919061404f565b611a7a565b005b61035b6004803603810190610356919061404f565b611d97565b005b6103656120c6565b6040516103729190614f91565b60405180910390f35b61039560048036038101906103909190614026565b6120cc565b005b6103b160048036038101906103ac9190613d3d565b6123b0565b6040516103be9190614c39565b60405180910390f35b6103e160048036038101906103dc9190613e38565b612444565b005b60008073ffffffffffffffffffffffffffffffffffffffff168373ffffffffffffffffffffffffffffffffffffffff161415610454576040517f08c379a000000000000000000000000000000000000000000000000000000000815260040161044b90614d51565b60405180910390fd5b60008083815260200190815260200160002060008473ffffffffffffffffffffffffffffffffffffffff1673ffffffffffffffffffffffffffffffffffffffff16815260200190815260200160002054905092915050565b60007fd9b67a26000000000000000000000000000000000000000000000000000000007bffffffffffffffffffffffffffffffffffffffffffffffffffffffff1916827bffffffffffffffffffffffffffffffffffffffffffffffffffffffff1916148061057757507f0e89341c000000000000000000000000000000000000000000000000000000007bffffffffffffffffffffffffffffffffffffffffffffffffffffffff1916827bffffffffffffffffffffffffffffffffffffffffffffffffffffffff1916145b8061058757506105868261275c565b5b9050919050565b6000600267ffffffffffffffff8111156105d1577f4e487b7100000000000000000000000000000000000000000000000000000000600052604160045260246000fd5b6040519080825280602002602001820160405280156105ff5781602001602082028036833780820191505090505b5090506000600267ffffffffffffffff811115610645577f4e487b7100000000000000000000000000000000000000000000000000000000600052604160045260246000fd5b6040519080825280602002602001820160405280156106735781602001602082028036833780820191505090505b50905060005b600281101561072b5760018161068f91906150ff565b8382815181106106c8577f4e487b7100000000000000000000000000000000000000000000000000000000600052603260045260246000fd5b6020026020010181815250508382828151811061070e577f4e487b7100000000000000000000000000000000000000000000000000000000600052603260045260246000fd5b6020026020010181815250508061072490615306565b9050610679565b506107373383836127c6565b600360009054906101000a900473ffffffffffffffffffffffffffffffffffffffff1673ffffffffffffffffffffffffffffffffffffffff1663a9059cbb33856040518363ffffffff1660e01b8152600401610794929190614bb7565b602060405180830381600087803b1580156107ae57600080fd5b505af11580156107c2573d6000803e3d6000fd5b505050506040513d601f19601f820116820180604052508101906107e69190613fab565b610825576040517f08c379a000000000000000000000000000000000000000000000000000000000815260040161081c90614d11565b60405180910390fd5b61083a83600754612acc90919063ffffffff16565b60078190555061085583600854612acc90919063ffffffff16565b600881905550505050565b60606002805461086f906152d4565b80601f016020809104026020016040519081016040528092919081815260200182805461089b906152d4565b80156108e85780601f106108bd576101008083540402835291602001916108e8565b820191906000526020600020905b8154815290600101906020018083116108cb57829003601f168201915b50505050509050919050565b600360009054906101000a900473ffffffffffffffffffffffffffffffffffffffff1681565b815183511461095e576040517f08c379a000000000000000000000000000000000000000000000000000000000815260040161095590614f31565b60405180910390fd5b600073ffffffffffffffffffffffffffffffffffffffff168473ffffffffffffffffffffffffffffffffffffffff1614156109ce576040517f08c379a00000000000000000000000000000000000000000000000000000000081526004016109c590614e31565b60405180910390fd5b6109d6612b25565b73ffffffffffffffffffffffffffffffffffffffff168573ffffffffffffffffffffffffffffffffffffffff161480610a1c5750610a1b85610a16612b25565b6123b0565b5b610a5b576040517f08c379a0000000000000000000000000000000000000000000000000000000008152600401610a5290614e51565b60405180910390fd5b6000610a65612b25565b9050610a75818787878787612b2d565b60005b8451811015610c7b576000858281518110610abc577f4e487b7100000000000000000000000000000000000000000000000000000000600052603260045260246000fd5b602002602001015190506000858381518110610b01577f4e487b7100000000000000000000000000000000000000000000000000000000600052603260045260246000fd5b60200260200101519050600080600084815260200190815260200160002060008b73ffffffffffffffffffffffffffffffffffffffff1673ffffffffffffffffffffffffffffffffffffffff16815260200190815260200160002054905081811015610ba2576040517f08c379a0000000000000000000000000000000000000000000000000000000008152600401610b9990614ed1565b60405180910390fd5b8181610bae91906151e0565b60008085815260200190815260200160002060008c73ffffffffffffffffffffffffffffffffffffffff1673ffffffffffffffffffffffffffffffffffffffff168152602001908152602001600020819055508160008085815260200190815260200160002060008b73ffffffffffffffffffffffffffffffffffffffff1673ffffffffffffffffffffffffffffffffffffffff1681526020019081526020016000206000828254610c6091906150ff565b9250508190555050505080610c7490615306565b9050610a78565b508473ffffffffffffffffffffffffffffffffffffffff168673ffffffffffffffffffffffffffffffffffffffff168273ffffffffffffffffffffffffffffffffffffffff167f4a39dc06d4c0dbc64b70af90fd698a233a518aa5d07e595d983b8c0526c8f7fb8787604051610cf2929190614c02565b60405180910390a4610d08818787878787612b35565b505050505050565b60008060066000848152602001908152602001600020600060028110610d5f577f4e487b7100000000000000000000000000000000000000000000000000000000600052603260045260246000fd5b015460066000858152602001908152602001600020600160028110610dad577f4e487b7100000000000000000000000000000000000000000000000000000000600052603260045260246000fd5b015491509150915091565b60075481565b60608151835114610e04576040517f08c379a0000000000000000000000000000000000000000000000000000000008152600401610dfb90614f11565b60405180910390fd5b6000835167ffffffffffffffff811115610e47577f4e487b7100000000000000000000000000000000000000000000000000000000600052604160045260246000fd5b604051908082528060200260200182016040528015610e755781602001602082028036833780820191505090505b50905060005b8451811015610f6457610f0e858281518110610ec0577f4e487b7100000000000000000000000000000000000000000000000000000000600052603260045260246000fd5b6020026020010151858381518110610f01577f4e487b7100000000000000000000000000000000000000000000000000000000600052603260045260246000fd5b60200260200101516103e3565b828281518110610f47577f4e487b7100000000000000000000000000000000000000000000000000000000600052603260045260246000fd5b60200260200101818152505080610f5d90615306565b9050610e7b565b508091505092915050565b600360009054906101000a900473ffffffffffffffffffffffffffffffffffffffff1673ffffffffffffffffffffffffffffffffffffffff166323b872dd3330846040518463ffffffff1660e01b8152600401610fce93929190614b26565b602060405180830381600087803b158015610fe857600080fd5b505af1158015610ffc573d6000803e3d6000fd5b505050506040513d601f19601f820116820180604052508101906110209190613fab565b61105f576040517f08c379a000000000000000000000000000000000000000000000000000000000815260040161105690614d31565b60405180910390fd5b6000600b54146112805760005b60028110156112725761113b600b546110c9600984600281106110b8577f4e487b7100000000000000000000000000000000000000000000000000000000600052603260045260246000fd5b015485612d0590919063ffffffff16565b6110d39190615155565b600660006001856110e491906150ff565b815260200190815260200160002060016002811061112b577f4e487b7100000000000000000000000000000000000000000000000000000000600052603260045260246000fd5b0154612d7290919063ffffffff16565b6006600060018461114c91906150ff565b8152602001908152602001600020600160028110611193577f4e487b7100000000000000000000000000000000000000000000000000000000600052603260045260246000fd5b018190555061120482600660006001856111ad91906150ff565b81526020019081526020016000206000600281106111f4577f4e487b7100000000000000000000000000000000000000000000000000000000600052603260045260246000fd5b0154612d7290919063ffffffff16565b6006600060018461121591906150ff565b815260200190815260200160002060006002811061125c577f4e487b7100000000000000000000000000000000000000000000000000000000600052603260045260246000fd5b01819055508061126b90615306565b905061106c565b506000600b81905550611500565b60005b60028110156114fe576113c7600660006001846112a091906150ff565b81526020019081526020016000206000600281106112e7577f4e487b7100000000000000000000000000000000000000000000000000000000600052603260045260246000fd5b0154611355600660006001866112fd91906150ff565b8152602001908152602001600020600160028110611344577f4e487b7100000000000000000000000000000000000000000000000000000000600052603260045260246000fd5b015485612d0590919063ffffffff16565b61135f9190615155565b6006600060018561137091906150ff565b81526020019081526020016000206001600281106113b7577f4e487b7100000000000000000000000000000000000000000000000000000000600052603260045260246000fd5b0154612d7290919063ffffffff16565b600660006001846113d891906150ff565b815260200190815260200160002060016002811061141f577f4e487b7100000000000000000000000000000000000000000000000000000000600052603260045260246000fd5b0181905550611490826006600060018561143991906150ff565b8152602001908152602001600020600060028110611480577f4e487b7100000000000000000000000000000000000000000000000000000000600052603260045260246000fd5b0154612d7290919063ffffffff16565b600660006001846114a191906150ff565b81526020019081526020016000206000600281106114e8577f4e487b7100000000000000000000000000000000000000000000000000000000600052603260045260246000fd5b0181905550806114f790615306565b9050611283565b505b61151c3360008360405180602001604052806000815250612dcb565b61153181600854612d7290919063ffffffff16565b60088190555050565b60055481565b600460009054906101000a900473ffffffffffffffffffffffffffffffffffffffff1681565b60006115733360006103e3565b116115b3576040517f08c379a00000000000000000000000000000000000000000000000000000000081526004016115aa90614cf1565b60405180910390fd5b60005b60028110156117a4576008546116426115da84600854612acc90919063ffffffff16565b600660006001866115eb91906150ff565b8152602001908152602001600020600060028110611632577f4e487b7100000000000000000000000000000000000000000000000000000000600052603260045260246000fd5b0154612d0590919063ffffffff16565b61164c9190615155565b6006600060018461165d91906150ff565b81526020019081526020016000206000600281106116a4577f4e487b7100000000000000000000000000000000000000000000000000000000600052603260045260246000fd5b018190555060085461172c6116c484600854612acc90919063ffffffff16565b600660006001866116d591906150ff565b815260200190815260200160002060016002811061171c577f4e487b7100000000000000000000000000000000000000000000000000000000600052603260045260246000fd5b0154612d0590919063ffffffff16565b6117369190615155565b6006600060018461174791906150ff565b815260200190815260200160002060016002811061178e577f4e487b7100000000000000000000000000000000000000000000000000000000600052603260045260246000fd5b01819055508061179d90615306565b90506115b6565b506008546117d16117c083600854612acc90919063ffffffff16565b600754612d0590919063ffffffff16565b6117db9190615155565b600781905550600360009054906101000a900473ffffffffffffffffffffffffffffffffffffffff1673ffffffffffffffffffffffffffffffffffffffff1663a9059cbb33836040518363ffffffff1660e01b815260040161183e929190614bb7565b602060405180830381600087803b15801561185857600080fd5b505af115801561186c573d6000803e3d6000fd5b505050506040513d601f19601f820116820180604052508101906118909190613fab565b6118cf576040517f08c379a00000000000000000000000000000000000000000000000000000000081526004016118c690614d11565b60405180910390fd5b6118db33600083612f61565b6118f081600854612acc90919063ffffffff16565b60088190555050565b8173ffffffffffffffffffffffffffffffffffffffff16611918612b25565b73ffffffffffffffffffffffffffffffffffffffff16141561196f576040517f08c379a000000000000000000000000000000000000000000000000000000000815260040161196690614ef1565b60405180910390fd5b806001600061197c612b25565b73ffffffffffffffffffffffffffffffffffffffff1673ffffffffffffffffffffffffffffffffffffffff16815260200190815260200160002060008473ffffffffffffffffffffffffffffffffffffffff1673ffffffffffffffffffffffffffffffffffffffff16815260200190815260200160002060006101000a81548160ff0219169083151502179055508173ffffffffffffffffffffffffffffffffffffffff16611a29612b25565b73ffffffffffffffffffffffffffffffffffffffff167f17307eab39ab6107e8899845ad3d59bd9653f200f220920489ca2b5937696c3183604051611a6e9190614c39565b60405180910390a35050565b600080611b228560066000878152602001908152602001600020600060028110611acd577f4e487b7100000000000000000000000000000000000000000000000000000000600052603260045260246000fd5b015460066000888152602001908152602001600020600160028110611b1b577f4e487b7100000000000000000000000000000000000000000000000000000000600052603260045260246000fd5b0154613187565b9050611b2f85858361325f565b611b428183612d7290919063ffffffff16565b5060005b6002811015611c4e576000611c0e8760066000600186611b6691906150ff565b8152602001908152602001600020600060028110611bad577f4e487b7100000000000000000000000000000000000000000000000000000000600052603260045260246000fd5b015460066000600187611bc091906150ff565b8152602001908152602001600020600160028110611c07577f4e487b7100000000000000000000000000000000000000000000000000000000600052603260045260246000fd5b01546133c6565b9050611c2785600184611c2191906150ff565b836134b1565b611c3a8385612acc90919063ffffffff16565b93505080611c4790615306565b9050611b46565b50611c6483600854612acc90919063ffffffff16565b600881905550611c9182611c8385600754612acc90919063ffffffff16565b612d7290919063ffffffff16565b600781905550611ca2338587612f61565b600360009054906101000a900473ffffffffffffffffffffffffffffffffffffffff1673ffffffffffffffffffffffffffffffffffffffff1663a9059cbb33856040518363ffffffff1660e01b8152600401611cff929190614bb7565b602060405180830381600087803b158015611d1957600080fd5b505af1158015611d2d573d6000803e3d6000fd5b505050506040513d601f19601f82011682018060405250810190611d519190613fab565b611d90576040517f08c379a0000000000000000000000000000000000000000000000000000000008152600401611d8790614e11565b60405180910390fd5b5050505050565b600080611e3f8560066000878152602001908152602001600020600060028110611dea577f4e487b7100000000000000000000000000000000000000000000000000000000600052603260045260246000fd5b015460066000888152602001908152602001600020600160028110611e38577f4e487b7100000000000000000000000000000000000000000000000000000000600052603260045260246000fd5b01546133c6565b9050611e4c8585836134b1565b60005b6002811015611f57576000611f178760066000600186611e6f91906150ff565b8152602001908152602001600020600060028110611eb6577f4e487b7100000000000000000000000000000000000000000000000000000000600052603260045260246000fd5b015460066000600187611ec991906150ff565b8152602001908152602001600020600160028110611f10577f4e487b7100000000000000000000000000000000000000000000000000000000600052603260045260246000fd5b0154613187565b9050611f3085600184611f2a91906150ff565b8361325f565b611f438185612d7290919063ffffffff16565b93505080611f5090615306565b9050611e4f565b50611f6b8183612acc90919063ffffffff16565b50611f8183600854612d7290919063ffffffff16565b600881905550611fae82611fa085600754612d7290919063ffffffff16565b612d7290919063ffffffff16565b600781905550600360009054906101000a900473ffffffffffffffffffffffffffffffffffffffff1673ffffffffffffffffffffffffffffffffffffffff166323b872dd3330866040518463ffffffff1660e01b815260040161201393929190614b26565b602060405180830381600087803b15801561202d57600080fd5b505af1158015612041573d6000803e3d6000fd5b505050506040513d601f19601f820116820180604052508101906120659190613fab565b6120a4576040517f08c379a000000000000000000000000000000000000000000000000000000000815260040161209b90614d31565b60405180910390fd5b6120bf33858760405180602001604052806000815250612dcb565b5050505050565b60085481565b6000600267ffffffffffffffff81111561210f577f4e487b7100000000000000000000000000000000000000000000000000000000600052604160045260246000fd5b60405190808252806020026020018201604052801561213d5781602001602082028036833780820191505090505b5090506000600267ffffffffffffffff811115612183577f4e487b7100000000000000000000000000000000000000000000000000000000600052604160045260246000fd5b6040519080825280602002602001820160405280156121b15781602001602082028036833780820191505090505b50905060005b6002811015612269576001816121cd91906150ff565b838281518110612206577f4e487b7100000000000000000000000000000000000000000000000000000000600052603260045260246000fd5b6020026020010181815250508382828151811061224c577f4e487b7100000000000000000000000000000000000000000000000000000000600052603260045260246000fd5b6020026020010181815250508061226290615306565b90506121b7565b50600360009054906101000a900473ffffffffffffffffffffffffffffffffffffffff1673ffffffffffffffffffffffffffffffffffffffff166323b872dd3330866040518463ffffffff1660e01b81526004016122c993929190614b26565b602060405180830381600087803b1580156122e357600080fd5b505af11580156122f7573d6000803e3d6000fd5b505050506040513d601f19601f8201168201806040525081019061231b9190613fab565b61235a576040517f08c379a000000000000000000000000000000000000000000000000000000000815260040161235190614e71565b60405180910390fd5b61237533838360405180602001604052806000815250613618565b61238a83600754612d7290919063ffffffff16565b6007819055506123a583600854612d7290919063ffffffff16565b600881905550505050565b6000600160008473ffffffffffffffffffffffffffffffffffffffff1673ffffffffffffffffffffffffffffffffffffffff16815260200190815260200160002060008373ffffffffffffffffffffffffffffffffffffffff1673ffffffffffffffffffffffffffffffffffffffff16815260200190815260200160002060009054906101000a900460ff16905092915050565b600073ffffffffffffffffffffffffffffffffffffffff168473ffffffffffffffffffffffffffffffffffffffff1614156124b4576040517f08c379a00000000000000000000000000000000000000000000000000000000081526004016124ab90614e31565b60405180910390fd5b6124bc612b25565b73ffffffffffffffffffffffffffffffffffffffff168573ffffffffffffffffffffffffffffffffffffffff1614806125025750612501856124fc612b25565b6123b0565b5b612541576040517f08c379a000000000000000000000000000000000000000000000000000000000815260040161253890614df1565b60405180910390fd5b600061254b612b25565b905061256b81878761255c88613882565b61256588613882565b87612b2d565b600080600086815260200190815260200160002060008873ffffffffffffffffffffffffffffffffffffffff1673ffffffffffffffffffffffffffffffffffffffff16815260200190815260200160002054905083811015612602576040517f08c379a00000000000000000000000000000000000000000000000000000000081526004016125f990614ed1565b60405180910390fd5b838161260e91906151e0565b60008087815260200190815260200160002060008973ffffffffffffffffffffffffffffffffffffffff1673ffffffffffffffffffffffffffffffffffffffff168152602001908152602001600020819055508360008087815260200190815260200160002060008873ffffffffffffffffffffffffffffffffffffffff1673ffffffffffffffffffffffffffffffffffffffff16815260200190815260200160002060008282546126c091906150ff565b925050819055508573ffffffffffffffffffffffffffffffffffffffff168773ffffffffffffffffffffffffffffffffffffffff168373ffffffffffffffffffffffffffffffffffffffff167fc3d58168c5ae7397731d063d5bbf3d657854427343f4c083240f7aacaa2d0f62888860405161273d929190614fac565b60405180910390a4612753828888888888613948565b50505050505050565b60007f01ffc9a7000000000000000000000000000000000000000000000000000000007bffffffffffffffffffffffffffffffffffffffffffffffffffffffff1916827bffffffffffffffffffffffffffffffffffffffffffffffffffffffff1916149050919050565b600073ffffffffffffffffffffffffffffffffffffffff168373ffffffffffffffffffffffffffffffffffffffff161415612836576040517f08c379a000000000000000000000000000000000000000000000000000000000815260040161282d90614eb1565b60405180910390fd5b805182511461287a576040517f08c379a000000000000000000000000000000000000000000000000000000000815260040161287190614f31565b60405180910390fd5b6000612884612b25565b90506128a481856000868660405180602001604052806000815250612b2d565b60005b8351811015612a465760008482815181106128eb577f4e487b7100000000000000000000000000000000000000000000000000000000600052603260045260246000fd5b602002602001015190506000848381518110612930577f4e487b7100000000000000000000000000000000000000000000000000000000600052603260045260246000fd5b60200260200101519050600080600084815260200190815260200160002060008973ffffffffffffffffffffffffffffffffffffffff1673ffffffffffffffffffffffffffffffffffffffff168152602001908152602001600020549050818110156129d1576040517f08c379a00000000000000000000000000000000000000000000000000000000081526004016129c890614d91565b60405180910390fd5b81816129dd91906151e0565b60008085815260200190815260200160002060008a73ffffffffffffffffffffffffffffffffffffffff1673ffffffffffffffffffffffffffffffffffffffff168152602001908152602001600020819055505050508080612a3e90615306565b9150506128a7565b50600073ffffffffffffffffffffffffffffffffffffffff168473ffffffffffffffffffffffffffffffffffffffff168273ffffffffffffffffffffffffffffffffffffffff167f4a39dc06d4c0dbc64b70af90fd698a233a518aa5d07e595d983b8c0526c8f7fb8686604051612abe929190614c02565b60405180910390a450505050565b6000828284612adb91906151e0565b9150811115612b1f576040517f08c379a0000000000000000000000000000000000000000000000000000000008152600401612b1690614cb1565b60405180910390fd5b92915050565b600033905090565b505050505050565b612b548473ffffffffffffffffffffffffffffffffffffffff16613b18565b15612cfd578373ffffffffffffffffffffffffffffffffffffffff1663bc197c8187878686866040518663ffffffff1660e01b8152600401612b9a959493929190614abe565b602060405180830381600087803b158015612bb457600080fd5b505af1925050508015612be557506040513d601f19601f82011682018060405250810190612be29190613ffd565b60015b612c7457612bf1615429565b80612bfc5750612c39565b806040517f08c379a0000000000000000000000000000000000000000000000000000000008152600401612c309190614c6f565b60405180910390fd5b6040517f08c379a0000000000000000000000000000000000000000000000000000000008152600401612c6b90614c91565b60405180910390fd5b63bc197c8160e01b7bffffffffffffffffffffffffffffffffffffffffffffffffffffffff1916817bffffffffffffffffffffffffffffffffffffffffffffffffffffffff191614612cfb576040517f08c379a0000000000000000000000000000000000000000000000000000000008152600401612cf290614cd1565b60405180910390fd5b505b505050505050565b600080821480612d2d575082828385612d1e9190615186565b925082612d2b9190615155565b145b612d6c576040517f08c379a0000000000000000000000000000000000000000000000000000000008152600401612d6390614d71565b60405180910390fd5b92915050565b6000828284612d8191906150ff565b9150811015612dc5576040517f08c379a0000000000000000000000000000000000000000000000000000000008152600401612dbc90614dd1565b60405180910390fd5b92915050565b600073ffffffffffffffffffffffffffffffffffffffff168473ffffffffffffffffffffffffffffffffffffffff161415612e3b576040517f08c379a0000000000000000000000000000000000000000000000000000000008152600401612e3290614f51565b60405180910390fd5b6000612e45612b25565b9050612e6681600087612e5788613882565b612e6088613882565b87612b2d565b8260008086815260200190815260200160002060008773ffffffffffffffffffffffffffffffffffffffff1673ffffffffffffffffffffffffffffffffffffffff1681526020019081526020016000206000828254612ec591906150ff565b925050819055508473ffffffffffffffffffffffffffffffffffffffff16600073ffffffffffffffffffffffffffffffffffffffff168273ffffffffffffffffffffffffffffffffffffffff167fc3d58168c5ae7397731d063d5bbf3d657854427343f4c083240f7aacaa2d0f628787604051612f43929190614fac565b60405180910390a4612f5a81600087878787613948565b5050505050565b600073ffffffffffffffffffffffffffffffffffffffff168373ffffffffffffffffffffffffffffffffffffffff161415612fd1576040517f08c379a0000000000000000000000000000000000000000000000000000000008152600401612fc890614eb1565b60405180910390fd5b6000612fdb612b25565b905061300b81856000612fed87613882565b612ff687613882565b60405180602001604052806000815250612b2d565b600080600085815260200190815260200160002060008673ffffffffffffffffffffffffffffffffffffffff1673ffffffffffffffffffffffffffffffffffffffff168152602001908152602001600020549050828110156130a2576040517f08c379a000000000000000000000000000000000000000000000000000000000815260040161309990614d91565b60405180910390fd5b82816130ae91906151e0565b60008086815260200190815260200160002060008773ffffffffffffffffffffffffffffffffffffffff1673ffffffffffffffffffffffffffffffffffffffff16815260200190815260200160002081905550600073ffffffffffffffffffffffffffffffffffffffff168573ffffffffffffffffffffffffffffffffffffffff168373ffffffffffffffffffffffffffffffffffffffff167fc3d58168c5ae7397731d063d5bbf3d657854427343f4c083240f7aacaa2d0f628787604051613178929190614fac565b60405180910390a45050505050565b60008084116131cb576040517f08c379a00000000000000000000000000000000000000000000000000000000081526004016131c290614f71565b60405180910390fd5b6000821180156131db5750600083115b61321a576040517f08c379a000000000000000000000000000000000000000000000000000000000815260040161321190614e91565b60405180910390fd5b600061322f8386612d0590919063ffffffff16565b905060006132468686612d7290919063ffffffff16565b905080826132549190615155565b925050509392505050565b6132bf83600660008581526020019081526020016000206000600281106132af577f4e487b7100000000000000000000000000000000000000000000000000000000600052603260045260246000fd5b0154612d7290919063ffffffff16565b6006600084815260200190815260200160002060006002811061330b577f4e487b7100000000000000000000000000000000000000000000000000000000600052603260045260246000fd5b01819055506133708160066000858152602001908152602001600020600160028110613360577f4e487b7100000000000000000000000000000000000000000000000000000000600052603260045260246000fd5b0154612acc90919063ffffffff16565b600660008481526020019081526020016000206001600281106133bc577f4e487b7100000000000000000000000000000000000000000000000000000000600052603260045260246000fd5b0181905550505050565b600080841161340a576040517f08c379a000000000000000000000000000000000000000000000000000000000815260040161340190614db1565b60405180910390fd5b60008211801561341a5750600083115b613459576040517f08c379a000000000000000000000000000000000000000000000000000000000815260040161345090614e91565b60405180910390fd5b600061346e8584612d0590919063ffffffff16565b905060006134858686612acc90919063ffffffff16565b90506134a6600182846134989190615155565b612d7290919063ffffffff16565b925050509392505050565b6135118360066000858152602001908152602001600020600060028110613501577f4e487b7100000000000000000000000000000000000000000000000000000000600052603260045260246000fd5b0154612acc90919063ffffffff16565b6006600084815260200190815260200160002060006002811061355d577f4e487b7100000000000000000000000000000000000000000000000000000000600052603260045260246000fd5b01819055506135c281600660008581526020019081526020016000206001600281106135b2577f4e487b7100000000000000000000000000000000000000000000000000000000600052603260045260246000fd5b0154612d7290919063ffffffff16565b6006600084815260200190815260200160002060016002811061360e577f4e487b7100000000000000000000000000000000000000000000000000000000600052603260045260246000fd5b0181905550505050565b600073ffffffffffffffffffffffffffffffffffffffff168473ffffffffffffffffffffffffffffffffffffffff161415613688576040517f08c379a000000000000000000000000000000000000000000000000000000000815260040161367f90614f51565b60405180910390fd5b81518351146136cc576040517f08c379a00000000000000000000000000000000000000000000000000000000081526004016136c390614f31565b60405180910390fd5b60006136d6612b25565b90506136e781600087878787612b2d565b60005b84518110156137ec5783818151811061372c577f4e487b7100000000000000000000000000000000000000000000000000000000600052603260045260246000fd5b6020026020010151600080878481518110613770577f4e487b7100000000000000000000000000000000000000000000000000000000600052603260045260246000fd5b6020026020010151815260200190815260200160002060008873ffffffffffffffffffffffffffffffffffffffff1673ffffffffffffffffffffffffffffffffffffffff16815260200190815260200160002060008282546137d291906150ff565b9250508190555080806137e490615306565b9150506136ea565b508473ffffffffffffffffffffffffffffffffffffffff16600073ffffffffffffffffffffffffffffffffffffffff168273ffffffffffffffffffffffffffffffffffffffff167f4a39dc06d4c0dbc64b70af90fd698a233a518aa5d07e595d983b8c0526c8f7fb8787604051613864929190614c02565b60405180910390a461387b81600087878787612b35565b5050505050565b60606000600167ffffffffffffffff8111156138c7577f4e487b7100000000000000000000000000000000000000000000000000000000600052604160045260246000fd5b6040519080825280602002602001820160405280156138f55781602001602082028036833780820191505090505b5090508281600081518110613933577f4e487b7100000000000000000000000000000000000000000000000000000000600052603260045260246000fd5b60200260200101818152505080915050919050565b6139678473ffffffffffffffffffffffffffffffffffffffff16613b18565b15613b10578373ffffffffffffffffffffffffffffffffffffffff1663f23a6e6187878686866040518663ffffffff1660e01b81526004016139ad959493929190614b5d565b602060405180830381600087803b1580156139c757600080fd5b505af19250505080156139f857506040513d601f19601f820116820180604052508101906139f59190613ffd565b60015b613a8757613a04615429565b80613a0f5750613a4c565b806040517f08c379a0000000000000000000000000000000000000000000000000000000008152600401613a439190614c6f565b60405180910390fd5b6040517f08c379a0000000000000000000000000000000000000000000000000000000008152600401613a7e90614c91565b60405180910390fd5b63f23a6e6160e01b7bffffffffffffffffffffffffffffffffffffffffffffffffffffffff1916817bffffffffffffffffffffffffffffffffffffffffffffffffffffffff191614613b0e576040517f08c379a0000000000000000000000000000000000000000000000000000000008152600401613b0590614cd1565b60405180910390fd5b505b505050505050565b600080823b905060008111915050919050565b6000613b3e613b3984615006565b614fd5565b90508083825260208201905082856020860282011115613b5d57600080fd5b60005b85811015613b8d5781613b738882613c41565b845260208401935060208301925050600181019050613b60565b5050509392505050565b6000613baa613ba584615032565b614fd5565b90508083825260208201905082856020860282011115613bc957600080fd5b60005b85811015613bf95781613bdf8882613d28565b845260208401935060208301925050600181019050613bcc565b5050509392505050565b6000613c16613c118461505e565b614fd5565b905082815260208101848484011115613c2e57600080fd5b613c39848285615292565b509392505050565b600081359050613c50816154df565b92915050565b600082601f830112613c6757600080fd5b8135613c77848260208601613b2b565b91505092915050565b600082601f830112613c9157600080fd5b8135613ca1848260208601613b97565b91505092915050565b600081359050613cb9816154f6565b92915050565b600081519050613cce816154f6565b92915050565b600081359050613ce38161550d565b92915050565b600081519050613cf88161550d565b92915050565b600082601f830112613d0f57600080fd5b8135613d1f848260208601613c03565b91505092915050565b600081359050613d3781615524565b92915050565b60008060408385031215613d5057600080fd5b6000613d5e85828601613c41565b9250506020613d6f85828601613c41565b9150509250929050565b600080600080600060a08688031215613d9157600080fd5b6000613d9f88828901613c41565b9550506020613db088828901613c41565b945050604086013567ffffffffffffffff811115613dcd57600080fd5b613dd988828901613c80565b935050606086013567ffffffffffffffff811115613df657600080fd5b613e0288828901613c80565b925050608086013567ffffffffffffffff811115613e1f57600080fd5b613e2b88828901613cfe565b9150509295509295909350565b600080600080600060a08688031215613e5057600080fd5b6000613e5e88828901613c41565b9550506020613e6f88828901613c41565b9450506040613e8088828901613d28565b9350506060613e9188828901613d28565b925050608086013567ffffffffffffffff811115613eae57600080fd5b613eba88828901613cfe565b9150509295509295909350565b60008060408385031215613eda57600080fd5b6000613ee885828601613c41565b9250506020613ef985828601613caa565b9150509250929050565b60008060408385031215613f1657600080fd5b6000613f2485828601613c41565b9250506020613f3585828601613d28565b9150509250929050565b60008060408385031215613f5257600080fd5b600083013567ffffffffffffffff811115613f6c57600080fd5b613f7885828601613c56565b925050602083013567ffffffffffffffff811115613f9557600080fd5b613fa185828601613c80565b9150509250929050565b600060208284031215613fbd57600080fd5b6000613fcb84828501613cbf565b91505092915050565b600060208284031215613fe657600080fd5b6000613ff484828501613cd4565b91505092915050565b60006020828403121561400f57600080fd5b600061401d84828501613ce9565b91505092915050565b60006020828403121561403857600080fd5b600061404684828501613d28565b91505092915050565b60008060006060848603121561406457600080fd5b600061407286828701613d28565b935050602061408386828701613d28565b925050604061409486828701613d28565b9150509250925092565b60006140aa8383614a85565b60208301905092915050565b6140bf81615214565b82525050565b60006140d08261509e565b6140da81856150cc565b93506140e58361508e565b8060005b838110156141165781516140fd888261409e565b9750614108836150bf565b9250506001810190506140e9565b5085935050505092915050565b61412c81615226565b82525050565b61413b81615232565b82525050565b600061414c826150a9565b61415681856150dd565b93506141668185602086016152a1565b61416f8161540b565b840191505092915050565b6000614185826150b4565b61418f81856150ee565b935061419f8185602086016152a1565b6141a88161540b565b840191505092915050565b60006141c06034836150ee565b91507f455243313135353a207472616e7366657220746f206e6f6e204552433131353560008301527f526563656976657220696d706c656d656e7465720000000000000000000000006020830152604082019050919050565b60006142266015836150ee565b91507f64732d6d6174682d7375622d756e646572666c6f7700000000000000000000006000830152602082019050919050565b60006142666028836150ee565b91507f455243313135353a204552433131353552656365697665722072656a6563746560008301527f6420746f6b656e730000000000000000000000000000000000000000000000006020830152604082019050919050565b60006142cc6025836150ee565b91507f6e6f7420656e6f756768206c697175696469747920746f6b656e7320746f207260008301527f656465656d0000000000000000000000000000000000000000000000000000006020830152604082019050919050565b60006143326024836150ee565b91507f636f756c64206e6f74207472616e7366657220636f6c6c61746572616c20746f60008301527f6b656e73000000000000000000000000000000000000000000000000000000006020830152604082019050919050565b60006143986019836150ee565b91507f756e61626c6520746f20726563656976652072657365727665000000000000006000830152602082019050919050565b60006143d8602b836150ee565b91507f455243313135353a2062616c616e636520717565727920666f7220746865207a60008301527f65726f20616464726573730000000000000000000000000000000000000000006020830152604082019050919050565b600061443e6014836150ee565b91507f64732d6d6174682d6d756c2d6f766572666c6f770000000000000000000000006000830152602082019050919050565b600061447e6024836150ee565b91507f455243313135353a206275726e20616d6f756e7420657863656564732062616c60008301527f616e6365000000000000000000000000000000000000000000000000000000006020830152604082019050919050565b60006144e4602c836150ee565b91507f556e697377617056324c6962726172793a20494e53554646494349454e545f4f60008301527f55545055545f414d4f554e5400000000000000000000000000000000000000006020830152604082019050919050565b600061454a6014836150ee565b91507f64732d6d6174682d6164642d6f766572666c6f770000000000000000000000006000830152602082019050919050565b600061458a6029836150ee565b91507f455243313135353a2063616c6c6572206973206e6f74206f776e6572206e6f7260008301527f20617070726f76656400000000000000000000000000000000000000000000006020830152604082019050919050565b60006145f0601a836150ee565b91507f636f756c64206e6f74207472616e7366657220726573657276650000000000006000830152602082019050919050565b60006146306025836150ee565b91507f455243313135353a207472616e7366657220746f20746865207a65726f20616460008301527f64726573730000000000000000000000000000000000000000000000000000006020830152604082019050919050565b60006146966032836150ee565b91507f455243313135353a207472616e736665722063616c6c6572206973206e6f742060008301527f6f776e6572206e6f7220617070726f76656400000000000000000000000000006020830152604082019050919050565b60006146fc6023836150ee565b91507f636f756c64206e6f74207265636569766520636f6c6c61746572616c20746f6b60008301527f656e7300000000000000000000000000000000000000000000000000000000006020830152604082019050919050565b60006147626028836150ee565b91507f556e697377617056324c6962726172793a20494e53554646494349454e545f4c60008301527f49515549444954590000000000000000000000000000000000000000000000006020830152604082019050919050565b60006147c86023836150ee565b91507f455243313135353a206275726e2066726f6d20746865207a65726f206164647260008301527f65737300000000000000000000000000000000000000000000000000000000006020830152604082019050919050565b600061482e602a836150ee565b91507f455243313135353a20696e73756666696369656e742062616c616e636520666f60008301527f72207472616e73666572000000000000000000000000000000000000000000006020830152604082019050919050565b60006148946029836150ee565b91507f455243313135353a2073657474696e6720617070726f76616c2073746174757360008301527f20666f722073656c6600000000000000000000000000000000000000000000006020830152604082019050919050565b60006148fa6029836150ee565b91507f455243313135353a206163636f756e747320616e6420696473206c656e67746860008301527f206d69736d6174636800000000000000000000000000000000000000000000006020830152604082019050919050565b60006149606028836150ee565b91507f455243313135353a2069647320616e6420616d6f756e7473206c656e6774682060008301527f6d69736d617463680000000000000000000000000000000000000000000000006020830152604082019050919050565b60006149c66021836150ee565b91507f455243313135353a206d696e7420746f20746865207a65726f2061646472657360008301527f73000000000000000000000000000000000000000000000000000000000000006020830152604082019050919050565b6000614a2c602b836150ee565b91507f556e697377617056324c6962726172793a20494e53554646494349454e545f4960008301527f4e5055545f414d4f554e540000000000000000000000000000000000000000006020830152604082019050919050565b614a8e81615288565b82525050565b614a9d81615288565b82525050565b6000602082019050614ab860008301846140b6565b92915050565b600060a082019050614ad360008301886140b6565b614ae060208301876140b6565b8181036040830152614af281866140c5565b90508181036060830152614b0681856140c5565b90508181036080830152614b1a8184614141565b90509695505050505050565b6000606082019050614b3b60008301866140b6565b614b4860208301856140b6565b614b556040830184614a94565b949350505050565b600060a082019050614b7260008301886140b6565b614b7f60208301876140b6565b614b8c6040830186614a94565b614b996060830185614a94565b8181036080830152614bab8184614141565b90509695505050505050565b6000604082019050614bcc60008301856140b6565b614bd96020830184614a94565b9392505050565b60006020820190508181036000830152614bfa81846140c5565b905092915050565b60006040820190508181036000830152614c1c81856140c5565b90508181036020830152614c3081846140c5565b90509392505050565b6000602082019050614c4e6000830184614123565b92915050565b6000602082019050614c696000830184614132565b92915050565b60006020820190508181036000830152614c89818461417a565b905092915050565b60006020820190508181036000830152614caa816141b3565b9050919050565b60006020820190508181036000830152614cca81614219565b9050919050565b60006020820190508181036000830152614cea81614259565b9050919050565b60006020820190508181036000830152614d0a816142bf565b9050919050565b60006020820190508181036000830152614d2a81614325565b9050919050565b60006020820190508181036000830152614d4a8161438b565b9050919050565b60006020820190508181036000830152614d6a816143cb565b9050919050565b60006020820190508181036000830152614d8a81614431565b9050919050565b60006020820190508181036000830152614daa81614471565b9050919050565b60006020820190508181036000830152614dca816144d7565b9050919050565b60006020820190508181036000830152614dea8161453d565b9050919050565b60006020820190508181036000830152614e0a8161457d565b9050919050565b60006020820190508181036000830152614e2a816145e3565b9050919050565b60006020820190508181036000830152614e4a81614623565b9050919050565b60006020820190508181036000830152614e6a81614689565b9050919050565b60006020820190508181036000830152614e8a816146ef565b9050919050565b60006020820190508181036000830152614eaa81614755565b9050919050565b60006020820190508181036000830152614eca816147bb565b9050919050565b60006020820190508181036000830152614eea81614821565b9050919050565b60006020820190508181036000830152614f0a81614887565b9050919050565b60006020820190508181036000830152614f2a816148ed565b9050919050565b60006020820190508181036000830152614f4a81614953565b9050919050565b60006020820190508181036000830152614f6a816149b9565b9050919050565b60006020820190508181036000830152614f8a81614a1f565b9050919050565b6000602082019050614fa66000830184614a94565b92915050565b6000604082019050614fc16000830185614a94565b614fce6020830184614a94565b9392505050565b6000604051905081810181811067ffffffffffffffff82111715614ffc57614ffb6153dc565b5b8060405250919050565b600067ffffffffffffffff821115615021576150206153dc565b5b602082029050602081019050919050565b600067ffffffffffffffff82111561504d5761504c6153dc565b5b602082029050602081019050919050565b600067ffffffffffffffff821115615079576150786153dc565b5b601f19601f8301169050602081019050919050565b6000819050602082019050919050565b600081519050919050565b600081519050919050565b600081519050919050565b6000602082019050919050565b600082825260208201905092915050565b600082825260208201905092915050565b600082825260208201905092915050565b600061510a82615288565b915061511583615288565b9250827fffffffffffffffffffffffffffffffffffffffffffffffffffffffffffffffff0382111561514a5761514961534f565b5b828201905092915050565b600061516082615288565b915061516b83615288565b92508261517b5761517a61537e565b5b828204905092915050565b600061519182615288565b915061519c83615288565b9250817fffffffffffffffffffffffffffffffffffffffffffffffffffffffffffffffff04831182151516156151d5576151d461534f565b5b828202905092915050565b60006151eb82615288565b91506151f683615288565b9250828210156152095761520861534f565b5b828203905092915050565b600061521f82615268565b9050919050565b60008115159050919050565b6000819050919050565b60007fffffffff0000000000000000000000000000000000000000000000000000000082169050919050565b600073ffffffffffffffffffffffffffffffffffffffff82169050919050565b6000819050919050565b82818337600083830152505050565b60005b838110156152bf5780820151818401526020810190506152a4565b838111156152ce576000848401525b50505050565b600060028204905060018216806152ec57607f821691505b60208210811415615300576152ff6153ad565b5b50919050565b600061531182615288565b91507fffffffffffffffffffffffffffffffffffffffffffffffffffffffffffffffff8214156153445761534361534f565b5b600182019050919050565b7f4e487b7100000000000000000000000000000000000000000000000000000000600052601160045260246000fd5b7f4e487b7100000000000000000000000000000000000000000000000000000000600052601260045260246000fd5b7f4e487b7100000000000000000000000000000000000000000000000000000000600052602260045260246000fd5b7f4e487b7100000000000000000000000000000000000000000000000000000000600052604160045260246000fd5b6000601f19601f8301169050919050565b60008160e01c9050919050565b600060443d1015615439576154dc565b60046000803e61544a60005161541c565b6308c379a0811461545b57506154dc565b60405160043d036004823e80513d602482011167ffffffffffffffff82111715615487575050506154dc565b808201805167ffffffffffffffff8111156154a65750505050506154dc565b8060208301013d85018111156154c1575050505050506154dc565b6154ca8261540b565b60208401016040528296505050505050505b90565b6154e881615214565b81146154f357600080fd5b50565b6154ff81615226565b811461550a57600080fd5b50565b6155168161523c565b811461552157600080fd5b50565b61552d81615288565b811461553857600080fd5b5056fea2646970667358221220c34e71fec70b6fd5113cecd7d1086cbc94f07d4ac28e81596ccf0189044cb8fd64736f6c63430008000033",
  "immutableReferences": {},
  "source": "// SPDX-License-Identifier: MIT\npragma solidity ^0.8.0;\n\nimport \"@openzeppelin/contracts/token/ERC1155/ERC1155.sol\";\nimport \"@openzeppelin/contracts/token/ERC20/IERC20.sol\";\nimport \"./libraries/SafeMath.sol\";\nimport \"./libraries/PredictionLibrary.sol\"; \n\ncontract Prediction is ERC1155(\"FREE\") {\n\n    using SafeMath for uint; \n\n    address public coin;\n    address public oracle; \n    bytes32 public identifier;\n\n    //maps from pool to items in pool C, R\n    mapping(uint => uint[2]) contents;\n    uint public b;\n    uint public mints; \n\n    uint[2] initialRatioNumerator;\n    uint initialRatioDenominator;\n\n    uint winner;\n\n    constructor (address _coin) {\n        coin = _coin;\n        oracle = msg.sender;  \n        identifier = keccak256(abi.encodePacked(oracle, \"Heads or Tails\", uint(2)));\n        initialRatioNumerator = [1, 1];\n        initialRatioDenominator = 2; \n    }\n\n    function buySet(uint _amount) public {\n        uint[] memory positionIds = new uint[](uint(2));\n        uint[] memory amounts = new uint[](uint(2));\n\n        for (uint i = 0; i < uint(2); ++i) {\n            positionIds[i] = i+1; \n            amounts[i] = _amount;\n        }\n\n        require(IERC20(coin).transferFrom(msg.sender, address(this), _amount), \"could not receive collateral tokens\");\n        _mintBatch(\n            msg.sender,\n            positionIds,\n            amounts,\n            \"\"\n        );\n        b = b.add(_amount); \n        mints = mints.add(_amount); \n    }\n\n    function sellSet(uint _amount) public {\n        uint[] memory positionIds = new uint[](uint(2));\n        uint[] memory amounts = new uint[](uint(2));\n\n        for (uint i = 0; i < uint(2); ++i) {\n            positionIds[i] = i+1; \n            amounts[i] = _amount;\n        }\n\n        _burnBatch(\n            msg.sender,\n            positionIds,\n            amounts\n        );\n        require(IERC20(coin).transfer(msg.sender, _amount), \"could not transfer collateral tokens\");\n        b = b.sub(_amount); \n        mints = mints.sub(_amount);  \n    }\n\n    function getState(uint _id) public view returns (uint _contractAmount, uint _reserveAmount) {\n        return (contents[_id][0], contents[_id][1]);\n    }\n\n    function _buyRaw(uint _amount, uint _id) private {\n        uint reserveIn = PredictionLibrary.getReserveIn(_amount, contents[_id][0], contents[_id][1]);\n        require(IERC20(coin).transferFrom(msg.sender, address(this), reserveIn), \"unable to receive reserve\");\n        _mint(msg.sender, _id, _amount, \"\");\n        _buyRawState(_amount, _id, reserveIn);\n    }\n\n    function _sellRaw(uint _amount, uint _id) private {\n        uint reserveOut = PredictionLibrary.getReserveOut(_amount, contents[_id][0], contents[_id][1]);\n        _burn(msg.sender, _id, _amount); \n        require(IERC20(coin).transfer(msg.sender, reserveOut), \"could not transfer reserve\");\n        _sellRawState(_amount, _id, reserveOut); \n    }\n\n    function _buyRawState(uint _amount, uint _id, uint reserveIn) private {\n        contents[_id][0] = contents[_id][0].sub(_amount); \n        contents[_id][1] = contents[_id][1].add(reserveIn); \n    }\n\n    function _sellRawState(uint _amount, uint _id, uint reserveOut) private {\n        contents[_id][0] = contents[_id][0].add(_amount); \n        contents[_id][1] = contents[_id][1].sub(reserveOut); \n    }\n\n    // function buyContract(uint _amount, uint _id) public {\n    //     _buyRaw(_amount, _id);\n    // }\n\n    // function sellContract(uint _amount, uint _id) public {\n    //     _sellRaw(_amount, _id); \n    // }\n\n    function buyContract(uint _amount, uint _id, uint _y) public {\n        uint kept; \n        //buy raw\n        uint reserveIn = PredictionLibrary.getReserveIn(_amount, contents[_id][0], contents[_id][1]);\n        _buyRawState(_amount, _id, reserveIn);\n\n        //sell set as raw\n        for (uint i = 0; i < uint(2); ++i) {\n            uint reserveOut = PredictionLibrary.getReserveOut(_amount, contents[i+1][0], contents[i+1][1]); \n            _sellRawState(_y, i+1, reserveOut);\n            kept = kept.add(reserveOut); \n        }\n\n        kept.sub(reserveIn); \n\n        mints = mints.add(_y); \n        b = b.add(_y).add(kept); \n\n        require(IERC20(coin).transferFrom(msg.sender, address(this), _y), \"unable to receive reserve\");\n        _mint(msg.sender, _id, _amount, \"\");\n    }\n\n    function sellContract(uint _amount, uint _id, uint _y) public {\n        uint kept; \n        //sell raw\n        uint reserveOut = PredictionLibrary.getReserveOut(_amount, contents[_id][0], contents[_id][1]);\n        _sellRawState(_amount, _id, reserveOut);\n        kept.add(reserveOut); \n\n        //buy set as raw\n        for (uint i = 0; i < uint(2); ++i) {\n            uint reserveIn = PredictionLibrary.getReserveIn(_amount, contents[i+1][0], contents[i+1][1]); \n            _buyRawState(_y, i+1, reserveIn);\n            kept = kept.sub(reserveOut); \n        }\n\n        mints = mints.sub(_y); \n        b = b.sub(_y).add(kept); \n\n        _burn(msg.sender, _id, _amount); \n        require(IERC20(coin).transfer(msg.sender, _y), \"could not transfer reserve\");\n    }\n\n    function addLiquidity(uint _amount) public {\n        // require(_amount <= 2**112-1, \"overflow\"); \n        require(IERC20(coin).transferFrom(msg.sender, address(this), uint(_amount)), \"unable to receive reserve\");\n        if (initialRatioDenominator != 0) {\n            for (uint i = 0; i < uint(2); ++i) {\n                //TODO: adjust for fixed point decimals\n                contents[i+1][1] = contents[i+1][1].add(_amount.mul(initialRatioNumerator[i]) / initialRatioDenominator);\n                contents[i+1][0] = contents[i+1][0].add(_amount);\n            }\n            initialRatioDenominator = 0; \n        } else {\n            for (uint i = 0; i < uint(2); ++i) {\n                //TODO: adjust for fixed point decimals\n                contents[i+1][1] = contents[i+1][1].add(_amount.mul(contents[i+1][1]) / contents[i+1][0]);\n                contents[i+1][0] = contents[i+1][0].add(_amount);\n            }\n        }\n        _mint(msg.sender, 0, _amount, \"\");\n        mints = mints.add(_amount); \n    }\n\n    function removeLiquidity(uint _amount) public {\n        require(balanceOf(msg.sender, 0) > 0, \"not enough liquidity tokens to redeem\");\n        for (uint i = 0; i < uint(2); ++i) {\n            contents[i+1][0] = contents[i+1][0].mul(mints.sub(_amount)) / mints;\n            contents[i+1][1] = contents[i+1][1].mul(mints.sub(_amount)) / mints;\n        }\n        b = b.mul(mints.sub(_amount)) / mints; \n        require(IERC20(coin).transfer(msg.sender, _amount), \"could not transfer collateral tokens\");\n        _burn(msg.sender, 0, _amount); \n        mints = mints.sub(_amount); \n    }\n\n    // function validate(uint _id) public {\n    //     require(msg.sender == oracle, \"Non-oracle called validate\");\n    //     winner = _id; \n    // }\n\n    // // function redeem(uint _amount, uint _id) public {\n    // //     require(_id == winner)\n    // // }\n}",
  "sourcePath": "/Users/kylescott/src/simple_prediction/contracts/Prediction.sol",
  "compiler": {
    "name": "solc",
    "version": "0.8.0+commit.c7dfd78e.Emscripten.clang"
  },
  "schemaVersion": "3.2.4",
  "updatedAt": "2021-04-28T12:36:39.964Z",
  "devdoc": {
    "kind": "dev",
    "methods": {
      "balanceOf(address,uint256)": {
        "details": "See {IERC1155-balanceOf}. Requirements: - `account` cannot be the zero address."
      },
      "balanceOfBatch(address[],uint256[])": {
        "details": "See {IERC1155-balanceOfBatch}. Requirements: - `accounts` and `ids` must have the same length."
      },
      "isApprovedForAll(address,address)": {
        "details": "See {IERC1155-isApprovedForAll}."
      },
      "safeBatchTransferFrom(address,address,uint256[],uint256[],bytes)": {
        "details": "See {IERC1155-safeBatchTransferFrom}."
      },
      "safeTransferFrom(address,address,uint256,uint256,bytes)": {
        "details": "See {IERC1155-safeTransferFrom}."
      },
      "setApprovalForAll(address,bool)": {
        "details": "See {IERC1155-setApprovalForAll}."
      },
      "supportsInterface(bytes4)": {
        "details": "See {IERC165-supportsInterface}."
      },
      "uri(uint256)": {
        "details": "See {IERC1155MetadataURI-uri}. This implementation returns the same URI for *all* token types. It relies on the token type ID substitution mechanism https://eips.ethereum.org/EIPS/eip-1155#metadata[defined in the EIP]. Clients calling this function must replace the `\\{id\\}` substring with the actual token type ID."
      }
    },
    "version": 1
  },
  "userdoc": {
    "kind": "user",
    "methods": {},
    "version": 1
  }
}